:100000000C9413040C9430040C9430040C943004BD
:100010000C9430040C9430040C9430040C94300490
:100020000C9430040C9430040C940D1D0C94E21BC1
:100030000C9435230C9430040C9430040C9430044C
:100040000C9430040C9430040C9430040C94300460
:100050000C9430040C9497220C9430040C943004CB
:100060000C9430040C9430040C9430040C94300440
:100070000C9430040C9430040C9430040C94300430
:100080000C9430040C9430040C9430040C94300420
:100090000C9430040C9430040C9430040C94300410
:1000A0000C9430040C9430040C94300487088C08B1
:1000B000910896089B08A008A508AA08AF08B408EC
:1000C000B9082405C008C308C608C908CC08CF0869
:1000D000D408D9086F096F09AD09AD09F609160AE8
:1000E000EA0B430C580A440B560B560B820D850D38
:1000F000880D8B0D8E0D910D940DD70FDC0FE60F33
:10010000DA0FDF0FE40FE20F4F1269129512D212CD
:1001100013135E136113641367136A136D13701363
:100120007313761379137E138113841389138E133B
:100130009113941375267526882688267E26882690
:10014000882688267526752683268826882683266F
:10015000552C7C2C1C2E7C2C1C2EC42CE72C1C2EED
:10016000E52DF82D2E0029642B61D75CE3000000FB
:100170001E00140004001D0051004D001F001A0055
:1001800016001B0052002A0020000800070006008D
:1001900035002C00210015000900190034004A0028
:1001A000220017000A00050000004C002D0002513B
:1001B00000000151000046033100025100000151CE
:1001C0000000A90023001C000B0011000000AE007D
:1001D000240018000D0010005000AA0025000C009B
:1001E0000E0036004F002800260012000F003700D6
:1001F0002F002B0027001300330038003000A80028
:10020000350429742B71D85C00070000010001003F
:1002100001000100010000000100010001000100D7
:1002200001000100010001000100010001000100C6
:1002300001002F0226022F00010001000100300200
:10024000270230000100010001000100010001004F
:100250000000010001000100000001000000010099
:100260000100010000000100000001000100FB008E
:100270005000F200000001000100FA005100F100FE
:10028000AC0001000100F9005200F000AE00F400E3
:100290000100FC004F00F300AD00F500010001007B
:1002A000F6000100AB00F6000100010001000100B2
:1002B0000100000001000100010001000100000038
:1002C0003A00010001000100010001003B000100B3
:1002D00001000100010001003C00010001000100DB
:1002E000010001003D0001000100010001000100CA
:1002F0003E000100010001000000010001000100BA
:1003000000000100000001000100010000000100E8
:10031000000001003F000100010001000000010099
:100320004000240021001E000100010041002500C2
:1003300022001F00270001004200260023002000A9
:100340000100010043000100010001000100010063
:100350004400450001000100005C000000000000B6
:10036000000000000000000000000000000000008D
:100370007E0F00D4FFFFFFC70000007800000000E0
:10038000000000002A2B28000000000000000000F0
:100390000000000000000029000000002C1E342096
:1003A000212224342627252E362D3738271E1F20BC
:1003B0002122232425263333362E37381F04050601
:1003C0000708090A0B0C0D0E0F1011121314151645
:1003D0001718191A1B1C1D2F3130232D3504050643
:1003E0000708090A0B0C0D0E0F1011121314151625
:1003F0001718191A1B1C1D2F3130354C8C87FA8C9D
:1004000087FA8C87FA8C87FA8C87FA8C87FA8C8724
:10041000FA8C87FA8C87FA8C87FA8C87FA8C87FAA1
:100420008C87FA8C87FA8C87FA8C87FA8C87FA8CFF
:1004300087FA8C87FA8C87FA8C87FA8C87FA8C87F4
:10044000FA8C87FA8C87FA8C87FA8C87FA8C87FA71
:100450008C87FA8C87FA8C87FA8C87FA8C87FA8CCF
:1004600087FA8C87FA8C87FA8C87FA8C87FA8C87C4
:10047000FA8C87FA8C87FA8C87FA8C87FA8C87FA41
:100480008C87FA8C87FA8C87FA8C87FACA84F8CA28
:1004900084F8CA84F8CA84F8CA84F8CA84F8CA847A
:1004A000F8CA84F8CA84F8CA84F8CA84F8CA84F8F6
:1004B000CA84F8CA84F8CA84F8CA84F8CA84F8CA14
:1004C00084F8CA84F8CA84F8CA84F8CA84F8CA844A
:1004D000F8CA84F8CA84F8CA84F8CA84F8CA84F8C6
:1004E000CA84F8CA84F8CA84F8CA84F8CA84F8CAE4
:1004F00084F8CA84F8CA84F8CA84F8CA84F8CA841A
:10050000F8CA84F8CA84F8CA84F8CA84F8CA84F895
:10051000CA84F8CA84F8CA84F8CA84F85584FF5596
:1005200084FF5584FF5584FF5584FF5584FF55840F
:10053000FF5584FF5584FF5584FF5584FF5584FF84
:100540005584FF5584FF5584FF5584FF5584FF551E
:1005500084FF5584FF5584FF5584FF5584FF5584DF
:10056000FF5584FF5584FF5584FF5584FF5584FF54
:100570005584FF5584FF5584FF5584FF5584FF55EE
:1005800084FF5584FF5584FF5584FF5584FF5584AF
:10059000FF5584FF5584FF5584FF5584FF5584FF24
:1005A0005584FF5584FF5584FF5584FF00010101E8
:1005B0000101010101010202020202020202020320
:1005C00003030303030303040404040404040505F0
:1005D00005050506060606060707070707080808B3
:1005E00008090909090A0A0A0B0B0B0C0C0C0D0D62
:1005F0000D0E0E0E0F0F0F101011111112121313FA
:100600001414151516161717181819191A1A1B1B72
:100610001C1D1D1E1E1F20202122222324242526CE
:1006200026272829292A2B2C2D2D2E2F3031323206
:10063000333435363738393A3B3C3D3E3F40414212
:10064000434445464748494A4C4D4E4F50515354F8
:10065000555658595A5B5D5E5F61626465666869AC
:100660006B6C6D6F7072737577787A7B7D7E80822C
:10067000838587888A8C8E8F91939596989A9C9E75
:10068000A0A2A3A5A7A9ABADAFB1B3B5B7BABCBE85
:10069000C0C2C4C6C9CBCDCFD1D4D6D8DBDDDFE252
:1006A000E4E7E9EBEEF0F3F5F8FAFDFF05010902E6
:1006B000A10185020901A1000509190129051500FB
:1006C00025019505750181029501750381010501DB
:1006D000093009311581257F950275088106093891
:1006E0001581257F950175088106050C0A380215CC
:1006F00081257F950175088106C0C005010980A18B
:100700000185031A81002A83001601002603009543
:100710000175108100C0050C0901A10185041A01B1
:10072000002A9C02160100269C029501751081008A
:10073000C005010906A1018505050719E029E7158E
:100740000025019508750181020507190029EF159B
:1007500000250195F075018102050819012905950B
:100760000575019102950175039101C00501090606
:10077000A101050719E029E7150025019508750174
:1007800081029501750881010507190029FF1500EF
:1007900026FF0095067508810005081901290595B1
:1007A0000575019102950175039101C009023B0095
:1007B000020100A0FA09040000010301010009215F
:1007C000110100012240000705810308000A090405
:1007D0000100010300000009211101000122C000F5
:1007E0000705820320000A1201100100000008ED35
:1007F000FE0713010001020301040330000000168C
:10080000034500720067006F0064006F00780020ED
:100810000045005A00000008035A00530041000040
:1008200000040309040011241FBECFEFDAE0DEBF8D
:10083000CDBF13E0A0E0B1E0EEEAFAE602C0059019
:100840000D92A83DB107D9F726E0A8EDB3E001C0AD
:100850001D92A138B207E1F70E94531E0C94553542
:100860000C9400006F927F928F929F92AF92BF92F2
:10087000CF92DF92EF92FF920F931F93CF93DF936C
:10088000CDB7DEB760970FB6F894DEBF0FBECDBF11
:10089000FC01F080118183819481892B11F40C94E7
:1008A000660C1F3F29F40FEFF01611F40C94660C40
:1008B0006F0185E0DE01199601900D928A95E1F7AE
:1008C000F601228189859A85222349F00E94E2243B
:1008D000082F682F89859A850E945B2503C00E9496
:1008E0002E25082F26E0129FF001112434E5039FE6
:1008F000E00DF11D1124EF0DF11DEE0FFF1FEC595E
:10090000FE4F05911491F60182810930FDE51F0724
:1009100059F00A302DE5120709F446C0023C3CE5C7
:10092000130709F08AC062C0882309F498C0909127
:100930005F0581E0890F8770987F853020F4892BCF
:1009400080935F0502C090935F0580915F0587707B
:10095000EFEF8E9FC001112495958795959587950A
:100960009927909389008093880090938B008093BF
:100970008A0090938D0080938C0040915F05509188
:10098000600560916105709162058FE090E00E94C2
:10099000672F60912E0670912F06809130069091FE
:1009A00031060E94BD0F5BC0882309F458C08091B6
:1009B0005F0583FB222720F991E0922790FB83F9C2
:1009C00080935F05992329F040E060E080E00E9479
:1009D0002C1940915F0550916005609161057091FF
:1009E00062058FE090E00E94672F39C0882309F4E8
:1009F0006DC790911A0180915F059F3F59F4109245
:100A00001A018F7E80935F0540E060E080E00E94E5
:100A10002C1906C09FEF90931A01806180935F05A7
:100A200040915F055091600560916105709162058C
:100A30008FE090E00E94672F49C70B30FDE51F074C
:100A400071F4882309F442C780917806837084602A
:100A500080937806109209010E94301937C7F60179
:100A60008281882319F1033E2CE51207C1F050F46E
:100A7000013E8CE5180781F0023E9CE51907B1F4B0
:100A800081E010C0043EECE51E0759F0053EFCE590
:100A90001F0761F484E006C010925B0505C082E088
:100AA00001C083E080935B050E940D1B17FF6DC0A2
:100AB000F6018281882309F468C08091350680930D
:100AC000D8031092350680915B05813071F048F0B3
:100AD0008230A1F08430C1F486EE0E94A42988E11E
:100AE00011C082EE0E9417290FC088E193E00E9496
:100AF000A70F88E193E00E94910F06C082EE0E944A
:100B0000172987E50E94A4298FE39CE90197F1F753
:100B100000C000007801E894F7F86CE0A62EB12C34
:100B2000C7010A2C02C0969587950A94E2F7282FF0
:100B30002F7041F0822F90E02A3010F44D9604C0BF
:100B4000069702C087E290E00E94A42994E0A91AC7
:100B5000B108ECEFAE16EFEFBE0611F780915B0522
:100B6000813039F040F0823031F0843051F488E245
:100B700006C08CE204C082EE0E94B02802C00E942F
:100B8000A4298091D80380933506F60182818823B9
:100B900009F420C10436110509F403C190F40B32A5
:100BA000110509F4FEC0C8010C32110528F40497A0
:100BB000849708F00FC1F5C08D970C9708F00AC113
:100BC000F0C00931FCE51F0739F178F407313CE545
:100BD0001307C1F008318CE5180709F0FBC08091BC
:100BE000070190910801059712C00B319CE5190788
:100BF00009F4CEC008F4C8C00C31FCE51F0709F4A5
:100C0000CBC0E8C0809107019091080105969093B0
:100C1000080180930701E1C0809108018F938091C2
:100C200007018F938CE191E09F938F931F9288E04F
:100C30008F939E012F5F3F4F79013F932F930E9427
:100C400070320FB6F894DEBF0FBECDBF5AE0652EEE
:100C5000F7018081882309F4C0C0813009F051C0B8
:100C60008181813059F45701F2E0AF0EB11CF701D8
:100C7000F2808F2D0E9417298F2D14C0823051F4DD
:100C80005701F2E0AF0EB11CF70182810E941729D3
:100C9000750176C0833049F45701F2E0AF0EB11C04
:100CA000F70182810E94B028F3CF843021F0FFEF5A
:100CB000EF1AFF0A65C0F7012281C70102967C0185
:100CC00080E090E030E0205331092A30310570F4A3
:100CD000689EA001699E500D1124CA01820F931FC6
:100CE000EFEFEE1AFE0AF7012081ECCF009709F42E
:100CF00047C0EFE9FFE03197F1F700C0000001972E
:100D0000F5CFE82FF0E0E458FC4F7490282F26959B
:100D10002695269530E0F901E459FC4F84908770C0
:100D2000912C082E02C0959487940A94E2F7F1E082
:100D30008F229924F901E45AFC4FA490B12C02C0EF
:100D4000B594A7948A95E2F721E0A222BB248114EE
:100D5000910419F081EE0E941729A114B10419F031
:100D600086EE0E941729872D0E94A429AB2819F02E
:100D700086EE0E94B028892819F081EE0E94B028E2
:100D80003FEFE31AF30A64CF80910601811104C09A
:100D900081E08093060121C0109206010E94E918AB
:100DA0001CC00E94E91880910601882309F43DC106
:100DB00080913506811139C10E9413239093DC0381
:100DC0008093DB031093DA030093D90382E00E943F
:100DD000BC257CC50E94E91828C1F601928199239F
:100DE00009F479C11092DD030230FCE51F0708F415
:100DF0005CC106312CE5120738F098012A5F3C45AA
:100E00002730310508F051C10E94C123909372052B
:100E1000809371050F303CE5130709F4CFC008F04B
:100E200042C008309CE5190709F4A8C0F0F404306A
:100E3000FCE51F0709F490C068F402303CE5130795
:100E400009F486C003301C4509F0DFC080917105AC
:100E50008260D9C006309CE5190709F487C008F004
:100E600089C0809171058860CEC00B30FCE51F07FA
:100E700009F495C068F409303CE5130709F482C011
:100E80000A301C4509F0C1C080917105886080C09E
:100E90000D309CE5190709F486C008F087C08091E1
:100EA00071058D7FB0C00A3FFCE51F0709F457C0EC
:100EB00050F502313CE5130709F488C068F40031AD
:100EC0009CE5190709F47EC001311C4509F09DC05D
:100ED000809171058F7B97C00431FCE51F0709F4F1
:100EE00087C008F479C005311C4509F08EC0809197
:100EF000710582FB222720F991E0922790FB82F96D
:100F000090FB83F980C00D3F8CE5180709F452C0AF
:100F100058F40B3FECE51E0729F10C3F1C4509F086
:100F200074C08091720560C00F3F2CE5120709F470
:100F300058C080F101151D4509F067C08091720508
:100F4000982F909591708E7F892B90FB81F94DC0E1
:100F500080917105816057C08091710519C08091A1
:100F600072051BC08091720582603FC0809171053F
:100F7000806149C080917105806245C08091710592
:100F8000806441C00E949B288091710580683BC0AD
:100F9000846039C0809172058260816026C0809132
:100FA00071058E7F30C08091710519C080917105E7
:100FB000877F29C0809172058D7F17C08091710550
:100FC0008F7E21C0809171058F7D1DC00E949B285E
:100FD000809171058F7717C080917105877F8B7F16
:100FE00012C0809172058D7F8E7F809372050DC037
:100FF0000E949B288091710587FB222720F991E0B0
:10100000922790FB87F9809371056091710510918B
:10101000720584E090E00E94552F612F81E290E0FC
:101020000E94552F0E949B2851C4033FFCE51F07D7
:1010300039F426E241EE60EEC6010E94561B46C41A
:10104000043F2CE51207C0F4083D3CE5130721F4EA
:1010500027E245EE65EEF0CF093D8CE5180719F45F
:1010600028E241E0F7CF073D9CE5190709F0B5CE2E
:1010700026E241EE61EEE0CF053FECE51E0721F4EC
:1010800026E241EE62EED8CF053FFCE51F0720F4D3
:1010900027E245EE64EED0CF063F2CE5120709F0BB
:1010A0009CCE27E245EE66EEC7CF8091350606312D
:1010B0003CE5130701F58A7A91E009F490E09093FA
:1010C000DE03911102C069E201C065E38FE995E09A
:1010D0000E9489230DC006311C4509F0B7C08091DC
:1010E000DE038111F1C369E28FE995E00E945E237E
:1010F0000E949C24EBC38272F801E25CFC45E4315F
:10110000F10508F05BC0EA5AFF4F0C943D31909115
:10111000780681E089279CCC42E859E168E979E1C9
:101120002CC048E959E162E879E127C044E759E178
:101130006BE779E122C04BE759E164E779E11DC033
:1011400040E659E16AE679E118C04AE659E160E60D
:1011500079E113C04CE459E166E579E10EC046E55A
:1011600059E16CE479E109C048E359E162E479E1CD
:1011700004C042E459E168E379E10E941919A6C369
:1011800065E082E013C068E086E010C06EE089E0B0
:101190000DC064E18FE00AC067E185E107C080917E
:1011A00078068370806654CC62E289E10E94AE19B1
:1011B0008DC38091780683708C684ACC0115ECE56C
:1011C0001E0739F00E3D1C4509F040C00E94D22395
:1011D0007DC30E949B280FEF14E32CE001501040C8
:1011E0002040E1F700C00000F89481E08093E00027
:1011F00080E28093D8001092C9008FE19EE40197AD
:10120000F1F700C000001DBA109268001CBC10BEAF
:101210001FBA10927A0010926E0010926F00109216
:101220007100109272001092C9001092BC0014B8A4
:1012300017B81AB81DB810BA1092BC0015B818B873
:101240001BB81EB811BA0C94003F40C3F6010081D0
:101250001181992349F0C8010E94E224F82E682FD9
:10126000C8010E945B2504C0C8010E942E25F82EEB
:10127000B8018F2D0E94E70D182F382FF601258118
:1012800022952F700281011110923406809132064E
:101290008770A9F0002399F080E2810F883078F000
:1012A00082E02F87388B9E870E94BC258091320672
:1012B0008770EE24E3942F8538899E858111E12C77
:1012C000A92EA2944FE0A422B12CFCE0AF16B104E9
:1012D00008F0D9C2F501E659FF4F0C943D31892F32
:1012E000807F9F70F92E882319F0F29480EFF82206
:1012F0000023B9F0FF2009F457C280E2810F883043
:1013000010F0311106C090913506F92AF092350699
:1013100005C090913406F92AF09234060E949C246C
:1013200043C2812F388B0E94B0283889FF2009F4EE
:10133000AAC2105EF094183010F0311106C09091DE
:101340003506F922F092350605C090913406F9224F
:10135000F09234060E949C2496C2492F407F892F28
:101360008F70403211F08295807F332319F0313035
:10137000E9F025C0002381F030913606222351F098
:10138000213041F4982F932B391709F47CC29093A4
:10139000360679C2832B17C0222319F0213009F4B5
:1013A00072C28E870E9496248E851DC0002321F074
:1013B000223008F068C207C0211165C214C00023A2
:1013C00029F02111F1C10E94AC265DC2222359F0FF
:1013D000193309F0FBC10FEF27EE33E00150204035
:1013E0003040E1F7F1C10E94A1264DC2292F269578
:1013F0002695237030E02115310521F0213031058B
:1014000059F041C2002319F0812F937002C080E08F
:1014100090E00E94C71840C2002319F0812F9370FA
:1014200002C080E090E00E94B11836C20023F9F0BB
:10143000153F51F0163F71F0143FA9F48091DF037E
:101440009091E00381600BC08091DF039091E003F5
:10145000826005C08091DF039091E00384609093E7
:10146000E0038093DF03812F0E942F221EC0153FCF
:1014700051F0163F71F0143FA9F48091DF03909171
:10148000E0038E7F0BC08091DF039091E0038D7F9E
:1014900005C08091DF039091E0038B7F9093E00380
:1014A0008093DF03812F0E9465210E941F23F4C1D6
:1014B000892F837009F070C00111ECC1812F8295D2
:1014C00086958770880F880F412F4F7050E060E03D
:1014D00070E04A015B01082E04C0880C991CAA1C0C
:1014E000BB1C0A94D2F714FF12C00FE010E020E0FA
:1014F00030E004C0000F111F221F331F8A95D2F75E
:10150000B901A801409550956095709503C040E0E1
:1015100050E0BA01969596959370892F90E08230AD
:10152000910529F183309105C9F00091370610919A
:1015300038062091390630913A06019759F048292A
:1015400059296A297B29CB01BA016023712382239F
:1015500093230AC0802A912AA22AB32ACB01BA0176
:10156000682979298A299B290E94F62593C148294F
:1015700059296A297B298091370690913806A091D4
:101580003906B0913A068A019B01082719272A27B4
:101590003B27C901B801E8CF002319F0892F8170DA
:1015A00001C08695882309F475C1812F829586959F
:1015B0008770880F880F412F4F7050E060E070E017
:1015C0004A015B01082E04C0880C991CAA1CBB1C94
:1015D0000A94D2F714FF12C00FE010E020E030E0D0
:1015E00004C0000F111F221F331F8A95D2F7B901C3
:1015F000A801409550956095709503C040E050E07B
:10160000BA01969596959370892F90E08230910556
:10161000E9F08330910579F100912E0610912F06A3
:101620002091300630913106019759F04829592907
:101630006A297B29CB01BA0160237123822393237A
:1016400020C0802A912AA22AB32A15C048295929E4
:101650006A297B2980912E0690912F06A091300651
:10166000B09131068A019B01082719272A273B27B9
:10167000C901B80106C0CB01BA01682979298A29B4
:101680009B290E948B2506C19F70F92E002339F0FB
:10169000892F0E94D525812F0E94AC26FBC0812F67
:1016A0000E94A1268F2D0E949725F4C0812F323FE2
:1016B000C9F128F4303F49F0313F79F170C0333F30
:1016C000C1F1343F09F44DC06AC0002311F121116A
:1016D000DAC0292F2F7181E090E0A0E0B0E0AC01EA
:1016E000BD0104C0440F551F661F771F2A95D2F70E
:1016F00080912E0690912F06A0913006B091310670
:101700008A019B01082719272A273B27C901B8010D
:1017100025C0223008F0B7C0DCCF002329F0892F84
:101720008F712EC00023D9F3892F8F710E949725C6
:10173000AAC0002381F0292F2F7181E090E0A0E062
:10174000B0E0BC01CD0104C0660F771F881F991F50
:101750002A95D2F703C060E070E0CB010E948B2590
:1017600092C0002381F0192F1F71812F0E94D5256F
:1017700028E0129FC0011124836080933206812FDC
:101780000E94D52580C081E02F870E94BC252F852F
:10179000223008F478C082E00E94BC2574C0002387
:1017A00039F0222309F4BBCF812F0E9417296BC087
:1017B000222309F4B9CF893349F43FEF87EE93E050
:1017C000315080409040E1F700C00000812F0E941E
:1017D000B02859C0323FB1F028F4303F49F0313FD2
:1017E000F9F028C0343FB9F058F0353F71F022C00D
:1017F000002309F451C09091410681E0892708C077
:1018000081E008270093410647C0011145C081E0EF
:101810008093410641C001113FC0109241063CC077
:10182000002329F080914006882329F329C0222330
:1018300011F332C0809140062223C1F0882341F089
:101840009091410681E089278093410610924006DD
:10185000812F002319F00E9417291EC00E94B02872
:1018600086E0F60111928A95E9F716C08823A1F067
:10187000011112C09091410681E0892780934106B1
:101880001092400609C0F8E0AF1AB10804E0A016B3
:10189000B10410F40E94DD18EE20C1F080913206F0
:1018A00080FD14C0F60112828595859585950E946C
:1018B000D525C6010E943204809132068595859512
:1018C00085950E94972502C065E30ECC60960FB601
:1018D000F894DEBF0FBECDBFDF91CF911F910F9166
:1018E000FF90EF90DF90CF90BF90AF909F908F9040
:1018F0007F906F9008959C013A9521153F4138F5EE
:10190000DC01AA27B270AC01442754709C01222745
:10191000387094FF0FC090FF02C080E101C080E0EA
:10192000AB2B09F08062452B09F08064232B69F012
:1019300080680BC0892F8170AB2B09F08260452B2A
:1019400009F08460232B09F08860FB010994089555
:101950003F924F925F926F927F928F929F92AF923F
:10196000BF92CF92DF92EF92FF920F931F93CF938C
:10197000DF9320E9289F7001299FF00C1124C0E01B
:10198000D0E000E010E067018FEFC81AD80A5701D5
:1019900082E0A80EB11CFE01EE0DFF1DE450FC4FCD
:1019A0006491F601EC0FFD1FE450FC4F7491F501BA
:1019B000EC0FFD1FE450FC4F8491611107C07111C1
:1019C00005C0811103C020E040E042C00E94791AA6
:1019D000962E372E882E60917B0670E080E090E096
:1019E0000E941A3020E030E04FE753E40E94792F44
:1019F0002B013C01682D70E080E090E00E941C30DB
:101A00009B01AC01C301B2010E94A8300E94EB2FE0
:101A1000862E692D70E080E090E00E941C309B01D2
:101A2000AC01C301B2010E94A8300E94EB2F962E98
:101A3000632D70E080E090E00E941C309B01AC01BF
:101A4000C301B2010E94A8300E94EB2F282D492D1E
:101A5000C8010E942E190F5F1F4F2396C039D10570
:101A600009F099CFDF91CF911F910F91FF90EF90E7
:101A7000DF90CF90BF90AF909F908F907F906F90AE
:101A80005F904F903F900895CF93E82F873080F577
:101A900080910C0190910D01892B09F047C0CE2F48
:101AA00064E670E080E40E944A2E90930D018093DA
:101AB0000C01892BD1F464E670E082E10E94A12E32
:101AC00090930D0180930C01892B79F481E090E0D3
:101AD00001C0880FCA95EAF764E670E080950E941D
:101AE000A12E90930D0180930C01CF910C941D2F8A
:101AF00090E0FC013797E730F105C0F4EA58FF4F5A
:101B00000C943D31209A289811C0219A29980EC032
:101B1000229A2A980BC0239A2B9808C0529A5A9856
:101B200005C0539A5B9802C03E9A4698CF9108959B
:101B3000CF93873008F03FC080910C0190910D0148
:101B4000892B09F041C064E670E080E40E944A2ECF
:101B500090930D0180930C01892B11F0C0E027C0F8
:101B600064E670E083E10E94A12E90930D018093C2
:101B70000C01892B99F764E670E081E40E944A2EFB
:101B800090930D0180930C01892B41F784E690E03E
:101B90000E94D12E97FF05C090930D0180930C01F8
:101BA000DDCFC82FC09510920D0110920C010E943C
:101BB0001D2F8C2F0AC09FB18FB1807F869586958F
:101BC0009370892B809501C080E0CF910895CF93C9
:101BD000DF9326E0729FF001112444E5849FE00D1D
:101BE000F11D1124E60FF11DEE0FFF1FEC59FE4F02
:101BF000C591D491CE01C238D10569F1B0F4C13399
:101C0000D10509F475C048F4C932D10509F469C099
:101C1000CA32D10509F473C085C0C533D10509F4B2
:101C200059C0C933D105B9F07DC0C33ED10571F1AA
:101C300038F4C03ED105B1F0C23ED10511F172C0F9
:101C4000C63ED105B9F1C73ED105C9F1C43ED105A3
:101C500009F068C024C04091710540FD5DC041FDA0
:101C60005BC060C02091710520FD50C020917205BD
:101C700020FF54C18091710584FD4EC183EE90E038
:101C80004DC12091710522FF49C1F4CF80917105AA
:101C900082FD3FC08091720580FD3EC0EBCF209158
:101CA000720521FF3BC18091710584FD35C187EE2E
:101CB00090E034C12091710523FF30C1F4CF8091B1
:101CC000710583FD2CC08091720581FFECCF84EEFD
:101CD00090E024C12091710525FF20C189E290E0A8
:101CE0001DC12091710525FF19C185E390E016C142
:101CF0002091710526FF12C18AE290E00FC1209168
:101D0000710526FF0BC181E390E008C189E390E0F3
:101D100005C182EE90E002C180EE90E0FFC086EE49
:101D200090E0FCC0C11552E5D50708F074C0C1159C
:101D300021E5D20728F09C2F8827816F906AEEC09A
:101D4000C83ED10570F5C03ED10508F0E7C0C83ADD
:101D5000D105B8F4C53AD10550F08C2F855AE82F3B
:101D6000F0E0EF5DFE4F808190E09064D7C0C1301D
:101D7000D10509F4D3C008F4CFC0249708F4CCC02F
:101D8000CDC0CF3BD10508F0C7C08C2F885AE82FB3
:101D9000F0E0EE0FFF1FEC5DFE4F808191819464B7
:101DA000BDC0C11540E2D40760F4C11551E0D507AC
:101DB00008F0B4C0C03FD10508F4AEC0CE019065B4
:101DC000ADC0C11580E4D80708F4A6C0C11590E5E0
:101DD000D90720F4CE019F70906AA0C04C2F4370A9
:101DE00081E090E002C0880F991F4A95E2F79C6855
:101DF000AE01F4E056954795FA95E1F74370942BC0
:101E00002C2F2F702695269550E2259F90011124A6
:101E1000822B932B83C0C11526E5D207E8F5C115A7
:101E200045E5D40748F08C2F0E94131B8F7190E07A
:101E3000982F8827906272C0C11554E5D50728F005
:101E40009C2F8827846F906A69C08C2F8695869511
:101E5000AE0143705527C115D34578F490E2899FB0
:101E60009001112481E090E002C0880F991F4A95EB
:101E7000E2F7822B932B9C6851C090E2899F9001DE
:101E8000112481E090E002C0880F991F4A95E2F783
:101E9000822B932B9A6842C0C1152AE5D20780F5A0
:101EA000C11549E5D40718F18C2F8F700E94131BC0
:101EB0009E0194E0369527959A95E1F72F7030E0D2
:101EC000322F22273069A901482B0FC0CE0190562E
:101ED0008115904208F58D2F8F710E94131B9E0172
:101EE000332730628F71A901582BCA0117C0C11561
:101EF00058E5D50788F09C2F8827806F906A0EC020
:101F0000C1158BE5D80740F0C1159CE5D907F0F65F
:101F1000CE019927906602C080E090E0DF91CF91DA
:101F20000895CF93DF93EC010E94B028CE01805E2C
:101F30009109089710F0209719F461EA76E202C03F
:101F40006CE876E2CE01DF91CF910C947B0CCF93BD
:101F5000DF93EC01805E9109089710F0209719F447
:101F60006CEA76E202C067E976E2CE010E947B0C61
:101F70008C2FDF91CF910C941729CF92DF92EF92A3
:101F8000FF926B017C010E94462456985E9825982A
:101F90002D9826982E9827982F9890E0FC0131973D
:101FA000E730F105A8F4E358FF4F0C943D31259A32
:101FB0002D9A0EC0259A2D9A269A2E9A09C0259AF6
:101FC0002D9A04C0259A2D9A269A2E9A279A2F9AEE
:101FD000C701B601FF90EF90DF90CF90089580E2A7
:101FE00090E090930D0180930C018091E8038111A2
:101FF0000EC00E94442E81E08093E8032FEF83ED12
:1020000090E3215080409040E1F700C0000064E67A
:1020100070E080E40E944A2E90930D0180930C01A1
:10202000892B09F04EC064E670E080E00E94A12E8A
:1020300090930D0180930C01892B09F042C064E656
:1020400070E080E00E94A12E90930D0180930C011E
:10205000892BB9F564E670E08FE30E94A12E90937E
:102060000D0180930C01892B61F50E941D2F64E600
:1020700070E080E40E944A2E90930D0180930C0141
:10208000892BF9F464E670E08CE00E94A12E909315
:102090000D0180930C01892BA1F464E670E080E0CF
:1020A0000E94A12E90930D0180930C01892B49F47D
:1020B00064E670E08FE30E94A12E90930D0180935F
:1020C0000C010E941D2F80910C010895CF93DF9386
:1020D00056985E9825982D9826982E9827982F9890
:1020E000C8E8D0E08FEF90E099838883AAE8B0E059
:1020F00011969C938E93ECE8F0E091838083259A6F
:102100002D9A2FEF80E792E0215080409040E1F738
:1021100000C00000269A2E9A2FEF80E792E021500F
:1021200080409040E1F700C00000279A2F9A2FEFDF
:1021300080E792E0215080409040E1F700C000002D
:1021400025982D982FEF80E792E021508040904015
:10215000E1F700C0000026982E982FEF80E792E06C
:10216000215080409040E1F700C0000027982F9850
:1021700080915F0587702FEF829FC0011124959594
:1021800087959595879599279983888311969C9330
:102190008E939183808356985E9825982D982698E3
:1021A0002E9827982F98DF91CF91089584B1807F42
:1021B00084B985B1807F85B98AB1837F8AB98BB1B3
:1021C000837F8BB93E984698089580B38C7080BB0E
:1021D00081B3836F81BB08954F925F926F927F921C
:1021E0008F929F92AF92BF92CF92DF92EF92FF9227
:1021F0000F931F93CF93DF931F92CDB7DEB78091DC
:102200000C0190910D01892BA1F08091E7038F5F64
:102210008093E70381110DC00E94EF0F90E090932F
:102220000D0180930C01892B21F40E94D0190E948A
:10223000661043E6E42E45E0F42E5AE6C52E55E03E
:10224000D52E5701912C10E007E0090D892D0E9431
:10225000440D802F0E94440D892D0E94980DD501B8
:102260009C91981721F08C938824839401C0812C31
:10227000802F0E94980DF6019081981719F08083A5
:1022800081E001C080E08829182B0E94D610939429
:10229000FFEFAF1ABF0A2FEFC21AD20A37E093122C
:1022A000D3CF0E9413236AEF70E00E941531BC0166
:1022B000482F8091E2038823D9F11092E203E09144
:1022C0005905F0915A05DF011E9690E08BEF3AEF29
:1022D000A32EB12C20812B3F99F0C22ED12C421776
:1022E00020F09B012C193D0905C095012C193D09D1
:1022F000260F371F2E31310514F0808301C091E085
:102300003196EA17FB0731F79093E203111102C0EF
:10231000911110C01092E1036091590570915A0516
:102320009091E203E6E7F5E080E03EE03E0F32C048
:102330001111F0CF8091E1038111ECCF6091E303A3
:102340007091E4038091E5039091E6030E94BD2221
:102350002FB7F894C0903B06D0903C06E0903D0625
:10236000F0903E062FBFC092E303D092E403E092C8
:10237000E503F092E6034090740650907506609075
:10238000760670907706AFEF4A165A066A067A0606
:10239000D1F43AC0D7012D917D015081521749F0F7
:1023A000DB015C915B3F21F44C93208391E001C001
:1023B00081E06F5F7F4F31963E13ECCF9093E20345
:1023C0008093E103BBCFAB01BC01662777274A01AD
:1023D0005B0180949094A094B09484149504A60416
:1023E000B70420F48FEF9FEFDC0106C0DB01CA01C8
:1023F000840D951DA61DB71D8093740690937506D8
:10240000A0937606B0937706B0909E05B11009C0F0
:1024100090917806892F837021F0A92EA694A69416
:1024200001C0A12C809109018130A1F038F08230E7
:1024300009F491C1833009F49BC1ABC11092190119
:10244000C0927006D0927106E0927206F092730606
:1024500081E08BC180910B01A81210C08091780699
:10246000837090E020910A0130E051E040E0821753
:10247000930709F450E0252F342F02C021E030E00B
:10248000822F817080931B018A2D90E08631910507
:1024900008F04FC1FC01EC57FF4F0C943D31909177
:1024A0001901232B09F445C1F92EFF0CFF0CF90E7D
:1024B00005E00F0D013308F000E3F01608F0FAC054
:1024C00020E040E060E08F2D90E00E942E19F39410
:1024D000F4CF90911901D92EDD0CDD0CD90E05E059
:1024E0000D0D013308F000E36091790670917A06D2
:1024F00080917B060E94791AF62EE82ED01608F0FD
:10250000D9C0ED2DF0E0DF01A955BC4F8C91909121
:102510001A01982341F02E2D4F2D672FCF0179837B
:102520000E942E197981D394E9CF80911901982EB8
:10253000990C990C980E05E0090D013308F000E3A1
:10254000D0907A06C0907B0620917C0630E4329FC2
:10255000312D1124901608F0ADC0E92CF12CF701B3
:10256000E955FC4F808190911A019823C9F0F70139
:10257000EE0FFF1FE85BFC4F908192959F7060917A
:102580007906399F600D11247D2D8C2D39830E9491
:10259000791A462F282F672FC7010E942E193981DB
:1025A0009394D8CF80911901982E990C990C980E7C
:1025B00005E0090D013308F000E3D0907A06C090E1
:1025C0007B0620917C0650E4529F512D11249016D9
:1025D00008F070C0E92CF12CF701E955FC4F90810F
:1025E00080911A018923E9F0F701EE0FFF1FE95BE3
:1025F000FC4F6081569FB001112495E07595679559
:102600009A95E1F780917906680F7D2D8C2D59837D
:102610000E94791A462F282F672FC7010E942E1972
:1026200059819394D4CF80911901D82EDD0CDD0C03
:10263000D80E05E00D0D013308F000E3F0907906A7
:1026400070917A06E0907B0680917C06682F6695F3
:1026500066956695809170069091710679830E94C7
:102660006E1A0E94EC198058982F97FD9195990F3A
:10267000292F3E2D239F212D11246F2D7981822F0B
:102680000E94791AF62EE82ED016A0F4ED2DF0E077
:10269000DF01A955BC4F8C9190911A01982341F00C
:1026A0002E2D4F2D672FCF0179830E942E1979810E
:1026B000D394EACF81E00033E8F13BC086E595E1B1
:1026C0001AC08AE295E117C08FE296E11FC080E14F
:1026D00096E11CC085EF95E11EC08AED95E11BC017
:1026E00088E295E108C08FE195E105C086E195E1BA
:1026F00002C08BEF94E10E94F02A1CC08CEE94E1A2
:102700000AC08FE39AE102C089EC95E10E94942A05
:1027100011C085EB95E10E94182A0CC08EEB94E164
:1027200005C08CE894E102C08EE494E10E94B729D0
:1027300001C080E0909119019F5F90931901811170
:1027400028C082E08093090180911B01811121C082
:10275000AA2051F01EC0A0920B01809178068370D0
:1027600080930A010E947F1683E08093090111C0C3
:102770006091700670917106809172069091730657
:102780000E94BD226A3171058105910510F01092F9
:102790000901B1102AC080919E05811126C0809147
:1027A0005F0583FD22C060912E0670912F068091F7
:1027B0003006909131060E944624813049F028F07D
:1027C000823059F482E090E005C080E090E002C0E1
:1027D00081E090E00E94A80C08C080911A0181114C
:1027E00004C040E060E00E942C19812F0F90DF911F
:1027F000CF911F910F91FF90EF90DF90CF90BF90FE
:10280000AF909F908F907F906F905F904F900895C2
:102810008033910540F5880F991F880F991FFC019F
:10282000E65AFE4F52813381808183707181A82FD7
:10283000B0E0E0E98E9FC001112481509C4FFC0163
:10284000E70FF11DB4976083FC01E50FF11DB4970C
:102850004083830F911DFC01B4972083FD01E35059
:10286000FC4F81E080830895FF920F931F93CF93D5
:10287000DF93182F062FF42EC0E0D0E02F2D402F2D
:10288000612FCE010E9408142196C033D105B1F703
:10289000DF91CF911F910F91FF9008950F931F9398
:1028A00010E0F801EE0FFF1FE95BFC4F908190579D
:1028B00097FD9195000F111FF801E85BFC4FE08137
:1028C000F0E0B097DF01AA0FBB1F8D010E0F1F1F95
:1028D0002003D001219FB00D1124E8E3F0E0E91BB3
:1028E000F10997FDF3959F01220F331F89010E0F08
:1028F0001F1F40039001419F300D11242A0F3B1FE1
:1029000037FF02C021583F4F220F232F221F330BC6
:10291000620F1F910F9108950F931F93522F10E094
:10292000F801EE0FFF1FE85BFC4FE081F0E0B0978D
:10293000EE0FFF1F9F015203D001539FB00D1124D2
:10294000000F111FF801E95BFC4F008110E00057F8
:102950001109000F111F40039001419F300D1124F8
:102960002A0F3B1F37FF02C021583F4F220F232F52
:10297000221F330B620F1F910F9108950F931F9326
:10298000522F10E0F801EE0FFF1FE85BFC4FE081D3
:10299000F0E0B0979F015203D001539FB00D112476
:1029A000000F111FF801E95BFC4F008110E0005798
:1029B000110940039001419F300D11242A0F3B1F44
:1029C00037FF02C021583F4F220F232F221F330B06
:1029D000620F1F910F910895EF920F931F9393E051
:1029E000099F80011124159507956E2D600F1F9189
:1029F0000F91EF90089550E0FA01EE0FFF1FE85B92
:102A0000FC4F9081905297FD9195440F551FFA010C
:102A1000E95BFC4F408150E0FA01E21BF1099F01A4
:102A2000290F311D97FD3A95620F0895E42FF0E0CC
:102A3000EE0FFF1FE85BFC4F6081621B0895E42FDF
:102A4000F0E0EE0FFF1FE95BFC4F6081621B089511
:102A5000622F0895E42FF0E0EE0FFF1FE95BFC4FBB
:102A6000408134EE439F412D1124E82FF0E050E0E7
:102A7000445E5F4FDA01A21BB1099D01B7FF03C09D
:102A800031952195310993E0220F331F9A95E1F793
:102A9000AF01421B530B9A0157FF02C020E030E008
:102AA000582F259F212D1124822F0895E42FF0E027
:102AB000EE0FFF1FE95BFC4F408134EE439F412D39
:102AC0001124E72FF0E050E0445E5F4FDA01A21BD3
:102AD000B1099D01B7FF03C031952195310993E0FC
:102AE000220F331F9A95E1F7AF01421B530B9A0156
:102AF00057FF02C020E030E0279F212D1124722FC4
:102B00000895FC01CB01309721F477FF2CC080E8B9
:102B100008959F01F7FF04C0222733272E1B3F0B88
:102B2000BC01621B730B280F391F97FD0DC0CB0131
:102B300045E0880F991F4A95E1F7B9010E942931B4
:102B400080E2861B682F09C0C90125E0880F991F04
:102B50002A95E1F70E942931605A862FF7FF02C0BB
:102B600081950895089580E00895EF920F93CF9393
:102B7000DF93D72FC82FC9010E19BA010E94811502
:102B8000602F681B7D2F8C2FDF91CF910F91EF90DD
:102B900008950F93CF93DF93D72FC82FC901BA01A0
:102BA0000E948115682F600F7D2F8C2FDF91CF91B0
:102BB0000F910895EF920F931F93CF93DF93D62F2A
:102BC000C72F182FC9010E19010FBA010E948115D4
:102BD000081B019F012D11246D2F7C2F802FDF9169
:102BE000CF911F910F91EF900895EF920F931F9344
:102BF000CF93DF93D62F172FC82FC9010E19070FB8
:102C0000BA010E948115081B702F719F712D11242C
:102C10006D2F8C2FDF91CF911F910F91EF90089521
:102C2000FF920F931F93CF93DF93F62ED72F182F7A
:102C3000C901C12FC01BBA010E948115982F880FAE
:102C4000980F2C2F291B219F212D11246F2D7D2FB3
:102C5000822FDF91CF911F910F91FF900895FF92E6
:102C60000F931F93CF93DF93F62E172FD82FC90101
:102C7000C72FC01BBA010E948115982F880F980F8B
:102C8000C91B7C2F719F712D11246F2D8D2FDF910A
:102C9000CF911F910F91FF900895EF92FF921F9394
:102CA000CF93DF937B01182F110FC0E0D0E08C2F62
:102CB0008C5D8093E90320E030E0F901EC0FFD1F0B
:102CC000EE0DFF1D8081F901E751FC4F81832F5FDD
:102CD0003F4F2031310589F724E630E041E150E0F3
:102CE00069EE73E0812F0E94F62E6096C039D105FF
:102CF000F1F6DF91CF911F91FF90EF9008958091B1
:102D0000FD03882329F06FEF73E084E70E944D16DE
:102D10001092FD038091FE03882329F06FE874E090
:102D200087E70E944D161092FE030895E9EEF3E046
:102D30006083418324E630E042E050E0BF01880F29
:102D40000C94F62EFF920F931F93CF93DF93E62FF1
:102D5000F0E0ED5BFA4F90819923B1F0F82E82E11B
:102D6000689FE001112400E010E0F801EC0FFD1F66
:102D7000E15EFA4F4081602F8F2D0E9496160F5F03
:102D80001F4F0231110589F7DF91CF911F910F91EC
:102D9000FF900895CF93DF93C82F4BE06DEF0E9413
:102DA000961640E06AE08C2F0E9496168FE39CE90D
:102DB0000197F1F700C0000040E060E08C2F0E9416
:102DC000961640E061E08C2F0E94961640E066E087
:102DD0008C2F0E94961640E06DEF8C2F0E94961665
:102DE000D0E040E06D2F8C2F0E949616DF5FD2312D
:102DF000C1F740E06D2F8C2F0E949616DF5FD43212
:102E0000C1F740E06D2F8C2F0E949616DF5FD43BF8
:102E1000C1F74BE06DEF8C2F0E94961641E06AE0FF
:102E20008C2F0E94961640E06DEF8C2FDF91CF9192
:102E30000C9496166F927F928F929F92AF92BF9250
:102E4000CF92DF92EF92FF920F931F93CF93DF9376
:102E50000E94442E84E70E94CA1687E70E94CA1681
:102E6000EDE5EE2EE1E0FE2EC12CD12CF2E17F2E1D
:102E7000A8E08A2E912CAA24A394B12C66246394F2
:102E8000F7013297608170E0CB0184973196C08161
:102E9000D0E0A497D701EC91F0E0B497D601AA0F47
:102EA000BB1FAA0FBB1FA65ABE4F2C91237030E048
:102EB000AC0197FF02C0495F5F4F63E055954795AE
:102EC0006A95E1F7729E8001739E100D1124040F24
:102ED000111D015E1A4FB4010E942931A50102C0E3
:102EE000440F551F8A95E2F7CA01D8019C91892B9E
:102EF0008C93CE01D7FD079653E0959587955A950B
:102F0000E1F7729E8001739E100D1124080F111DB0
:102F1000015E1A4FCE01B4010E942931A50102C001
:102F2000440F551F8A95E2F7CA01D8019C91892B5D
:102F30008C93CF01F7FD079643E0959587954A95C9
:102F4000E1F7729EE001739ED00D1124C80FD11DD0
:102F5000C15EDA4FCF01B4010E942931A50102C040
:102F6000440F551F8A95E2F7CA019881892B8883FF
:102F7000F901ED5BFA4F60825FEFC51AD50A84E074
:102F8000E80EF11CA0E3CA16D10409F079CF60E085
:102F900084E70E94A21661E087E7DF91CF911F913D
:102FA0000F91FF90EF90DF90CF90BF90AF909F90E8
:102FB0008F907F906F900C94A216EF92FF920F93D8
:102FC0001F93CF93DF93CDB7DEB767970FB6F89413
:102FD000DEBF0FBECDBF4B8B5C8B6D8B7E8B8F8B23
:102FE0000E891F8901151105C1F15F3F11F44F3F93
:102FF000A1F1E42EF12CA1E0B0E0042E01C0AA0F53
:103000000A94EAF7852F90E0662319F02091410693
:1030100006C09C01255B3A4FF90120812A23222317
:10302000A9F046E0489F9001499F300D1124F70117
:10303000E20FF31FEE0FFF1FE65EFD4F408151814F
:10304000FC01E55BFA4F9081A92B06C0FC01E55B12
:10305000FA4FA0958081A823A08386E0FE013D96CB
:10306000DF01982F1D929A95E9F74D875E876F874C
:10307000198B088BDE01179601900D928A95E1F766
:10308000CE0107960E94B626811137C086E0FE0168
:103090003796DE01119601900D928A95E1F7FF8136
:1030A000E8856A857B856115710539F1EF3F11F47B
:1030B000FF3F19F12091C50530E0C90101968770E5
:1030C00099274091F60550E08417950779F1F98327
:1030D000EA837D836C8396E0929FD001939FB00D2D
:1030E0001124AA53BA4FFE01319601900D929A9580
:1030F000E1F78093C5050E94002616E08091F60551
:103100009091C505891701F1189FC00111248A53B8
:103110009A4F0E94B6268823B9F08091F60590E078
:103120000196877099278093F605E8CF0E949B2827
:103130001092C5051092F605EFEBF5E086E0DF0191
:103140001D928A95E9F7D9CF67960FB6F894DEBF3E
:103150000FBECDBFDF91CF911F910F91FF90EF90E8
:1031600008952091490530914A058217930771F01F
:1031700090934A0580934905E0917305F091740599
:10318000309721F00084F185E02D09940895209175
:103190004705309148058217930771F090934805D1
:1031A00080934705E0917305F0917405309721F005
:1031B0000680F781E02D09940895E0917305F09160
:1031C0007405309721F00190F081E02D099480E0A2
:1031D0000895CF93DF938091D9039091DA03892BDF
:1031E00029F18091DB039091DC030E94E922209178
:1031F0000701309108012817390760F4C091D903FD
:10320000D091DA03D260CE010E94A70FCE010E94B6
:10321000910F04C08091D9030E94A4291092DC036D
:103220001092DB031092DA031092D903DF91CF9151
:103230000895882311F0FA0101C0FB0109948091DF
:103240007806837011F410920901809178068C7FC2
:1032500081608093780608950C9434140C940814BB
:1032600045E050E06CE170E088E796E00C94452F73
:10327000E8E7F6E0248130E1231B08F420E0248312
:103280000C943019E8E7F6E0248130E1230F08F4CC
:103290002FEF24830C943019E8E7F6E0238130E126
:1032A000231B08F420E023830C943019E8E7F6E0B0
:1032B000238130E1230F08F42FEF23830C9430197E
:1032C000E8E7F6E0228130E1231B08F420E02283C6
:1032D0000C943019E8E7F6E0228130E1230F08F47E
:1032E0002FEF22830C943019E8E7F6E081818850B3
:1032F00081830C943019E8E7F6E08181885F81834F
:103300000C94301990917806892F86958695815C6A
:103310008F739370882321F0880F880F892B02C048
:10332000892F846580937806109209010C943019D6
:1033300090917806892F869586958F5F8F7393700D
:10334000863120F4880F880F892B02C0892F846072
:1033500080937806109209010C94301990917806A8
:1033600096959695981720F0961710F40C94981946
:10337000880F880F909178069370892B8093780638
:10338000109209010C943019E8E7F6E081E380839C
:1033900011828FEF828383838FE784830C943019AB
:1033A0000E941A1780E090E00E943F2F8F3E9E4FB0
:1033B00021F00E94D2230E94C41945E050E06CE144
:1033C00070E088E796E00E94212F809178068C7F3C
:1033D00011F40C94C4190895482F982F46FD909528
:1033E000E92FEF739F7046FD9F5FE295EF70EE0F40
:1033F000F0E0EE5AFE4F2181299F802D212D1124CE
:1034000082958F702295207F822B3081982F930F89
:10341000892F47FD819580580895BC018230910520
:1034200008F40895613E8EE1780748F49B0195E029
:10343000369527959A95E1F748E0420F01C04FEF86
:1034400091E0242F30E0290F311D35952795229FDB
:10345000F001239FF00DF00D11246E177F0718F473
:103460004FEF420F05C02F3F310539F091E0920F29
:10347000491738F78FEF890F08958FEF08950F934D
:103480001F93CF93DF931F92CDB7DEB7182F47FD61
:103490004195E8E3F0E0CF01841B910947FD939546
:1034A000889FF001899FF00DF00D1124229FC0012B
:1034B000239F900D900D11248E0F9F1F79830E94E2
:1034C0000D1A982F880F980F692F600F7981812F1F
:1034D0000F90DF91CF911F910F91089520E030E080
:1034E000A901869F412D969F400D511D1124CA01AF
:1034F0000895AF92BF92CF92DF92FF920F931F93E6
:10350000CF93DF93D62E372FE82FF0E0711106C04E
:10351000E455FA4F6491762F862F75C0C72FD0E0FF
:10352000E455FA4F2491F22E022F10E046E0649FFA
:10353000C0011124EFEFF0E0BF010E941531AB0193
:103540006BEA6403C001659F900D11248D0D911DE0
:103550008D0D911D982F990F890FDF01AC1BBD0BAD
:103560000A9FB0010B9F700D1A9F700D1124972FA9
:10357000839FD0011124AB2FBB276F01CA1ADB0A2E
:103580000C9DD0010D9DB00D1C9DB00D11245F014F
:10359000A81AB108AC9E6001AD9ED00CBC9ED00CA8
:1035A0001124CD2DDD27EC1BFD0B0E9FE0010F9F9D
:1035B000D00D1E9FD00D1124ED2F4230510591F0FA
:1035C0004CF441155105E1F041305105B9F4E22FB9
:1035D0002B2F16C04430510569F044F04630510598
:1035E00079F00CC0E22F272F9D2F0AC0272F9F2D87
:1035F000EB2F06C0E72F922F2D2F02C0E72F9B2F16
:103600006E2F722F892FDF91CF911F910F91FF9015
:10361000DF90CF90BF90AF90089560915B058CE0F4
:1036200090E00C94552F9091710592FF0DC0282FBA
:103630002871283019F4877F846006C0282F2471F0
:10364000243011F48B7F886093FF0DC0282F2871E0
:10365000283119F4877E846106C0282F2471243113
:1036600011F48B7E88612091720520FF0DC0382FE8
:103670003871383019F4877F816006C0382F317176
:10368000313011F48E7F886021FF0DC0282F287102
:10369000283119F4877E816106C0282F21712131DC
:1036A00011F48E7E886194FD877E08950F931F9399
:1036B000CF93DF93C62FD42F022FFC018281882362
:1036C000C9F06093DD030E94132390934605809315
:1036D000450580E28C0F883008F050C0C77081E04B
:1036E00001C0880FCA95EAF7DF91CF911F910F9122
:1036F0000C94AC261091DD03161330C08091450563
:10370000909146050E94E922883C910538F5C0E277
:10371000CD0F1D17B9F080E2810F883040F417708B
:1037200081E001C0880F1A95EAF70E94A126C830EF
:1037300048F481E09D2F977001C0880F9A95EAF7B1
:103740000E94AC26802F0E94A429C830B8F4D770FC
:1037500081E001C0880FDA95EAF70AC080E28C0F99
:10376000883060F4C77081E001C0880FCA95EAF71D
:10377000DF91CF911F910F910C94A126DF91CF91F2
:103780001F910F910895E8EDF0E080818E7F808396
:103790001092E2001092DA001092E100A0EEB0E088
:1037A0008C9181608C9380818F77808319BCA7ED89
:1037B000B0E08C918E7F8C9380818F7E808310927D
:1037C0009D0508951F920F920FB60F9211242F930B
:1037D0003F934F935F936F937F938F939F93AF9399
:1037E000BF93CF93DF93EF93FF93C091E900CF7026
:1037F0008091EC00D82FD17080FDD0E81092E900C4
:103800008091F000877F8093F00078940E94712B64
:103810001092E9008091F00088608093F000CD2B39
:10382000CF70C093E900FF91EF91DF91CF91BF91ED
:10383000AF919F918F917F916F915F914F913F9148
:103840002F910F900FBE0F901F9018952091E400BC
:103850003091E50095E64091EC00842F817040FFA7
:1038600022C08091E80080FD1CC0809166068823FC
:1038700091F0853091F08091EB0085FD10C0409172
:10388000E4005091E5004217530729F39A01915043
:1038900011F784E0089582E0089583E0089581E0BF
:1038A000089580E008954091E80042FFDECF08953A
:1038B0008091680687FF11C08091E80082FD05C0F5
:1038C000809166068111F8CF11C08091E8008B7756
:1038D0000BC080916606882349F08091E80080FF44
:1038E000F8CF8091E8008E778093E8000895982FB4
:1038F000973058F59093E900981739F07091EC00E3
:103900002091ED005091F00003C0242F762F50E05D
:1039100021FF19C03091EB003E7F3093EB003091D6
:10392000ED003D7F3093ED003091EB00316030933E
:10393000EB007093EC002093ED005093F000209189
:10394000EE0027FF07C09F5FD3CF8F708093E90001
:1039500081E0089580E00895CF92DF92EF92FF9288
:103960000F931F93CF93DF93C8EDD0E088818F7EB4
:103970008883E7EDF0E080818160808384E082BF0E
:1039800081E080939D0588818E7F888302EE10E020
:10399000F80110821092DA0081EEC82ED12CF601C7
:1039A000108288818F778883888180688883888166
:1039B0008F7D888319BC109266061092670610925C
:1039C00065061092640690EEE92EF12CF7018081D5
:1039D0008B7F808388818160888342E060E080E023
:1039E0000E94771CF60180818E7F8083F8018081A0
:1039F00081608083808188608083F70180818E7FF1
:103A00008083888180618883DF91CF911F910F919E
:103A1000FF90EF90DF90CF9008951F920F920FB616
:103A20000F9211242F933F934F935F936F937F9344
:103A30008F939F93AF93BF93EF93FF938091E10098
:103A400082FF09C08091E20082FF05C08091E10001
:103A50008B7F8093E1008091DA0080FF2AC0809103
:103A6000D80080FF26C08091DA008E7F8093DA0034
:103A70008091D90080FF18C080E189BD82E189BDB5
:103A800009B400FEFDCF81E08093660680919D051C
:103A900081110FC00E94C31B0E94AC1C8091E200E8
:103AA00084608093E20005C019BC109266061092F3
:103AB0009D058091E10080FF17C08091E20080FFAA
:103AC00013C08091E2008E7F8093E2008091E2003B
:103AD00080618093E2008091D80080628093D8005A
:103AE00019BC85E0809366068091E10084FF34C0B4
:103AF0008091E20084FF30C080E189BD82E189BD10
:103B000009B400FEFDCF8091D8008F7D8093D8004E
:103B10008091E1008F7E8093E1008091E2008F7EB2
:103B20008093E2008091E20081608093E2008091C6
:103B30006706882311F084E007C08091E30087FDC9
:103B400002C081E001C083E0809366060E949B284A
:103B50000E94DD1810929E058091E10083FF27C02E
:103B60008091E20083FF23C08091E100877F8093F2
:103B7000E10082E080936606109267068091E10082
:103B80008E7F8093E1008091E2008E7F8093E2003F
:103B90008091E20080618093E20042E060E080E09A
:103BA0000E94771C8091F00088608093F000FF9164
:103BB000EF91BF91AF919F918F917F916F915F91A5
:103BC0004F913F912F910F900FBE0F901F9018951E
:103BD00020916E0630916F062617370748F0611561
:103BE000710539F42091E8002E772093E80001C098
:103BF000B90140E061157105A9F120916606222303
:103C000009F443C0253009F442C02091E80023FDA7
:103C100040C02091E80022FD32C02091E80020FF42
:103C2000E9CF4091F3002091F20030E0342BFC0109
:103C3000CF016115710559F02830310540F48191AB
:103C40008093F100615071092F5F3F4FF1CF41E048
:103C50002830310509F040E02091E8002E772093CC
:103C6000E800C8CF4111C9CF0AC0809166068823F9
:103C700061F0853061F08091E80083FD0AC0809199
:103C8000E80082FFF2CF80E0089582E0089583E0AB
:103C9000089581E0089580916606843011F081E0F6
:103CA000089582E00895CF93DF93CDB7DEB72A97CA
:103CB0000FB6F894DEBF0FBECDBF84B7877F84BF39
:103CC0000FB6F894A8958091600088618093600099
:103CD000109260000FBE90E080E80FB6F8948093D9
:103CE0006100909361000FBE85B7806885BF85B77E
:103CF000806885BF0E94C31B0E94AC1C8091E200BB
:103D000084608093E2007894809166068823A1F015
:103D10001091E9001F709091EC00892F817090FD47
:103D200080E8182B1092E9008091E80083FD0E9442
:103D3000712B1F701093E90082E084BD93E095BD64
:103D40009AEF97BD80936E000E94EF0F90E09093E2
:103D50000D0180930C010E94D6100E94E510A3E68D
:103D6000B5E0E6E7F5E01EE0F12EFE0E11921D92A1
:103D7000FE12FCCF8EE090E00E9443318093590503
:103D800090935A05FC010E962BEF2193E817F90743
:103D9000E1F780E090E00E943F2F8F3E9E4F11F0B0
:103DA0000E94D2230E94D0198CE090E00E94312F13
:103DB00090E0A0E0B0E080935B0590935C05A09359
:103DC0005D05B0935E0589EA8093800089E0809369
:103DD000810024982C983F988AB18F7C8AB96E987C
:103DE000479A8BB180638BB9769A8FE090E00E94FE
:103DF000392F60935F057093600580936105909300
:103E0000620567708FEF869FB001112475956795E5
:103E100075956795772770938900609388007093F4
:103E20008B0060938A0070938D0060938C0090915A
:103E30005F0594FF03C080931A0102C010921A011B
:103E40000E94661080E090E00E943F2F8F3E9E4FC0
:103E500011F00E94D22382E090E00E94312F8093E3
:103E60008E050E94C123909372058093710583E0B3
:103E700090E00E94312F682F70E080E090E00E9477
:103E8000F6250E941F190E941F190E9430198EE00A
:103E900091E09093740580937305EE24E394BB2422
:103EA000BA9440E1A42E52E1952E68E1C62ED12CA1
:103EB00070E4872E80916606853009F052C040E09C
:103EC00060E080E00E942C19E0929E0580916606D9
:103ED000843041F1109275050FB6F894A895C09200
:103EE00060000FBE8092600040E060E080E00E94D1
:103EF0002C19E0929E0583B7817F846083BF83B7CE
:103F0000816083BF7894889583B78E7F83BF0FB617
:103F1000F894A89580916000886180936000109269
:103F200060000FBE80916506882309F4C3CF0E940C
:103F3000EF0F90E090930D0180930C010E94D6103A
:103F40000E94E510E6E7F5E01192FE12FDCF0E9417
:103F5000EC10E6E7F5E081918111DFC0FE12FBCFA6
:103F6000A9CF0E94EC10EFE8F5E0A6E7B5E000E08D
:103F700010E0302F9D912191292721F180E07724B5
:103F80007394472D4223D1F089833A83972181E0AE
:103F900009F480E08B830E9413238160782F9D8336
:103FA0008C8349815A816B818D810E94DD17F801D4
:103FB000E157FA4F80817826708218C08F5F770CA6
:103FC0008630F9F60F5F1F4F0E30110591F6BE8255
:103FD000BF8218860E9413238160782F9A87898771
:103FE0004E815F8168858A850E94DD1780918B05EF
:103FF00090918C050E94E9229C0190918A05992359
:1040000021F02431310508F47CC08091860510919F
:10401000870581110BC0111194C0209188052111D1
:1040200090C02091890521118CC06BC09F3F19F071
:104030009F5F90938A05181624F40E940C228093A7
:1040400086058091860587FF05C00E940C22819518
:1040500080938605111624F40E940C228093870514
:104060008091870587FF05C00E940C22819580936F
:10407000870530918605332301F12091870522239E
:10408000E1F045EB3403C0011124892F990F990BFE
:10409000009719F08093860502C0E092860535EB03
:1040A0002303C0011124892F990F990B009719F050
:1040B0008093870502C0E0928705809188051816D5
:1040C00024F40E94EA21809388058091880587FF67
:1040D00005C00E94EA218195809388058091890519
:1040E000181624F40E94EA2180938905809189059D
:1040F00087FF05C00E94EA218195809389050E946F
:104100001F2310918D050E94DD18181709F4D2CED7
:104110000E94DD1880938D05CDCEA9BC99BC09B451
:1041200000FEFDCF8091D8008F7D8093D8008091D4
:10413000E00082608093E0008091E00081FDFCCF90
:10414000B9CE9F3F09F074CF7CCF8091430608958C
:10415000CF93DF9300D01F92CDB7DEB79091660664
:10416000943019F589837B836A8382E08093E90028
:104170008FEF9091E800815095FD06C095ED9A95DE
:10418000F1F700008111F5CF8091E80085FF0DC0A7
:1041900040E050E063E070E0CE0101960E943A2BCF
:1041A0008091E8008E778093E8000F900F900F9039
:1041B000DF91CF910895CF93DF93EC010E944B1EC6
:1041C000823011F0843031F4BE0184E0DF91CF9170
:1041D0000C94A820DF91CF910895BC01605871091B
:1041E00083E00C94A820CF93DF93EC010E944B1E38
:1041F000823011F08430F9F482E08093E9009FEF7F
:104200008091E800915085FD06C085ED8A95F1F713
:1042100000009111F5CF8091E80085FF0CC040E0CF
:1042200050E066E070E0CE010E943A2B8091E800F9
:104230008E778093E800DF91CF910895CF93DF933D
:10424000EC010E944B1E823011F08430D9F5809130
:104250001801882339F08091710587FF03C060E25F
:1042600082E002C068E081E08093E9008FEF9091E6
:10427000E800815095FD06C095ED9A95F1F7000094
:104280008111F5CF8091E80085FF1CC08091180155
:10429000811105C040E050E068E070E003C070E0CC
:1042A00040E050E0CE010E943A2B8091E8008E77EA
:1042B0008093E80080E2FE01A4E4B6E001900D9254
:1042C0008A95E1F7DF91CF910895803F39F480918D
:1042D000870587FF6CC01092870569C0813F29F46C
:1042E000809187051816BCF362C090918605823FC5
:1042F00029F497FF5CC01092860559C0833F19F4DA
:104300001916CCF354C0893F41F4809188051816E2
:104310000CF04DC0109288054AC08A3F29F4809164
:10432000880587FF44C0F6CF8B3F39F4809189051B
:1043300087FF3DC0109289053AC08C3F29F48091D7
:1043400089051816BCF333C0843F21F4809185059C
:104350008E7F17C0853F21F4809185058D7F11C028
:10436000863F21F4809185058B7F0BC0873F21F428
:1043700080918505877F05C0883F31F48091850550
:104380008F7E8093850513C08D3F21F480913F0679
:104390008E7F0BC08E3F21F480913F068D7F05C03C
:1043A0008F3F29F480913F068B7F80933F06809159
:1043B000860581110EC08091870581110AC0809108
:1043C0008805811106C080918905811102C0109273
:1043D0008A05089580913F0680FD16C081FD16C0B4
:1043E00082FD18C080918A05882391F0883290F46C
:1043F00028E0829FC001112468E270E00E94293108
:10440000862F672B29F007C082E0089584E0089585
:1044100081E0089588E0089580913F0680FD17C0EF
:1044200081FD17C082FD19C080918A05882399F00B
:104430008C3398F423E2829FC00111246CE370E076
:104440000E942931862F672B49F481E0089588E086
:10445000089581E1089585E0089583E20895803FFD
:1044600021F40E940C22819504C0813F29F40E940E
:104470000C22809387050895823F21F40E940C222C
:10448000819504C0833F29F40E940C228093860505
:104490000895893F19F40E94EA2105C08A3F31F44A
:1044A0000E94EA2181958093880508958B3F21F42D
:1044B0000E94EA21819504C08C3F29F40E94EA21E0
:1044C000809389050895843F21F48091850581605A
:1044D00017C0853F21F480918505826011C0863F19
:1044E00021F48091850584600BC0873F21F4809181
:1044F0008505886005C0883F31F48091850580611D
:104500008093850508958D3F21F480913F06816059
:104510000BC08E3F21F480913F06826005C08F3F23
:1045200029F480913F06846080933F060895789433
:104530001F920F920FB60F9211248F939F93AF93F8
:10454000BF9380913B0690913C06A0913D06B091AF
:104550003E060196A11DB11D80933B0690933C063B
:10456000A0933D06B0933E06BF91AF919F918F916E
:104570000F900FBE0F901F901895CF92DF92EF9281
:10458000FF920F931F932FB7F894C0903B06D090E3
:104590003C06E0903D06F0903E062FBF9701860155
:1045A000061B170B280B390BC616D706E806F906AB
:1045B00018F0C901B80106C0C901B80161507109FC
:1045C000810991091F910F91FF90EF90DF90CF909B
:1045D0000895CF92DF92EF92FF920F931F932FB720
:1045E000F89440913B0650913C0660913D067091D5
:1045F0003E062FBF6A017B01EE24FF248C0120E0E0
:1046000030E0C016D106E206F30610F4415051091D
:104610009A01281B390BC9011F910F91FF90EF9050
:10462000DF90CF9008952FB7F89480913B0690913A
:104630003C06A0913D06B0913E062FBF0895E09143
:104640007305F0917405309749F082E080938405FA
:104650000480F581E02D84E895E009950E941323FC
:1046600090938C0580938B0508951F920F920FB63F
:104670000F9211248F939F93AF93BF9380917505F1
:10468000811113C080913B0690913C06A0913D069C
:10469000B0913E064196A11DB11D80933B069093BB
:1046A0003C06A0933D06B0933E06BF91AF919F910B
:1046B0008F910F900FBE0F901F90189520911801A9
:1046C000222321F02091710527FD04C0FC013296C0
:1046D000089619C0262F2695269526952E31C0F4CA
:1046E000FC01E20FF11D677081E090E001C0880FCE
:1046F0006A95EAF78095928189238283089531969D
:10470000E817F90729F020812613F9CF1082F7CF97
:10471000089520911801222321F02091710527FD91
:1047200005C0FC0132962FEF30E019C0262F2695E8
:10473000269526952E3120F5FC01E20FF11D6770BC
:1047400081E090E001C0880F6A95EAF79281892B99
:10475000828308952F3F39F03F5F363041F0419119
:104760004613F8CF0DC04111F7CF232FF5CF2F3FC0
:1047700039F0FC01E20FF11D27FDFA9562830895DF
:104780000895CF9384E090E00E94312FC82F81E2FA
:1047900090E00E94312F2C2F30E0A901582BCA0144
:1047A000CF9108956FEE7EEF80E090E00E94732F2E
:1047B00060E082E090E00E94552F60E083E090E0AE
:1047C0000E94552F10923706109238061092390623
:1047D00010923A0660E084E090E00E94552F60E07D
:1047E00081E290E00E94552F60E085E090E00E9419
:1047F000552F60E086E090E00E94552F6FEF87E034
:1048000090E00E94552F40E050E0BA0188E090E02F
:104810000E94672F60E08DE090E00E94552F40E0FD
:1048200050E0BA0188E190E00E94672F60E087E1E4
:1048300090E00E94552F40E050E0BA018CE190E0FA
:104840000E94672F60E080E290E00E94552F109256
:104850005F0510926005109261051092620584E078
:10486000806180935F0540915F0550916005609184
:104870006105709162058FE090E00E94672F40E033
:1048800050E0BA0183E190E00C94672FCF92DF9261
:10489000EF92FF926C01EE24FF24C114D104E104D5
:1048A000F10421F0C701B60120E101C020E0C72ECC
:1048B000D82EE92EFF24C114D104E104F10419F02B
:1048C000285FC701B6016B017C0154E0F694E794C0
:1048D000D794C7945A95D1F7C114D104E104F104D7
:1048E00019F02C5FC701B6016B017C0142E0F69420
:1048F000E794D794C7944A95D1F7C114D104E10441
:10490000F10419F02E5FC701B601DC01CB01B695A9
:10491000A79597958795892B8A2B8B2B09F02F5F6D
:10492000822FFF90EF90DF90CF9008958091360610
:1049300081111092360608959091340680913506C3
:10494000892B20913306982F922B90939F0580916D
:1049500036068823D9F0892B80939F058091180112
:10496000882331F08091710587FF02C08EE101C07C
:1049700086E0E1EAF5E090E0815028F021912223E1
:10498000D9F39F5FF9CF91110E949624E0917305AE
:10499000F09174053097A9F080911801882359F09F
:1049A0008091710587FF07C080919F058093A005C6
:1049B00085E080939F050280F381E02D8FE995E0EB
:1049C00009940895BF92CF92DF92EF92FF920F93D6
:1049D0001F93CF93DF938C01C0903706D090380699
:1049E000E0903906F0903A0680912E0690912F06BD
:1049F000A0913006B0913106C82AD92AEA2AFB2AAA
:104A0000CFE1D0E0D701C6010C2E04C0B695A79522
:104A1000979587950A94D2F780FF07C0BC2EB801FE
:104A20008C2F0E94E70D019719F4219758F7B12CAC
:104A30008B2DDF91CF911F910F91FF90EF90DF9021
:104A4000CF90BF900895CF93DF93EC010E94E224B2
:104A5000BE010E94E70DDF91CF910895292F220F0B
:104A6000920F990F890F682F669566956695982F16
:104A7000977085E0689FB001112440E050E080E02D
:104A8000FA01E60FF71FE950FA4F208130E0092EB6
:104A900002C0369527950A94E2F721703327042E39
:104AA00001C0220F0A94EAF7822B4F5F5F4F453017
:104AB000510531F70895292F220F920F990F890F71
:104AC000A82FA695A695A695877051E001C0550F11
:104AD0008A95EAF785E0A89FD001112420E030E014
:104AE00070E0F901EA0FFB1FE950FA4F4081CB015A
:104AF000022E02C0969587950A94E2F78170992755
:104B0000819584278523842780832F5F3F4F25301D
:104B1000310539F708950E94BD0F60932E067093FA
:104B20002F0680933006909331060C9480280F93C3
:104B30001F9341E050E060E070E004C0440F551F57
:104B4000661F771F8A95D2F74095509560957095AE
:104B500080912E0690912F06A0913006B0913106DB
:104B60008A019B01082319232A233B23C901B80189
:104B70001F910F910C948B252091320680958223F2
:104B800080933206982F977079F430E0482F082EE2
:104B9000000C550B2417350739F0859585958595BB
:104BA0000E9497251092320608950F931F9341E0BB
:104BB00050E060E070E004C0440F551F661F771F8F
:104BC0008A95D2F780912E0690912F06A0913006FB
:104BD000B09131068A019B01082B192B2A2B3B2B04
:104BE000C901B8011F910F910C948B256093370672
:104BF000709338068093390690933A060C94802877
:104C00008091F6059091C505891719F08F5F87701F
:104C1000FBCF08958091C40582958F7009F054C030
:104C20008091C105882309F44FC08091F605A091B9
:104C3000C5056091BF057091C0054091C2055091B6
:104C4000C305B6E08A1709F43FC090E0411551054D
:104C5000C1F17F3F11F46F3FA1F1B89FF001B99FFF
:104C6000F00D1124EA53FA4F218172132AC02081DA
:104C7000621327C02281211124C02381348124178B
:104C8000350710F421503109241B350B283C310520
:104C9000C0F42091C4052F7020612093C40526E044
:104CA000289FF001299FF00D1124E553FA4F8081D0
:104CB0008F70806180838FEB95E00E9432040C94AA
:104CC000002601968770BECF08950E942325292FC4
:104CD0002F7092959F70E92FF0E03297EE30F1053A
:104CE000B8F4E656FF4F0C943D31803F99F018F42C
:104CF000883E70F40FC0843F59F40CC0883E50F0D9
:104D0000813F31F407C0822F869586958695089558
:104D100080E0089581E00895882341F08095909186
:104D200034068923809334060C949C2408958823A8
:104D300039F090913406892B809334060C949C248E
:104D40000895882341F080959091350689238093BA
:104D500035060C949C240895882339F090913506EB
:104D6000892B809335060C949C240895BF92CF9292
:104D7000DF92EF92FF920F931F93CF93DF93CDB704
:104D8000DEB761970FB6F894DEBF0FBECDBF8C01C2
:104D900085E0F801DE011D9601900D928A95E1F7FC
:104DA000D8013C9111962C9111971296EC90129784
:104DB0001396CD90DC9014975091BF056091C0057B
:104DC0008091C2059091C305009709F44FC16F3FD0
:104DD00019F45F3F09F44AC1B090C105BB2009F442
:104DE000ECC04091C405C816D90628F0F601E81BAE
:104DF000F90BCF0104C0809590958C0D9D1DFF246B
:104E0000F394883C910548F0F12C407F09F09FC055
:104E10008FEB95E00E94320421C1842F807F09F03E
:104E200044C0621312C0531310C0E1100EC04F7083
:104E300040614093C4058FEB95E00E94320480915D
:104E4000C405D80115968C932EC0CD2819F12F3F9B
:104E500011F43F3FF9F0FE2CE1101CC08091F605E3
:104E60004091C50556E0841709F458C090E0589F5A
:104E7000F001599FF00D1124EA53FA4F6181261376
:104E800006C06081361303C06281611103C00196C0
:104E90008770E9CFFE2CEE2009F421C18091C40572
:104EA00081608093C405F12C1AC162130AC05313A8
:104EB00008C0E11006C08091C405D80115968C93F6
:104EC000B0C03D872E878D859E850E9465268823EC
:104ED000D1F1EE20C1F12091C405822F82958F700F
:104EE00090E0029774F08091BF059091C00598877B
:104EF0008F831986DB86CA862C87CE0107960E948F
:104F0000320486E0F801AFEBB5E001900D928A958E
:104F1000E1F70E940A26FF24F394E1C03D872E8723
:104F20008D859E850E942325292F22952F7030E0A4
:104F3000223031050CF0C7C09F7009F0C1C0805EFF
:104F4000883008F4CCC0C8010E943204E4CF621358
:104F500014C0531312C0E11010C08091C405F801B1
:104F60008583C8010E94320486E0EFEBF5E0DF01A3
:104F70001D928A95E9F7FB2CB2C03D872E878D855F
:104F80009E850E9465268823F1F2EE20E1F22091B1
:104F9000C405822F82958F7090E002970CF4B1CFF8
:104FA0008091BF059091C0059A8389831B82DD8221
:104FB000CC822E83CE010196A2CFC816D90638F036
:104FC000C81AD90AB8ECCB16D10450F007C08095A6
:104FD00090958C0D9D1D883C910510F0F12C3EC0E4
:104FE000FE2CEE2009F4AFCF621327C0531325C067
:104FF0002091C40520FD18C0822F82958F70482F04
:1050000050E04115510581F0F80125834F305105DD
:1050100041F08F5F982F9295907F822F8F70892B10
:105020008583C8010E94320486E0F801AFEBB5E049
:1050300001900D928A95E1F752C03D872E878D85AC
:105040009E850E94652681115CCF8091C405816098
:105050008093C405C8010E94320441C0EFEBF5E023
:1050600086E0DF011D928A95E9F739C0EE2009F448
:105070006ACF3D872E878D859E850E946526F82EF6
:10508000882309F460CF86E0F801AFEBB5E001902A
:105090000D928A95E1F78091BF059091C0050E941D
:1050A000232592959F70963041F48091410691E0BE
:1050B000892780934106909340060E940A260FC0DC
:1050C00081113DCF0CC0243031050CF03CCF9F70D6
:1050D00009F435CFF8019581907F09F030CF8F2DFD
:1050E00061960FB6F894DEBF0FBECDBFDF91CF91B2
:1050F0001F910F91FF90EF90DF90CF90BF90089598
:1051000010923406109233060E949C24E4E8F5E0E5
:1051100086E0DF011D928A95E9F710928A051092C8
:105120003F060E941F2380E090E00E94C71880E0A5
:1051300090E00C94B11810923506809118018823E4
:1051400031F08091710587FF02C08EE101C086E0D9
:10515000E1EAF5E0DF011D928A95E9F70C948028D9
:10516000882309F463C0823869F40E94DD1881FF46
:105170005DC069E38FE995E00E9489230E949C2429
:1051800069E30EC0833891F40E94DD1880FF4EC0A1
:1051900063E58FE995E00E9489230E949C2463E5E2
:1051A0008FE995E00E945E230C949C24843869F476
:1051B0000E94DD1882FF3AC067E48FE995E00E9403
:1051C00089230E949C2467E4EBCF9CEF980F913ACF
:1051D00010F4682FE5CF90E2980F983088F487702C
:1051E00021E030E0A90102C0440F551F8A95E2F783
:1051F000CA01809590913506892380933506D4CFD6
:105200009BE5980F933020F480E090E00C94C71851
:1052100098E5980F973120F480E090E00C94B11855
:10522000803F20F00E9465210C941F23089588235D
:1052300009F489C08238B1F40E94DD1881FD83C071
:1052400069E38FE995E00E9489230E949C242FEF57
:1052500041EE54E0215040405040E1F700C00000D2
:1052600069E317C08338D9F40E94DD1880FD6BC054
:1052700063E58FE995E00E9489230E949C248FEFCB
:1052800091EE24E0815090402040E1F700C0000002
:1052900063E58FE995E00E945E230C949C2484389A
:1052A000B1F40E94DD1882FD4EC067E48FE995E0FD
:1052B0000E9489230E949C244FEF51EE84E04150CC
:1052C00050408040E1F700C0000067E4E2CF9CEF6F
:1052D000980F913A30F4682F8FE995E00E94892366
:1052E000DCCF90E2980F983080F4877021E030E0B6
:1052F000A90102C0440F551F8A95E2F7CA01909197
:105300003506892B80933506C8CFEBE5E80FE330EF
:1053100038F4F0E0EE53FD4F808190E00C94C71814
:10532000E8E5E80FE73148F4F0E0EE0FFF1FEB533C
:10533000FD4F808191810C94B118803F20F00E9434
:105340002F220C941F230895CF93C82F0E94172952
:10535000C93349F42FEF87EE93E02150804090400D
:10536000E1F700C000008C2FCF910C94B0289F92E1
:10537000AF92BF92CF92DF92EF92FF920F931F9363
:10538000CF93DF936C0180911901C82FCC0FCC0F04
:10539000C80FD5E0DC0FD13308F0D0E360917C0674
:1053A0006695669580917006909171060E946E1ABE
:1053B000182F80E4810F0E94EC1990E8F92EF80E66
:1053C000812F0E94EC1920E8922E980ECD1700F53F
:1053D000AC2EB12CF501E955FC4F808190911A015A
:1053E0009823A1F06091790670917A0680917B06EE
:1053F000E12E0C2F292D4F2DF60109950E94791AC7
:10540000462F282F672FC5010E942E19CF5FDECFB0
:1054100081E0D03308F080E0DF91CF911F910F91B0
:10542000FF90EF90DF90CF90BF90AF909F90089546
:105430006F927F928F929F92AF92BF92CF92DF92A4
:10544000EF920F931F93CF93DF934C01809119013B
:10545000C82FCC0FCC0FC80FD5E0DC0FD13308F02C
:10546000D0E360917C0666958091700690917106FC
:105470000E946E1A182FCD1708F044C06C2E712CA4
:10548000F301E955FC4F908180911A018923C1F104
:10549000F301EE0FFF1FE95BFC4FC080D12C80E7CA
:1054A000C81AD108F301EE0FFF1FE85BFC4FA08084
:1054B000B12CE0E2AE1AB108CC9C9001CD9C300D2D
:1054C000300D1124AA9CC001AB9C900D900D1124AD
:1054D000820F931F0E940D1A082F60917906709118
:1054E0007A0680917B06E12E9501A601F4010995CB
:1054F0000E94791A462F282F672FC3010E942E1968
:10550000CF5FB9CF81E0D03308F080E0DF91CF9159
:105510001F910F91EF90DF90CF90BF90AF909F9031
:105520008F907F906F900895CF92DF92EF92FF92CD
:105530000F931F93CF93DF937C0180911901C82FA4
:10554000CC0FCC0FC80FD5E0DC0FD13308F0D0E37F
:1055500060917C06669580917006909171060E941C
:105560006E1A182FCD1778F5CC2ED12CF601E955EF
:10557000FC4F908180911A01892319F1F601EE0FF9
:10558000FF1FE85BFC4F208130E020523109F6011B
:10559000EE0FFF1FE95BFC4F408150E0405751097F
:1055A0006091790670917A0680917B06012FF70150
:1055B00009950E94791A462F282F672FC6010E944D
:1055C0002E19CF5FCFCF81E0D03308F080E0DF919C
:1055D000CF911F910F91FF90EF90DF90CF900895A2
:1055E000DF92EF92FF920F931F93CF93DF937C0193
:1055F00090911901C92FCC0FCC0FC90FD5E0DC0F4A
:10560000D13308F0D0E360917C0666956695809171
:105610007006909171060E946E1AD82ECD17F0F484
:105620000C2F10E0F801E955FC4F808190911A0190
:10563000982391F06091790670917A0680917B06AB
:105640002D2D4C2FF70109950E94791A462F282FEE
:10565000672FC8010E942E19CF5FE0CF81E0D033C1
:1056600008F080E0DF91CF911F910F91FF90EF90B4
:10567000DF900895CF92DF92FF920F931F93CF9305
:10568000DF931F92CDB7DEB7F82E8B0199830E946E
:10569000261C998181111CC0CF2CD92E0115110512
:1056A000B1F08091E80085FD0AC08091E8008E7716
:1056B0008093E8000E94261C882381F309C0F6012C
:1056C00081916F018093F10001501109E7CF80E0D3
:1056D0000F90DF91CF911F910F91FF90DF90CF90AE
:1056E00008951F93CF93DF93CDB7DEB7AA970FB678
:1056F000F894DEBF0FBECDBFE8E6F6E088E08E0F7F
:105700009091F10091938E13FBCF809169068330C5
:1057100009F460C030F4813071F0823009F49AC02D
:10572000B1C08A3009F486C08B3009F46BC089306F
:1057300009F0A8C020C080916806813A09F0A2C093
:105740008091E800877F8093E80080916C069091BB
:105750006D06892B21F460E284E496E003C060E0EA
:1057600080E090E070E00E94E81D8091E8008B7777
:105770008093E80087C080916806813209F082C07A
:1057800080916C0690916D06029708F07BC0809125
:10579000E800877F8093E8008091E80082FD05C0E3
:1057A000809166068111F8CF6DC02091F300809141
:1057B000F20090E0922B029729F48091F1008B7F08
:1057C000813021F48091F100809343068091E800BC
:1057D0008B7754C080916806813A09F053C080915C
:1057E0006C0690916D06892B09F04CC08091E80001
:1057F000877F8093E8008091E80080FFFCCF809154
:10580000180137C0809168068132E1F580916C06FD
:1058100090916D06892BB1F58091E800877F809388
:10582000E8000E94581C80916A06809318010E942B
:105830009B2828C080916806813221F58091E8007C
:10584000877F8093E8000E94581C80916B068093AC
:10585000420618C080916806813AA1F48091E80060
:10586000877F8093E8008091E80080FFFCCF8091E3
:1058700042068093F1008091E8008E778093E800E3
:105880000E94581C8091E80083FFD6C18091680671
:1058900090916906492F50E04A30510508F0CCC17B
:1058A000FA01E855FF4F0C943D31803821F08238E1
:1058B00009F0C2C108C080916406909165069923E1
:1058C00089F082600FC080916C068F70873008F07D
:1058D000B3C18093E9008091EB0085FB882780F9B4
:1058E0001092E9009091E800977F9093E8008093F0
:1058F000F1001092F10074C1282F2D7F09F09CC196
:10590000882319F0823061F097C180916A06813056
:1059100009F092C1933009F080E0809365062EC0B3
:1059200080916A0681112AC080916C068F702FEFDA
:10593000280F263008F080C18093E9002091EB0009
:1059400020FF1CC0933021F48091EB00806214C0D2
:105950009091EB0090619093EB0021E030E0A90181
:1059600002C0440F551F8A95E2F74093EA00109257
:10597000EA008091EB0088608093EB001092E900D0
:105980008091E800877F2FC1811156C110916A066E
:105990001F778091E3008078812B8093E3008091D2
:1059A000E800877F8093E8000E94581C8091E800FF
:1059B00080FFFCCF8091E30080688093E3001111A9
:1059C00002C082E001C083E08093660635C1805842
:1059D000823008F031C180916A0690916B068C3D4F
:1059E00053E0950779F583E08A838AE289834FB78C
:1059F000F894DE01139620E03EE051E2E32FF0E060
:105A000050935700E49120FF03C0E295EF703F5F91
:105A1000EF708E2F90E0EA3010F0C79601C0C0966C
:105A20008D939D932F5F243149F74FBF8091E800FC
:105A3000877F8093E8006AE270E0CE0101960E94C1
:105A4000E81DBDC040916C0650916D06292F33278B
:105A500023303105B9F06CF42130310509F4FBC075
:105A60002230310509F0E8C08BE390E0ECEAF7E082
:105A700054C02132310509F433C02232310509F412
:105A80003CC0DAC0992781309105D1F05CF4892BB4
:105A900009F0D2C0E1E2F8E0E4918E2F90E0E1E27B
:105AA000F8E038C08230910599F0039709F0C4C03E
:105AB000E9EFF7E0E4918E2F90E0E9EFF7E02AC0FC
:105AC000E7E1F8E0E4918E2F90E0E7E1F8E022C012
:105AD000EFEFF7E0E4918E2F90E0EFEFF7E01AC0E0
