:100000000C94B7030C94D4030C94D4030C94D40331
:100010000C94D4030C94D4030C94D4030C94D40304
:100020000C94D4030C94D4030C94B8190C94741944
:100030000C94A62C0C94D4030C94D4030C94D403E9
:100040000C94D4030C94D4030C94D4030C94D403D4
:100050000C94D4030C94C7150C94D4030C94D403BF
:100060000C94D4030C94D4030C94D4030C94D403B4
:100070000C94D4030C94D4030C94D4030C94D403A4
:100080000C94D4030C94D4030C94D4030C94D40394
:100090000C94D4030C94D4030C94D4030C94D40384
:1000A0000C94D4030C94D4030C94D4038C87FA8C52
:1000B00087FA8C87FA8C87FA8C87FA8C87FA8C8778
:1000C000FA8C87FA8C87FA8C87FA8C87FA8C87FAF5
:1000D0008C87FA8C87FA8C87FA8C87FA8C87FA8C53
:1000E00087FA8C87FA8C87FA8C87FA8C87FA8C8748
:1000F000FA8C87FA8C87FA8C87FA8C87FA8C87FAC5
:100100008C87FA8C87FA8C87FA8C87FA8C87FA8C22
:1001100087FA8C87FA8C87FA8C87FA8C87FA8C8717
:10012000FA8C87FA8C87FA8C87FA8C87FA8C87FA94
:100130008C87FA8C87FA8C87FA8C87FACA84F8CA7B
:1001400084F8CA84F8CA84F8CA84F8CA84F8CA84CD
:10015000F8CA84F8CA84F8CA84F8CA84F8CA84F849
:10016000CA84F8CA84F8CA84F8CA84F8CA84F8CA67
:1001700084F8CA84F8CA84F8CA84F8CA84F8CA849D
:10018000F8CA84F8CA84F8CA84F8CA84F8CA84F819
:10019000CA84F8CA84F8CA84F8CA84F8CA84F8CA37
:1001A00084F8CA84F8CA84F8CA84F8CA84F8CA846D
:1001B000F8CA84F8CA84F8CA84F8CA84F8CA84F8E9
:1001C000CA84F8CA84F8CA84F8CA84F85584FF55EA
:1001D00084FF5584FF5584FF5584FF5584FF558463
:1001E000FF5584FF5584FF5584FF5584FF5584FFD8
:1001F0005584FF5584FF5584FF5584FF5584FF5572
:1002000084FF5584FF5584FF5584FF5584FF558432
:10021000FF5584FF5584FF5584FF5584FF5584FFA7
:100220005584FF5584FF5584FF5584FF5584FF5541
:1002300084FF5584FF5584FF5584FF5584FF558402
:10024000FF5584FF5584FF5584FF5584FF5584FF77
:100250005584FF5584FF5584FF5584FF000101013B
:100260000101010101010202020202020202020373
:100270000303030303030304040404040404050543
:100280000505050606060606070707070708080806
:1002900008090909090A0A0A0B0B0B0C0C0C0D0DB5
:1002A0000D0E0E0E0F0F0F1010111111121213134D
:1002B0001414151516161717181819191A1A1B1BC6
:1002C0001C1D1D1E1E1F2020212222232424252622
:1002D00026272829292A2B2C2D2D2E2F303132325A
:1002E000333435363738393A3B3C3D3E3F40414266
:1002F000434445464748494A4C4D4E4F505153544C
:10030000555658595A5B5D5E5F61626465666869FF
:100310006B6C6D6F7072737577787A7B7D7E80827F
:10032000838587888A8C8E8F91939596989A9C9EC8
:10033000A0A2A3A5A7A9ABADAFB1B3B5B7BABCBED8
:10034000C0C2C4C6C9CBCDCFD1D4D6D8DBDDDFE2A5
:10035000E4E7E9EBEEF0F3F5F8FAFDFF2E0029648F
:100360002B61D75CE30000001E00140004001D0098
:100370002F004D001F001A0016001B0030002A003D
:10038000200008000700060035002C0021001500A1
:100390000900190034004A00220017000A00050075
:1003A00000004C002D0002510000015100004603E6
:1003B00031000251000001510000A90023001C007F
:1003C0000B0011000000AE00240018000D0010000A
:1003D0005000AA0025000C000E0036005100280035
:1003E000260012000F00370052002B0027001300D8
:1003F000330038004F00A800350429742B71D85CF5
:1004000000070000010001000100010001000000E0
:1004100001000100010001000100010001000100D4
:10042000010001000100010001002F0226022F003F
:10043000010001000100300227023000010001002C
:1004400001000100010001000000010001000100A5
:100450000000010000000100010001000000010097
:10046000000001000100FB005000F200000001004C
:100470000100FA005100F100AC0001000100F90098
:100480005200F000AE00F4000100FC004F00F30049
:10049000AD00F40001000100F6000100AB00F60021
:1004A0000100010001000100010000000100010045
:1004B00001000100010000003A00010001000100FC
:1004C000010001003B0001000100010001000100EA
:1004D0003C00010001000100010001003D0001009D
:1004E00001000100010001003E00010001000100C7
:1004F00000000100010001000000010000000100F7
:100500000100010000000100000001003F000100A7
:1005100001000100000001004000240021005900FA
:10052000010001004100250022001F0027000100FA
:1005300042002600230020000100010043000100CA
:10054000010001000100010044004500010001001C
:10055000005C00000000000000000000000000003F
:1005600000000000000000007E0F00D4FFFFFFC766
:100570000000007800000000000000002A2B280086
:100580000000000000000000000000000000002942
:10059000000000002C1E3420212224342627252E82
:1005A000362D3738271E1F202122232425263333BA
:1005B000362E37381F0405060708090A0B0C0D0EE6
:1005C0000F101112131415161718191A1B1C1D2FB2
:1005D0003130232D350405060708090A0B0C0D0ED2
:1005E0000F101112131415161718191A1B1C1D2F92
:1005F0003130354C05010902A10185020901A10034
:1006000005091901290515002501950575018102C6
:100610009501750381010501093009311581257F97
:1006200095027508810609381581257F95017508A1
:100630008106050C0A38021581257F950175088110
:1006400006C0C005010980A10185031A81002A8323
:1006500000160100260300950175108100C0050CED
:100660000901A10185041A01002A9C021601002635
:100670009C02950175108100C005010906A1018544
:1006800005050719E029E715002501950875018181
:10069000020507190029EF1500250195F075018164
:1006A0000205081901290595057501910295017545
:1006B000039101C005010906A101050719E029E719
:1006C00015002501950875018102950175088101C4
:1006D0000507190029FF150026FF009506750881FA
:1006E0000005081901290595057501910295017507
:1006F000039101C009023B00020100A0FA090400B5
:10070000000103010100092111010001224000073D
:1007100005810308000A0904010001030000000923
:10072000211101000122C0000705820320000A12E6
:1007300001100100000008EDFE0713010001020393
:100740000104033000000016034500720067006FCB
:100750000064006F007800200045005A0000000887
:10076000035A00530041000000040309040011244F
:100770001FBECFEFDAE0DEBFCDBF13E0A0E0B1E0F7
:10078000EEE4F8E602C005900D92AA3AB107D9F757
:1007900026E0AAEAB3E001C01D92A335B207E1F753
:1007A0000E94642A0C94D0330C940000E8EDF0E031
:1007B00080818E7F80831092E2001092DA00109286
:1007C000E100A0EEB0E08C9181608C9380818F7706
:1007D000808319BCA7EDB0E08C918E7F8C938081D3
:1007E0008F7E80831092120608952091E40030914C
:1007F000E50095E6A9012091EC00822F817020FF91
:1008000006C08091E80080FF06C080E00895209136
:10081000E80022FD1AC080913806882389F08530CF
:1008200089F08091EB0085FD0FC02091E4003091AC
:10083000E50042175307F9F29150E1F684E008957C
:1008400082E0089583E0089581E00895EF92FF9299
:100850000F931F93CF937C018B010E94F503C82F48
:10086000811117C08091E80085FD0BC08091E800E0
:100870008E778093E8000E94F503882399F3C82FB0
:1008800008C0F70181917F018093F10001501109A7
:1008900049F78C2FCF911F910F91FF90EF90089502
:1008A00080913A0687FF13C08091E80082FF06C05E
:1008B0008091E8008B778093E80004C0809138062F
:1008C0008111F2CF0895809138068823D9F3809161
:1008D000E80080FFF8CF8091E8008E77ECCF982F6A
:1008E0009093E900242F762F50E0891731F0709112
:1008F000EC002091ED005091F00021FD07C09F5FBA
:10090000973071F78093E90081E008953091EB0012
:100910003E7F3093EB003091ED003D7F3093ED0052
:100920003091EB0031603093EB007093EC0020933A
:10093000ED005093F0002091EE0027FDE0CF80E025
:100940000895CF92DF92EF92FF920F931F93CF9370
:10095000DF93C8EDD0E088818F7E8883E7EDF0E0FB
:1009600080818160808384E082BF81E08093120671
:1009700088818E7F888302EE10E0F8011082109249
:10098000DA0081EEC82ED12CF601108288818F7793
:10099000888388818068888388818F7D888319BC5B
:1009A00010923806109239061092370610923606C9
:1009B00090EEE92EF12CF70180818B7F8083888176
:1009C0008160888342E060E080E00E946F04F6016D
:1009D00080818E7F8083F801808181608083808127
:1009E00088608083F70180818E7F80838881806129
:1009F0008883DF91CF911F910F91FF90EF90DF904F
:100A0000CF900895FC018091400690914106861791
:100A10009707A0F06115710529F49091E8009E7781
:100A20009093E80090E06115710551F4911108C0B0
:100A30008091E80082FF34C080E00895BC01F2CFCD
:100A4000809138068823C1F18530C1F18091E8009A
:100A500083FD30C08091E80082FDEACF8091E800FC
:100A600080FFE1CF8091F3002091F200382F6115D3
:100A7000710519F02830310558F091E02830310522
:100A800009F090E02091E8002E772093E800CBCF8A
:100A900081918093F100615071092F5F3F4FE7CF43
:100AA00080913806882341F0853041F08091E8003C
:100AB00083FFBECF81E0089582E0089583E008952A
:100AC00080913806843011F482E0089581E0089521
:100AD0008091150608959091FB05803F41F4809127
:100AE000FC0587FD1092FC05992371F00895813F64
:100AF00029F48091FC051816ACF3F6CF823F81F4FF
:100B000097FFF2CF1092FB058091FC059091FD05B7
:100B1000892B9091FE05892B49F71092FF050895C6
:100B2000833F19F4191674F3DFCF893F39F48091AC
:100B3000FD051816CCF61092FD05D6CF8A3F29F494
:100B40008091FD0587FFD0CFF6CF8B3F39F48091A0
:100B5000FE0587FFC9CF1092FE05C6CF8C3F29F452
:100B60008091FE051816BCF3BFCF843F31F480910D
:100B7000FA058E7F8093FA05B7CF853F21F48091E7
:100B8000FA058D7FF7CF863F21F48091FA058B7FA0
:100B9000F1CF873F21F48091FA05877FEBCF883F23
:100BA00021F48091FA058F7EE5CF8D3F31F480915D
:100BB000CD058E7F8093CD0597CF8E3F21F4809118
:100BC000CD058D7FF7CF8F3F09F08ECF8091CD057A
:100BD0008B7FF0CF8091CD0580FD16C081FD16C0C2
:100BE00082FD16C08091FF058823A1F0883280F431
:100BF00028E0829FC001112468E270E00E94C12DAC
:100C0000862F672B39F0089582E0089584E00895D7
:100C100088E0089581E008958091CD0580FD16C09B
:100C200081FD16C082FD18C08091FF05882391F0D8
:100C30008C3390F423E2829FC00111246CE370E0B6
:100C40000E94C12D862F672B49F0089588E00895F2
:100C500081E1089585E0089583E2089581E0089593
:100C6000803F31F40E940C0681958093FC05089525
:100C7000813F19F40E940C06F8CF823F31F40E94A4
:100C80000C0681958093FB050895833F19F40E941B
:100C90000C06F8CF893F29F40E94EA058093FD05F0
:100CA00008958A3F21F40E94EA058195F7CF8B3F92
:100CB00031F40E94EA0581958093FE0508958C3FEA
:100CC00019F40E94EA05F8CF843F31F48091FA05C7
:100CD00081608093FA050895853F21F48091FA059B
:100CE0008260F7CF863F21F48091FA058460F1CFCE
:100CF000873F21F48091FA058860EBCF883F21F48B
:100D00008091FA058061E5CF8D3F31F48091CD056A
:100D100081608093CD0508958E3F21F48091CD05AB
:100D20008260F7CF8F3FB9F78091CD058460F1CF16
:100D3000CF92DF92EF92FF920F931F932FB7F89409
:100D40004091C9055091CA056091CB057091CC05C1
:100D50002FBF6A017B01EE24FF248C0130E020E0EC
:100D6000C016D106E206F30650F0481B590BCA0123
:100D70001F910F91FF90EF90DF90CF900895415019
:100D80005109F3CFCF92DF92EF92FF926C01EE24E4
:100D9000FF2420E0C114D104E104F10419F0C701DB
:100DA000B60120E1C72ED82EE92EFF24C114D104AC
:100DB000E104F10419F0285FC701B6016B017C0161
:100DC00054E0F694E794D794C7945A95D1F7C11498
:100DD000D104E104F10419F02C5FC701B6016B01E5
:100DE0007C0142E0F694E794D794C7944A95D1F7F2
:100DF000C114D104E104F10419F02E5FC701B6015A
:100E00009695879577956795672B682B692B09F0E1
:100E10002F5F822FFF90EF90DF90CF900895809109
:100E2000C40581111092C40508958091C305909165
:100E3000C205892B9091C105892B8093AA039091BB
:100E4000C4059923A1F0892B8093AA0380911801EE
:100E5000882341F18091E60587FF24C08EE1ECEA0A
:100E6000F3E090E0815000F591110E940F07E091AE
:100E7000E805F091E9053097E1F0809118018823A9
:100E800059F08091E60587FF07C08091AA038093FF
:100E9000AB0385E08093AA030280F381E02D8AEA08
:100EA00093E0099486E0DBCF21912223D9F29F5F62
:100EB000D9CF0895909118019923D1F09091E6052A
:100EC00097FF16C0E82FE695E695E695EE31E0F43B
:100ED000F0E0E655FC4F282F277081E090E001C03C
:100EE000880F2A95EAF78095928189238283089555
:100EF000ECEAF3E09191891303C0DF0111971C9292
:100F000093E0E23BF907B1F7089590911801992316
:100F1000C1F09091E60597FF14C0E82FE695E6959D
:100F2000E695EE31F8F4F0E0E655FC4F877021E0ED
:100F300030E001C0220F8A95EAF78281822B8283FA
:100F40000895ACEAB3E0EFEF90E02D91821751F0F5
:100F5000EF3F19F4211101C0E92F9F5F9630A9F7E7
:100F6000EF3F09F408950E2E000CFF0BE655FC4FE1
:100F7000E6CFE92FEE0FE90FEE0F8E0F982F977047
:100F800086958695869525E0829FF0011124EB5782
:100F9000FA4F50E040E080E0219130E0092E02C09D
:100FA000369527950A94E2F721703327042E01C065
:100FB000220F0A94EAF7822B4F5F5F4F45305105AD
:100FC00059F70895E92FEE0FE90FEE0F8E0F982FC6
:100FD000977041E001C0440F9A95EAF7869586958F
:100FE000869595E0899FF0011124EB57FA4F30E088
:100FF00020E070E05191DF011197CB01022E02C079
:10100000969587950A94E2F78170819585278423C8
:1010100085278C932F5F3F4F2530310559F7089571
:101020008091840590915305981301C008958F5FB6
:101030008770FACF882341F080959091C20589236B
:101040008093C2050C9415070895882339F0909178
:10105000C205982B9093C2050C9415070895882318
:1010600041F080959091C30589238093C3050C942A
:1010700015070895882339F09091C305982B909314
:10108000C3050C941507089520913205309133055E
:101090002817390771F09093330580933205E0915A
:1010A000E805F091E905309721F00084F185E02D05
:1010B000099408952091300530913105281739079A
:1010C00071F09093310580933005E091E805F0913F
:1010D000E905309721F00680F781E02D0994089505
:1010E000E091E805F091E905309721F00190F08159
:1010F000E02D099480E00895FA01811101C0FB01FF
:1011000009948033910538F5880F991F880F991F2E
:10111000FC01E45DFE4F5281338180818370E18167
:10112000A82FB0E070E9879FC001112488519C4F1F
:10113000E80FF92FF11DB4976083FC01E50FF11D55
:10114000B4974083830F911DFC01B4972083AA516B
:10115000BC4F81E08C930895FF920F931F93CF9320
:10116000DF93182F062FF42ED0E0C0E02F2D402F54
:10117000612FCE010E9481082196C033D105B1F7BD
:10118000DF91CF911F910F91FF90089580914A06B2
:10119000837011F410920B0180914A068C7F81605C
:1011A00080934A0608950C94AC080C9481080F9320
:1011B0001F9310E0F801EE0FFF1FE75EFC4F9081D8
:1011C000905797FD9195000F111FF801E65EFC4FB7
:1011D00000810052110B2003F001219FF00D11241A
:1011E00008E310E0091B110997FD139540039001D6
:1011F000419F300D1124E20FF31F9F01220F331F77
:101200002E0F3F1F37FF02C021583F4F220F232FC1
:10121000221F330B620F1F910F9108950F931F939D
:10122000522F10E0F801EE0FFF1FE65EFC4FA08189
:10123000A052BB0B9D015203F001539FF00D1124EE
:10124000000F111FD801A75EBC4F0C910057110B66
:1012500040039001419F300D11242E0F3F1F37FF97
:1012600002C0215C3F4F96E0359527959A95E1F7AE
:10127000620F1F910F9108950F931F93522F10E04B
:10128000F801EE0FFF1FE65EFC4FA081A052BB0BE2
:101290009D015203F001539FF00D1124000F111F07
:1012A000D801A75EBC4F0C910057110B4003900171
:1012B000419F300D11242E0F3F1F37FF02C02158D0
:1012C0003F4F220F232F221F330B620F1F910F91CD
:1012D0000895EF920F93972F23E0029FB0011124FE
:1012E000759567956E0D792F0F91EF900895322FB8
:1012F00050E0FA01EE0FFF1FE65EFC4F9081905226
:1013000097FD9195440F551FFA01E75EFC4F208130
:10131000231B330B290F311D97FD3A95620F08955A
:10132000E42FF0E0EE0FFF1FE65EFC4F6081621BD2
:101330000895E42FF0E0EE0FFF1FE75EFC4F6081A1
:10134000621B0895622F0895E42FF0E0EE0FFF1F57
:10135000E75EFC4F408134EE439F412D1124E82F7E
:10136000F0E050E0445E5F4FDA01A21BB1099D013D
:10137000B7FF03C031952195310993E0220F331F48
:101380009A95E1F7AF01421B530B9A0157FD20E0FC
:10139000582F259F212D1124822F0895E42FF0E04E
:1013A000EE0FFF1FE75EFC4F408134EE439F412D5F
:1013B0001124E72FF0E050E0445E5F4FDA01A21BFA
:1013C000B1099D01B7FF03C031952195310993E023
:1013D000220F331F9A95E1F7AF01421B530B9A017D
:1013E00057FD20E0279F212D1124722F0895FC0125
:1013F0009B01009729F480E077FF2BC080E80895D7
:10140000AC0197FF04C044275527481B590BB9016D
:10141000640F751F37FD10C0241B350BC901A5E0F3
:10142000880F991FAA95E1F70E94C12D80E2861BC3
:10143000F7FF0FC081950895CB0165E0880F991FD4
:101440006A95E1F7BA01621B730B0E94C12D80E619
:10145000EECF0895EF920F93CF93DF93D72FC82F3E
:10146000C9010E19BA010E94F709602F681B7D2F70
:101470008C2FDF91CF910F91EF9008950F93CF9321
:10148000DF93D72FC82FC901BA010E94F709682F2F
:10149000600F7D2F8C2FDF91CF910F910895EF92E8
:1014A0000F931F93CF93DF93D62FC72F182FC90108
:1014B0000E19010FBA010E94F709081B202F219F66
:1014C000212D1124822F6D2F7C2FDF91CF911F9121
:1014D0000F91EF900895EF920F931F93CF93DF93A7
:1014E000D62F172FC82FC9010E19070FBA010E9456
:1014F000F709702F781B719F712D11246D2F8C2F80
:10150000DF91CF911F910F91EF9008950F931F934B
:10151000CF93DF93D62FC72F182FC901212F201B60
:10152000022FBA010E94F709982F990F990F891B72
:10153000800F282F219F212D1124822F6D2F7C2F8A
:10154000DF91CF911F910F9108950F931F93CF9328
:10155000DF93D62F172FC82FC901272F201B022F4B
:10156000BA010E94F709982F990F990F782F791BCC
:10157000700F719F712D11246D2F8C2FDF91CF91E2
:101580001F910F910895E82F86FDE0952E2F2F7063
:1015900086FD2F5FE695E695E695E670F0E0EC5D5A
:1015A000FE4F9181929F902D212D112492959F7035
:1015B0002295207F922B2081920F87FD919580E8C4
:1015C000890F0895AC018230910508F408959FEFCA
:1015D000413E8EE1580740F49A0195E036952795F3
:1015E0009A95E1F798E0920F61E0E62FE90FFF2767
:1015F000FF1F9F0135952795822F229FF001239F82
:10160000F00DF00D11244E175F0738F49FEF920F85
:10161000961758F78FEF860F08952F3FE9F361E093
:10162000620FF6CF0F93CF93DF93D72FC82F47FDCD
:10163000419588E390E0841B910947FD9395889F2D
:10164000B001899F700D700D1124229FC001239F4E
:10165000900D900D1124860F971F0E94E20A982F7B
:10166000990F890F682F600F7D2F8C2FDF91CF91FD
:101670000F91089530E020E0869F212D969F200D48
:10168000311D1124C9010895AF92BF92CF92DF920C
:10169000FF920F931F93CF93DF93362F472FE82F9F
:1016A000F0E0E45AFD4F71110DC06491762F862F42
:1016B000DF91CF911F910F91FF90DF90CF90BF905E
:1016C000AF900895C72FD0E02491F22E022F10E0A2
:1016D00056E0659FC0011124EFEFF0E0BF010E94CA
:1016E000AD2D832F90E0880F991F35E5369FD001EF
:1016F000379FB00D11248A1B9B0B982F990F980FC1
:101700006F01CC1ADD0AC09ED001C19EB00DD09EE3
:10171000B00D11248B2F949FA0011124452F552724
:101720006F01C41AD50AC09EA001C19E500DD09E63
:10173000500D11245F01A91AB108AC9E6001AD9E45
:10174000D00CBC9ED00C1124CD2CDD24EC19FD094D
:10175000E09FE001E19FD00DF09FD00D1124ED2F0F
:1017600062307105A1F048F46115710569F06130CE
:10177000710589F0EB2F852F07C06430710571F07A
:1017800088F066307105B1F76E2F722F91CFE22F7E
:101790002B2F8D2FF9CFE22F252FF6CFEB2F822F76
:1017A0002D2FF2CF2B2F8F2DE52FEECF9F92AF92C3
:1017B000BF92CF92DF92EF92FF920F931F93CF933E
:1017C000DF936C0180911901C82FCC0FCC0FC80F8B
:1017D00015E01C0FB12E113310F030E3B32E6091E1
:1017E0004E066695669580914206909143060E944A
:1017F0003A0BF82E80E48F0D0E94C30A90E8A92EC0
:10180000A80E8F2D0E94C30A20E8922E980ED0E0D9
:10181000CB1580F081E0103308F080E0DF91CF91AC
:101820001F910F91FF90EF90DF90CF90BF90AF90FE
:101830009F900895FE01E758FC4F808190911A0116
:101840008923A1F060914B0670914C0680914D0662
:10185000EF2C0C2F292D4A2DF60109950E94440BDF
:10186000462F282F672FCE010E94D5082196D0CF72
:101870007F928F929F92AF92BF92CF92DF92EF9220
:10188000FF920F931F93CF93DF935C018091190117
:10189000C82FCC0FCC0FC80F15E01C0FF12E113341
:1018A00010F030E3F32E60914E066695809142066B
:1018B000909143060E943A0B782ED0E0CF1590F01D
:1018C00081E0103308F080E0DF91CF911F910F91FC
:1018D000FF90EF90DF90CF90BF90AF909F908F9050
:1018E0007F900895FE01E758FC4F808190911A0186
:1018F0008923C9F1CE01880F991F8B539D4FFC019D
:10190000EC5AFF4F2081422F4057550B6A018B5AEA
:101910009F4FFC018081282F2052330B4901449FA7
:101920009001459F300D300D1124889CC001899C89
:10193000900D900D1124820F931F0E94E20A082F30
:1019400060914B0670914C0680914D06E72C9401F6
:10195000A601F50109950E94440B462F282F672FF9
:10196000CE010E94D5082196A9CFCF92DF92EF92A7
:10197000FF920F931F93CF93DF937C018091190106
:10198000C82FCC0FCC0FC80F15E01C0FD12E113370
:1019900010F030E3D32E60914E066695809142069A
:1019A000909143060E943A0BC82ED0E0CD1568F006
:1019B00081E0103308F080E0DF91CF911F910F910B
:1019C000FF90EF90DF90CF900895FE01E758FC4F15
:1019D000808190911A01892311F1CE01880F991FFE
:1019E0008B539D4FFC01EB5AFF4F20812052330B4C
:1019F0008C5A9F4FFC0140814057550B60914B061C
:101A000070914C0680914D060C2DF70109950E94AE
:101A1000440B462F282F672FCE010E94D508219610
:101A2000C5CFDF92EF92FF920F931F93CF93DF9377
:101A30007C0180911901C82FCC0FCC0FC80F15E085
:101A40001C0F012F113308F000E360914E066695DC
:101A5000669580914206909143060E943A0BD82EDB
:101A6000D0E0C01760F081E0103308F080E0DF9133
:101A7000CF911F910F91FF90EF90DF900895FE019D
:101A8000E758FC4F808190911A01892391F0609171
:101A90004B0670914C0680914D062D2D4C2FF70171
:101AA00009950E94440B462F282F672FCE010E94D4
:101AB000D5082196D6CF9091E60592FF06C0282F33
:101AC00028712830F9F4877F846093FF06C0282F9F
:101AD00028712831F1F4877E84612091E70520FF89
:101AE00006C0382F38713830D9F4877F816021FFE4
:101AF00006C0282F28712831D1F4877E816194FD9A
:101B0000877E0895282F24712430F9F68B7F886012
:101B1000DCCF282F2471243101F78B7E8861DDCF43
:101B2000382F3171313019F78E7F8860E0CF282F40
:101B30002171213121F78E7E8861E1CFCF93DF9330
:101B4000972F70E026E0929F600D711D1124FB011C
:101B500034E5839FE00DF11D1124EE0FFF1FE45AC1
:101B6000FC4FC591D491CE01C238D105B9F1E8F549
:101B7000C133D10509F499C050F5C932D10509F432
:101B80008DC0CA32D10509F497C0C11542E5D4070A
:101B900008F0C4C0C11521E5D20708F038C1C83E1D
:101BA000D10508F09DC0C03ED10568F5C83AD10501
:101BB00008F089C0C53AD10508F005C1C130D1058A
:101BC00011F1209709F443C02497E8F440C0C533CD
:101BD000D10509F45CC0C933D105B9F62091E605F9
:101BE000237089F080EE90E00EC0C33ED10591F1E4
:101BF00068F4C03ED105F9F0C23ED10531F620911E
:101C0000E60522FD20C0DF91CF910895C63ED105A3
:101C100061F1C73ED10581F1C43ED10509F0B5CFD0
:101C20002091E70521FFEFCF8091E60584FD0FC0ED
:101C300087EE90E0E8CF2091E60520FD19C13091B4
:101C4000E70530FFE0CF83EE90E024FFDCCF90E0AB
:101C500080E0D9CF2091E60522FD0DC13091E70546
:101C600030FDC0CF24FFCFCFF2CF2091E60523FF78
:101C7000CACF24FDECCFDCCF2091E60523FDFEC0CA
:101C80003091E70531FFEECF84EE90E0BCCF20919C
:101C9000E60525FFB8CF89E290E0B5CF2091E605B3
:101CA00025FFB1CF85E390E0AECF2091E60526FF7A
:101CB000AACF8AE290E0A7CF2091E60526FFA3CF26
:101CC00081E390E0A0CFCF3BD10508F6C85AD0E021
:101CD000CC0FDD1FC956DD4F88819981946493CF65
:101CE000C11530E2D30760F4C11541E0D40708F014
:101CF0008ACFCE019065C03FD10508F084CFA7CF31
:101D0000C11580E4D80708F4A2CFC11590E5D90722
:101D100008F061C0CE019F70906A75CFC11526E5AD
:101D2000D20718F5C11535E5D30708F086C0C115EF
:101D300044E5D40708F07CC09C2F96959695AE019B
:101D400043705527C115D34508F466C021E030E043
:101D500002C0220F331F4A95E2F740E2949FC00170
:101D60001124822B932B9A684ECFC1159AE5D9077F
:101D700078F4C11529E5D20708F069C0C11538E526
:101D8000D30708F464CF9C2F8827806F906A3BCFDD
:101D9000C1154BE5D40708F45ACFC1158CE5D80717
:101DA00008F462C0CE0190568115904208F04FCFE2
:101DB0008D2F8F710E945B0D90E0982F88278827C8
:101DC0009F718C2B42C0C55AD0E0CC56DD4F888124
:101DD00090E0906418CF9E01E4E036952795EA954F
:101DE000E1F723708C2F86958695837030E2839F70
:101DF000C0011124922BC37021E030E002C0220FF9
:101E0000331FCA95E2F7822B932B9C68FCCE9C2F44
:101E10008827816F906AF7CE21E030E002C0220F60
:101E2000331F4A95E2F740E2949FC0011124EBCFA3
:101E30009C2F8827846F906AE6CE8C2F0E945B0DC2
:101E400090E0982F882788279F719062DCCE8C2F96
:101E50008F700E945B0D34E0D695C7953A95E1F7F7
:101E6000CF709C2F9069CFCECE0199279066CBCEB4
:101E700089E390E0C8CE82EE90E0C5CE86EE90E099
:101E8000C2CEBF92CF92DF92EF92FF920F931F9339
:101E9000CF93DF938C01C090BC05D090BD05E0903E
:101EA000BE05F090BF058091C5059091C605A09133
:101EB000C705B091C805C82AD92AEA2AFB2ACFE16A
:101EC000D0E0BC2ED701C6010C2E04C0B695A79554
:101ED000979587950A94D2F780FD0EC0219788F7D1
:101EE000B12C8B2DDF91CF911F910F91FF90EF902F
:101EF000DF90CF90BF900895B8018C2F0E949E0D67
:101F0000019761F3EECFCF93DF93EC010E94410F75
:101F1000BE01DF91CF910C949E0D0E94830F292F5B
:101F20002F7092959F7092509E3078F4E92FF0E0D8
:101F3000EE52FC4C0C94D52D803F19F020F4883ED5
:101F400020F481E00895843FE1F380E00895883E25
:101F5000C0F3813FD1F7F5CF822F86958695869580
:101F60000895CF93DF939C013A9521153F4168F581
:101F7000EC01CC27D170DC01AA27B270AC01442758
:101F800054709C012227387094FF11C080E1CD2B42
:101F900009F480E0AB2B09F08062452B09F08064E6
:101FA000232B09F08068FB01DF91CF91099481E038
:101FB000CD2B09F480E0AB2B09F08260452B09F0B2
:101FC0008460232B81F38860EECFDF91CF91089559
:101FD0009F92AF92BF92CF92DF92EF92FF920F93B8
:101FE0001F93CF93DF9320E9289FE001299FD00D15
:101FF0001124C455DF4F10E000E0FE0164913196DA
:10200000749131968491962F972B982BC1F420E0F0
:1020100040E060E0C8010E94D5080F5F1F4F239683
:102020000033110551F7DF91CF911F910F91FF9070
:10203000EF90DF90CF90BF90AF909F9008950E9457
:10204000440B962EB72EA82E60914D0670E090E0BE
:1020500080E00E940B2F20E030E04FE753E40E9425
:102060006A2E6B017C016A2D70E090E080E00E9496
:102070000D2FA70196010E94992F0E94DC2EA62EFB
:10208000692D70E090E080E00E940D2FA70196017D
:102090000E94992F0E94DC2E962E6B2D70E090E00E
:1020A00080E00E940D2FA70196010E94992F0E94A7
:1020B000DC2E2A2D492DAECF40E060E080E00E946A
:1020C000D30881E080931306089527982F980895E8
:1020D00026982E98089525982D98089556985E98DC
:1020E0000895279A2F9A0895269A2E9A0895259A48
:1020F0002D9A0895CF92DF92EF92FF92CF936B01CA
:102100007C010E94C206C82F0E946E100E946B10B4
:102110000E9468100E946510C150C73040F4EC2F37
:10212000F0E0E052FC4C0C94D52D0E947710C701D2
:10213000B601CF91FF90EF90DF90CF9008950E946D
:1021400077100E947410F3CF0E9477100E947110D4
:10215000EECF0E9477100E947410F8CF84B1807F78
:1021600084B985B1807F85B98AB1837F8AB98BB103
:10217000837F8BB93E984698089580B38C7080BB5E
:1021800081B3836F81BB0895CF9384E090E00E9478
:10219000222EC82F81E290E00E94222E982F8C2FB1
:1021A000CF910895CF93DF9300D00F92CDB7DEB7D4
:1021B00090913806943019F589837B836A8382E095
:1021C0008093E9008FEF9091E800815095FD06C063
:1021D00095ED9A95F1F700008111F5CF8091E80017
:1021E00085FF0DC050E040E063E070E0CE01019655
:1021F0000E9426048091E8008E778093E8000F907B
:102200000F900F90DF91CF910895CF93DF93EC0162
:102210000E946005823011F0843031F4BE0184E008
:10222000DF91CF910C94D210DF91CF910895BC0132
:102230006058710983E00C94D210CF93DF93EC01C6
:102240000E946005823011F08430F9F482E08093BE
:10225000E9008FEF9091E800815095FD06C095ED63
:102260009A95F1F700008111F5CF8091E80085FF84
:102270000CC050E040E066E070E0CE010E94260411
:102280008091E8008E778093E800DF91CF910895E8
:10229000CF93DF93EC010E946005823011F084300F
:1022A000B9F5809118018823B1F18091E60587FF87
:1022B00032C060E282E08093E9008FEF9091E80005
:1022C000815095FD06C095ED9A95F1F700008111BA
:1022D000F5CF8091E80085FF1BC08091180170E068
:1022E00050E040E0811104C050E040E068E070E060
:1022F000CE010E9426048091E8008E778093E8004A
:1023000080E2FE01A6E1B6E001900D928A95E1F728
:10231000DF91CF91089568E081E0CDCFEF92FF92F9
:102320000F931F93CF93DF930E946E100E946B1048
:102330000E9468100E94651088E8E82EF12C8FEF4B
:1023400090E0F701918380830AE810E0F80191831F
:102350008083CCE8D0E0998388830E947710FFEFD8
:1023600020E782E0F15020408040E1F700C000000B
:102370000E9474109FEFE0E7F2E09150E040F040DF
:10238000E1F700C000000E9471102FEF80E792E09B
:10239000215080409040E1F700C000000E946B1087
:1023A000EFEFF0E722E0E150F0402040E1F700C01D
:1023B00000000E9468108FEF90E7E2E081509040AB
:1023C000E040E1F700C000000E9465108091D40554
:1023D0008770FFEF8F9FC001112495958795959584
:1023E00087959927F70191838083F80191838083F2
:1023F000998388830E946E100E946B100E9468105F
:10240000DF91CF911F910F91FF90EF900C94651089
:102410006091D0058CE090E00C94462E6FEE7EEF3C
:1024200090E080E00E94642E60E082E090E00E94F4
:10243000462E60E083E090E00E94462E1092C50593
:102440001092C6051092C7051092C80560E084E09E
:1024500090E00E94462E60E081E290E00E94462ECD
:1024600060E085E090E00E94462E60E086E090E02B
:102470000E94462E6FEF87E090E00E94462E40E0DB
:1024800050E0BA0188E090E00E94582E60E08DE0B4
:1024900090E00E94462E40E050E0BA0188E190E0D2
:1024A0000E94582E60E087E190E00E94462E40E0B6
:1024B00050E0BA018CE190E00E94582E60E080E28A
:1024C00090E00E94462E1092D4051092D5051092ED
:1024D000D6051092D70584E080618093D4054091A1
:1024E000D4055091D5056091D6057091D7058FE040
:1024F00090E00E94582E40E050E0BA0183E190E065
:102500000C94582E0F931F93CF93DF93082F000F37
:10251000EB0114E21093D203E3EDF3E0DE018D91C1
:10252000819383E0E33EF807D1F724E630E041E110
:1025300050E062ED73E0802F0E94822D105F609664
:10254000143B41F7DF91CF911F910F910895809136
:10255000E603882329F068EE73E084E70E94821284
:102560001092E6038091E703882329F068E774E07E
:1025700087E70E9482121092E7030895E2EDF3E0EC
:102580006083418324E630E042E050E0BF01880FE1
:102590000C94822D0F931F93CF93DF93082FE62F78
:1025A000F0E0E45DFA4F8081882379F082E1689F52
:1025B000E0011124C85FDA4F10E04991612F802FAC
:1025C0000E94BE121F5F1231C1F7DF91CF911F91A0
:1025D0000F910895CF93DF93C82F4BE06DEF0E94CA
:1025E000BE1240E06AE08C2F0E94BE128FE39CE98D
:1025F0000197F1F700C0000040E060E08C2F0E94DE
:10260000BE1240E061E08C2F0E94BE1240E066E006
:102610008C2F0E94BE1240E06DEF8C2F0E94BE12E4
:10262000D0E040E06D2F8C2F0E94BE12DF5FD231D0
:10263000C1F740E06D2F8C2F0E94BE12DF5FD432B5
:10264000C1F740E06D2F8C2F0E94BE12DF5FD43B9C
:10265000C1F74BE06DEF8C2F0E94BE1241E06AE0A3
:102660008C2F0E94BE1240E06DEF8C2FDF91CF9136
:102670000C94BE126F927F928F929F92AF92BF92F4
:10268000CF92DF92EF92FF920F931F93CF93DF933E
:102690000E94CD2C84E70E94EA1287E70E94EA128A
:1026A0006CE2E62E61E0F62ED12CC12C72E1772E81
:1026B000E8E08E2E912CAA24A394B12C6624639476
:1026C000F701418150E0CA01849702810452110B45
:1026D000C381C452DD0BF601EE0FFF1FEE0FFF1F8B
:1026E000E45DFE4F2081237030E0FC0197FD3796BA
:1026F00043E0F595E7954A95E1F7729EA001739E38
:10270000500D1124485F5A4FE40FF52FF11DB4010D
:102710000E94C12DA50101C0440F8A95EAF780816E
:10272000842B8083F80117FD379693E0F595E795A4
:102730009A95E1F7729EC001739E900D1124885FF7
:102740009A4FE80FF92FF11DC801B4010E94C12D65
:10275000A50101C0440F8A95EAF78081842B80830C
:10276000FE01D7FD379683E0F595E7958A95E1F769
:10277000729EC001739E900D1124885F9A4FE80FDE
:10278000F92FF11DCE01B4010E94C12DA50101C098
:10279000440F8A95EAF78081842B8083245D3A4F29
:1027A000F9016082FFEFCF1ADF0A84E0E80EF11C26
:1027B000E0E3CE16D10409F083CF60E084E70E9405
:1027C000CA1261E087E7DF91CF911F910F91FF90CF
:1027D000EF90DF90CF90BF90AF909F908F907F90C1
:1027E0006F900C94CA1245E050E06CE170E08AE40E
:1027F00096E00C94362E80914A06982F96959695E1
:102800009F5F9F738370963148F4990F990F892BBE
:1028100080934A0610920B010C94F3138460F8CF56
:1028200080914A06845080934A06982F9C7F21F419
:102830008370846580934A0610920B010C94F31305
:10284000EAE4F6E08181885F81830C94F313EAE483
:10285000F6E08181885081830C94F313EAE4F6E07A
:10286000228130E1230F08F42FEF22830C94F3131D
:10287000EAE4F6E0228130E1231B08F420E0228321
:102880000C94F313EAE4F6E0238130E1230F08F41B
:102890002FEF23830C94F313EAE4F6E0238130E175
:1028A000231B08F420E023830C94F313EAE4F6E0FE
:1028B000248130E1230F08F42FEF24830C94F313C9
:1028C000EAE4F6E0248130E1231B08F420E02483CD
:1028D0000C94F31390914A0696959695981720F0CC
:1028E000961710F40C94FB13982F990F990F809161
:1028F0004A068370892B80934A0610920B010C9430
:10290000F313EAE4F6E081E3808380911C01909167
:102910001D01A0911E0181839283A3838FE784838D
:102920000C94F3130E943A1390E080E00E94302E42
:102930008F3E9E4F21F00E940E120E94811445E0AE
:1029400050E06CE170E08AE496E00E94122E8091E3
:102950004A068C7F11F40C948114089580E290E073
:1029600090930D0180930C018091D10381110EC0D1
:102970000E94CD2C81E08093D1032FEF83ED90E373
:10298000215080409040E1F700C0000064E670E014
:1029900080E40E94D32C90930D0180930C01892B2D
:1029A00009F04EC064E670E080E00E942F2D909305
:1029B0000D0180930C01892B09F042C064E670E0A0
:1029C00080E00E942F2D90930D0180930C01892BA4
:1029D000B9F564E670E08FE30E942F2D90930D010E
:1029E00080930C01892B61F50E94A92D64E670E0AB
:1029F00080E40E94D32C90930D0180930C01892BCD
:102A0000F9F464E670E08CE00E942F2D90930D01A4
:102A100080930C01892BA1F464E670E080E00E94B1
:102A20002F2D90930D0180930C01892B49F464E6BE
:102A300070E08FE30E942F2D90930D0180930C0185
:102A40000E94A92D80910C010895CF93C82F873043
:102A500070F580910C0190910D01892B89F564E648
:102A600070E080E40E94D32C90930D0180930C01C0
:102A7000892BD1F464E670E082E10E942F2D9093BF
:102A80000D0180930C01892B79F481E090E001C065
:102A9000880FCA95EAF764E670E080950E942F2DB2
:102AA00090930D0180930C01CF910C94A92D8A3045
:102AB000B9F040F4883071F0893079F0209A289884
:102AC000CF9108958C3091F070F08D30B9F73E9A27
:102AD0004698F6CF219A2998F3CF229A2A98F0CFD8
:102AE000239A2B98EDCF529A5A98EACF539A5B9833
:102AF000E7CFCF93873008F040C080910C019091D0
:102B00000D01C0E0892B71F464E670E080E40E945E
:102B1000D32C90930D0180930C01892B31F0C0E0F0
:102B20000E94A92D8C2FCF91089564E670E083E177
:102B30000E942F2D90930D0180930C01892B79F722
:102B400064E670E081E40E94D32C90930D018093A1
:102B50000C01892B21F784E690E00E945E2D97FFFF
:102B600005C090930D0180930C01D9CFC82FC0955B
:102B700010920D0110920C01D3CFCFB18FB1869579
:102B800086958C73C3708C2BC82FC095CBCF78944F
:102B90001F921FB61F9211248F939F93AF93BF93E1
:102BA0008091C9059091CA05A091CB05B091CC0543
:102BB0000196A11DB11D8093C9059093CA05A093EC
:102BC000CB05B093CC05BF91AF919F918F911F9092
:102BD0001FBE1F9018952FB7F8948091C90590914A
:102BE000CA05A091CB05B091CC052FBF0895E09107
:102BF000E805F091E905309749F082E08093F90506
:102C00000480F581E02D89EF95E009950E94EB1590
:102C1000909301068093000608951092C2051092C9
:102C2000C1050E94150786E0E9EFF5E0DF011D927E
:102C30008A95E9F71092FF051092CD050E94F715CD
:102C400090E080E00E945A0890E080E00C944408F4
:102C50000E947A106093BC057093BD058093BE05F9
:102C60009093BF050C940D160F931F9341E050E015
:102C700060E070E004C0440F551F661F771F8A95FF
:102C8000D2F7CB01BA01609570958095909500912F
:102C9000BC051091BD052091BE053091BF05602394
:102CA0007123822393231F910F910C9428169091E6
:102CB000C005809589238093C005282F277071F463
:102CC000282F082E000C330B9217130639F0859528
:102CD000859585950E9434161092C00508950F932E
:102CE0001F9341E050E060E070E004C0440F551FC6
:102CF000661F771F8A95D2F78091BC059091BD051C
:102D0000A091BE05B091BF058A019B01082B192B2C
:102D10002A2B3B2BC901B8011F910F910C94281647
:102D20006093C5057093C6058093C7059093C80549
:102D30000C940D161092C30580911801ECEAF3E093
:102D4000882359F08091E60587FF07C08EE1DF01F7
:102D50001D928A95E9F70C940D1686E0F8CF1F9323
:102D6000CF93DF93CDB7DEB7AA970FB6F894DEBF47
:102D70000FBECDBF8AE396E02091F100FC012193C4
:102D8000CF01F6E082349F07B9F780913B0683308C
:102D900009F46FC0B8F4813009F446C0823009F4F8
:102DA000B0C08091E80083FF87C280913A0690917D
:102DB0003B069A3008F080C2E92FF0E0E951FC4C64
:102DC0000C94D52D8A3009F48BC08B3009F46EC079
:102DD000893039F780913A06813219F780913E06A1
:102DE00090913F060297E8F68091E800877F8093F4
:102DF000E8008091E80082FF37C09091F300809155
:102E0000F200029729F48091F1008B7F813021F448
:102E10008091F100809315068091E8008B77809374
:102E2000E8000E945004BDCF80913A06813A09F033
:102E3000B8CF8091E800877F8093E80080913E06BC
:102E400090913F06892B61F460E286E196E070E0A4
:102E50000E9402058091E8008B778093E800A1CF63
:102E600060E090E080E0F3CF809138068111C1CF1F
:102E700098CF80913A06813A09F093CF80913E062F
:102E800090913F06892B09F08CCF8091E800877FD5
:102E90008093E8008091E80080FFFCCF80911801CA
:102EA0008093F1008091E8008E77B9CF80913A0647
:102EB000813209F076CF80913E0690913F06892BB2
:102EC00009F06FCF8091E800877F8093E8000E942F
:102ED000500480913C06809318010E949A1661CF9D
:102EE00080913A06813209F05CCF8091E800877FBB
:102EF0008093E8000E94500480913D068093140660
:102F000050CF80913A06813A09F04BCF8091E8008A
:102F1000877F8093E8008091E80080FFFCCF80915C
:102F20001406BECF803899F0823809F0C5C180916F
:102F30003E068F70873008F0BFC18093E900809112
:102F4000EB0085FB882780F91092E90006C080918C
:102F5000360690913706911182609091E800977F34
:102F60009093E8008093F1001092F1008091E800C6
:102F70008E779EC1882309F48CC1823009F09CC1F0
:102F800080913C0681118FC180913E068F702FEF9A
:102F9000280F263008F090C18093E9002091EB00C3
:102FA00020FF81C1933031F48091EB0080628093E7
:102FB000EB0079C19091EB0090619093EB0021E0E0
:102FC00030E001C0220F8A95EAF72093EA001092C0
:102FD000EA008091EB008860EACF81116DC1109109
:102FE0003C061F778091E3008078812B8093E3007B
:102FF0008091E800877F8093E8000E9450048091D0
:10300000E80080FFFCCF8091E30080688093E300BC
:1030100082E0111183E0809338064EC180588230DF
:1030200008F04AC180913C0690913D068C3D23E01A
:103030009207A1F583E08A838AE289834FB7F894E7
:10304000DE01139620E03EE051E2E32FF0E05093E2
:103050005700E49120FF03C0E295EF703F5FEF70EF
:103060008E2F90E0EA30C0F0C7968D939D932F5F2E
:10307000243159F74FBF8091E800877F8093E800A3
:103080006AE270E0CE0101960E9402058091E8009C
:103090008B778093E80010C1C096E7CF40913E0641
:1030A00050913F06292F33272330310509F445C0BD
:1030B00078F52130310509F47BC08BE390E0E4EF33
:1030C000F6E02230310509F0F7C02091E800277FB3
:1030D0002093E80020914006309141068217930723
:1030E00008F49C0140E02115310509F070C0411140
:1030F0006EC08091E80082FDC9CF80913806882398
:1031000029F2853019F28091E80083FFF2CFBECF1B
:103110002132310509F440C02232310509F0CCC01A
:103120004115510509F44EC04130510509F0C4C0A4
:1031300080EC90E0E4EFF5E0C8CF9927813091056D
:10314000D9F0009771F082309105F1F0039709F002
:10315000B3C0E1E4F7E0E4918E2F90E0E1E4F7E022
:1031600007C0E9E6F7E0E4918E2F90E0E9E6F7E0AA
:10317000009709F4A1C0A9CFEFE5F7E0E4918E2F05
:1031800090E0EFE5F7E0F4CFE7E4F7E0E4918E2F8D
:1031900090E0E7E4F7E0ECCF4115510571F04130E4
:1031A000510509F089C089E090E0EFE1F7E08DCFAB
:1031B00082E190E0EFE2F7E088CF89E090E0E6E09E
:1031C000F7E083CF80E490E0E4EBF6E07ECF8091FF
:1031D0003806882309F45ACF853009F457CF8091F7
:1031E000E80083FD53CF8091E80082FD82CF80917B
:1031F000E80080FF78CF9091F3008091F2002115D4
:10320000310519F08830910550F041E0089709F038
:1032100040E08091E8008E778093E80064CF44918D
:103220004093F1003196215031090196E8CF803862
:1032300009F042C08091E800877F8093E800809188
:1032400039068093F10092CE811136C010913C0670
:10325000123090F58091E800877F8093E80010930A
:1032600039060E945004112311F084E005C08091BA
:10327000E30087FDFACF81E08093380642E061ECFD
:1032800081E00E946F0442E261EC82E00E946F04E0
:1032900013C080913C06813079F481E0933009F0CD
:1032A00080E0809337061092E9008091E800877FE4
:1032B0008093E8000E9450048091E80083FF0AC0D8
:1032C0008091E800877F8093E8008091EB00806226
:1032D0008093EB00AA960FB6F894DEBF0FBECDBF69
:1032E000DF91CF911F9108951F920F920FB60F9209
:1032F00011242F933F934F935F936F937F938F93FB
:103300009F93AF93BF93CF93DF93EF93FF93D091AE
:10331000E900DF708091EC00C82FC17080FDC0E82B
:103320001092E9008091F000877F8093F0007894FC
:103330000E94AF161092E9008091F000886080939F
:10334000F000CD2BCF70C093E900FF91EF91DF919A
:10335000CF91BF91AF919F918F917F916F915F912D
:103360004F913F912F910F900FBE0F901F90189586
:103370001F920F920FB60F9211242F933F934F93EA
:103380005F936F937F938F939F93AF93BF93EF93CD
:10339000FF938091E10082FF09C08091E20082FFEB
:1033A00005C08091E1008B7F8093E1008091DA007D
:1033B00080FF24C08091D80080FF20C08091DA0077
:1033C0008E7F8093DA008091D90080FFA1C080E1D8
:1033D00089BD82E189BD09B400FEFDCF81E0809303
:1033E000380680911206811109C00E94D6030E94FE
:1033F000A1048091E20084608093E2008091E1006A
:1034000080FF17C08091E20080FF13C08091E2002E
:103410008E7F8093E2008091E20080618093E200E1
:103420008091D80080628093D80019BC85E0809399
:1034300038068091E10084FF2FC08091E20084FF74
:103440002BC080E189BD82E189BD89B5982F91703B
:1034500080FFFBCF8091D8008F7D8093D800809132
:10346000E1008F7E8093E1008091E2008F7E809367
:10347000E2008091E20081608093E2008091390651
:10348000882309F44BC084E0809338060E949A1682
:103490000E947008109213068091E10083FF27C0FC
:1034A0008091E20083FF23C08091E100877F8093B9
:1034B000E10082E080933806109239068091E100A5
:1034C0008E7F8093E1008091E2008E7F8093E20006
:1034D0008091E20080618093E20042E060E080E061
:1034E0000E946F048091F00088608093F000FF914B
:1034F000EF91BF91AF919F918F917F916F915F916C
:103500004F913F912F910F900FBE0F901F901895E4
:1035100019BC109238061092120670CF8091E30009
:1035200087FD93E090933806B1CF882309F459C002
:10353000823871F40E94700881FF53C089E30E94B1
:1035400085070E94150789E30E945A070C94150706
:10355000833859F40E94700880FF43C083E50E94BD
:1035600085070E94150783E5EFCF843859F40E9440
:10357000700882FF36C087E40E9485070E94150705
:1035800087E4E2CF9CEF980F913AF0F290E2980F27
:10359000983088F4877021E030E0A90102C0440F20
:1035A000551F8A95E2F7CA0180959091C30589233A
:1035B0008093C305CBCF9BE5980F933020F490E028
:1035C00080E00C945A0898E5980F973120F490E029
:1035D00080E00C944408803F20F00E946B050C941E
:1035E000F7150895CF93DF93EC010E94951A6AE1D5
:1035F00078E0CE01DF91CF910C94B10F882309F4CC
:103600007BC08238B9F40E94700881FD75C089E3DF
:103610000E9485070E9415072FEF81EE94E021504C
:1036200080409040E1F700C0000089E30E945A0703
:103630000C9415078338A1F40E94700880FD5CC0CB
:1036400083E50E9485070E9415072FEF81EE94E025
:10365000215080409040E1F700C0000083E5E6CFB4
:103660008438A1F40E94700882FD46C087E40E945D
:1036700085070E9415072FEF81EE94E021508040CE
:103680009040E1F700C0000087E4D0CF9CEF980F96
:10369000913A18F40E948507CBCF90E2980F9830AA
:1036A00068F4877021E030E001C0220F8A95EAF7C4
:1036B0008091C305822B8093C305BACFEBE5E80F59
:1036C000E33038F4F0E0EC56FD4F808190E00C944C
:1036D0005A08E8E5E80FE73148F4F0E0EE0FFF1F85
:1036E000E956FD4F808191810C944408803F20F081
:1036F0000E9430060C94F7150895CF93C82F0E94AE
:10370000FE1AC93349F42FEF87EE93E02150804031
:103710009040E1F700C000008C2FCF910C94951AD7
:10372000CF93C82F65E278E00E94B10F8C2FCF9124
:103730000C94FE1ACF93DF93C0914305D0914405BA
:103740002097E1F080914505909146050E949806EA
:103750002091090130910A012817390790F4D260AD
:10376000CE010E94901BCE010E94F21A10924605D3
:10377000109245051092440510924305DF91CF91B8
:1037800008958C2F0E947D1BF1CF0F931F93CF9331
:10379000DF93C62FD42F022FFC0182818823A1F052
:1037A000609347050E94EB1590932F0580932E059B
:1037B000C77081E001C0880FCA95EAF7DF91CF9109
:1037C0001F910F910C943A0810914705161335C0BC
:1037D00080912E0590912F050E949806883C9105B6
:1037E00060F5C0E2CD0F1D17B9F080E2810F88307F
:1037F00040F4177081E001C0880F1A95EAF70E9423
:103800002F08C83048F481E09D2F977001C0880FC1
:103810009A95EAF70E943A08802F0E947D1BC830D3
:1038200098F4D77081E001C0880FDA95EAF7DF914C
:10383000CF911F910F910C942F08C77081E001C0A8
:10384000880FCA95EAF7F3CFDF91CF911F910F91BF
:1038500008954F925F926F927F928F929F92AF9254
:10386000BF92CF92DF92EF92FF920F931F93CF936D
:10387000DF93CDB7DEB728970FB6F894DEBF0FBE43
:10388000CDBF6C01FC0183819481892B39F01081BB
:10389000B180812F8B218F3F09F0BEC728960FB6CC
:1038A000F894DEBF0FBECDBFDF91CF911F910F9176
:1038B000FF90EF90DF90CF90BF90AF909F908F9050
:1038C0007F906F905F904F9008950E94410F082F56
:1038D000682F89819A810E94E207E12FF0E026E0BB
:1038E000B29EE00DF11D112434E5039FE00DF11DA2
:1038F0001124EE0FFF1FE45AFC4F05911491F601BD
:1039000082810930FDE51F0759F10A302DE51207C4
:1039100009F4FBC0023C3CE5130709F01CC18823F5
:1039200009F4BCCF90911A018091D4059F3F09F012
:103930000BC110921A018F7E8093D40540E060E0A5
:1039400080E00E94D3084091D4055091D505609144
:10395000D6057091D7058FE090E00E94582E9ECF3B
:10396000882309F44FC08091D40591E0980F977097
:10397000887F953008F4892B8093D4058091D405F5
:1039800087706FEF869FC001112495958795959557
:1039900087959927909389008093880090938B0056
:1039A00080938A0090938D0080938C004091D40581
:1039B0005091D5056091D6057091D7058FE090E0C4
:1039C0000E94582E6091BC057091BD058091BE0586
:1039D0009091BF050E947A10F6018281882391F0B0
:1039E000033EFCE51F0709F4D3C008F0C1C0013E47
:1039F0003CE5130709F4C7C081E0023E6CE51607F9
:103A000009F4C7C017FF52C0F6018281882309F468
:103A1000EEC08091C305809342051092C30580914A
:103A2000D005813009F4BEC0882309F4B7C08230C4
:103A300009F4C1C0843009F4C5C08FE39CE9019743
:103A4000F1F700C000004801E89497F85CE0A52E6B
:103A5000B12C94010A2C02C0369527950A94E2F7FE
:103A60002F7087E290E031F0822F90E02A3008F04A
:103A7000AEC04D960E947D1B94E0A91AB108ECEFF0
:103A8000AE16EFEFBE0629F78091D005813009F41C
:103A9000A4C0882309F49DC0823009F49AC0843000
:103AA00009F49FC0809142058093C305F60182818D
:103AB000882309F49CC00436110571F008F0B5C0E4
:103AC0000B32110549F0C8010C32110508F08BC00A
:103AD0000497849708F08BC00E949A1B809108017C
:103AE000882309F4BBC08091C3058111B7C00E942F
:103AF000EB1590934605809345051093440500937C
:103B0000430582E00E945716C9CE882309F47ACF74
:103B10009091D405892F877F93FF88608093D40587
:103B200083FF05C040E060E080E00E94D308409140
:103B3000D4055091D5056091D6057091D7058FE0D9
:103B400090E00E94582E48CF9FEF90931A01806119
:103B50008093D405F8CE0B307DE5170709F03CCFF4
:103B6000882309F49BCE80914A06837084609EC2AC
:103B7000043E7CE5170781F0053E8CE5180709F047
:103B800041CF84E006C01092D0050E9408123ACFBF
:103B900082E08093D005F9CF83E0FBCF82EE0E94D4
:103BA000FE1A4BCF88E193E00E94901B88E193E0DE
:103BB0000E94F21A42CF82EE0E94FE1A87E50E940E
:103BC0007D1B3BCF86EE0E947D1B88E1F8CF0697D8
:103BD00051CF82EE0E94951A65CF8CE20E947D1B28
:103BE00061CF88E2FBCF8D970C9708F475CF0E94C8
:103BF0009A1B033F3CE5130709F459C108F045C17E
:103C0000083D7CE5170709F44EC1093D8CE518070E
:103C100009F459C1073D9CE5190701F526E241EE7B
:103C200061EEC6010E94C51B39CE0931FCE51F07B4
:103C300009F479C008F060C007313CE5130709F4C6
:103C40006CC08091090190910A01059708316CE5DB
:103C5000160769F690930A0180930901F601928193
:103C6000992309F4EDC5109247050230FCE51F07C2
:103C700008F4FFC106312CE5120738F098012A5FDD
:103C80003C452730310508F0F4C10E94C4109093E0
:103C9000E7058093E6050F303CE5130709F4CAC138
:103CA00008F04BC108307CE5170709F4ADC108F0F6
:103CB0001EC104309CE5190709F49AC108F006C139
:103CC0000230FCE51F0709F48FC18091E605826090
:103CD00003301C4509F41DC16091E6051091E7050C
:103CE00084E090E00E94462E612F81E290E00E94E5
:103CF000462E0E949A16D2CD0B317CE5170709F4A7
:103D0000C0C008F4BAC00C319CE5190709F06FCFA8
:103D1000109208010E949A1BA1CF809109019091F5
:103D20000A01059697CF80910A018F93809109012E
:103D30008F938FE191E09F938F931F9288E08F93F1
:103D4000FF92EF920E9431310FB6F894DEBF0FBEA2
:103D5000CDBF4AE0642EF7012081222309F47ECFF3
:103D6000213009F04BC08181B280813051F4F2E002
:103D7000EF0EF11C8B2D0E94FE1A8B2D0E94951ABE
:103D800008C0823051F422E0E20EF11C8B2D0E941B
:103D9000FE1A2FEFE21AF20ADECF833021F432E06E
:103DA000E30EF11CEACF843021F06FEFE61AF60A39
:103DB000F0CF72E0E70EF11C30E020E0A7014F5F8A
:103DC0005F4F6B2D6053770BCB016A30710550F05C
:103DD00021503109F0F28FE99FE00197F1F700C01F
:103DE0000000F6CF629EB001639E700D11249C010D
:103DF000260F371FF701B1807A01E0CFE22FF0E004
:103E0000EC58FA4F7490822F86958695869590E0AF
:103E1000FC01EC59FA4F84902770912C022E02C0BD
:103E2000959487940A94E2F7E1E08E229924FC01AC
:103E3000EC5AFA4FA490B12C02C0B594A7942A95DD
:103E4000E2F7F1E0AF22BB248114910419F081EE76
:103E50000E94FE1AA114B10419F086EE0E94FE1A07
:103E6000872D0E947D1BAB2819F086EE0E94951AC3
:103E7000892809F48ECF81EE81CF809108018111CC
:103E800047CF81E080930801E9CE053FECE51E07AE
:103E9000B1F088F0063F2CE5120709F0DFCE27E2EB
:103EA00045EE66EEBECE27E245EE65EEBACE26E2E0
:103EB00041EE60EEB6CE27E245EE64EEB2CE26E2EB
:103EC00041EE62EEAECE28E241E0EFCF8091E60512
:103ED000806106303CE51307E1F08091E6058860DB
:103EE00007301C45B0F08091E605806212C00B30AF
:103EF0007CE5170709F496C078F409309CE51907AA
:103F000009F486C08091E6058C600A301C4509F0F2
:103F1000E3CE8093E605E0CE8091E6058B7F0D3001
:103F2000FCE51F07B1F38091E6058D7F0E301C453F
:103F300080F38091E605877FECCF0A3F3CE51307CD
:103F400009F45AC048F502317CE5170709F47AC034
:103F500060F400319CE5190709F470C08091E60512
:103F60008F7B01311C45A9F2B7CE0431FCE51F0758
:103F700009F476C008F46CC005311C4509F0ACCEDC
:103F80008091E60582FB992790F921E0922790FB2A
:103F900082F990FB83F9BDCF0D3F6CE5160709F45C
:103FA00045C070F40B3F8CE5180751F18091E7058F
:103FB0008E7F0C3F1C4509F08FCE8093E7058CCE99
:103FC0000F3FECE51E0709F447C040F101151D4500
:103FD00009F082CE8091E705982F909591708E7FA1
:103FE000892B90FB81F9E9CF8091E605816091CF23
:103FF0008091E60584608DCF8091E7058160DDCFFB
:104000008091E7058260D9CF8091E605806481CFF9
:104010000E949A168091E60580687BCF8091E70523
:104020008360CBCF8091E6058E7F73CF8091E705CB
:104030008D7FC3CF8091E6058F7E6BCF8091E605A3
:104040008F7D67CF0E949A168091E6058F7761CFAA
:104050008091E605837F5DCF8091E7058C7FADCFB2
:104060000E949A169091E605892F97FB87F9805850
:1040700050CF8091C30506313CE5130709F0ECC32E
:104080008A7A91E009F490E090934805811106C086
:1040900089E20E9485070E94150700CC85E3F9CFCD
:1040A00085E3D7C380914A0691E0892780934A0629
:1040B00010920B010E94F313F1CB40E154E16BEF3E
:1040C00073E10E947C08EACB4BEF53E160E174E1BD
:1040D000F8CF47E254E160E274E1F3CF40E254E10B
:1040E00067E274E1EECF48E354E16EE274E1E9CFB8
:1040F0004EE254E168E374E1E4CF4CE454E162E45D
:1041000074E1DFCF42E454E16CE474E1DACF40E6DD
:1041100054E166E574E1D5CF46E554E160E674E12B
:10412000D0CF65E082E00E946A14B8CB68E086E0F8
:10413000FACF6EE089E0F7CF64E18FE0F4CF67E17A
:1041400085E1F1CF80914A0683708066AFCF62E24D
:1041500089E1E9CF80914A0683708C68A7CF011569
:104160006CE5160709F443C00E3D1C4509F47CC0FC
:10417000F60100811181992309F479C0C8010E94D8
:10418000410FF82E682FC8010E94E207B8018F2D59
:104190000E949E0D8C01B82EF601E580E2943FE06E
:1041A000E322F280F1101092C2058091C005877061
:1041B00079F0FF2069F080E2800F883048F082E0DB
:1041C0000E9457168091C0058770AA24A39481117C
:1041D000A12C912E92942FE09222FBE0F91508F485
:1041E00080C0E92DF0E0EF50FC4C0C94D52D0E94DE
:1041F0009A168FEF94E3ECE081509040E040E1F7B5
:1042000000C00000F89481E08093E00080E2809399
:10421000D8001092C9008FE19EE40197F1F700C029
:1042200000001DBA109268001CBC10BE1FBA10928C
:104230007A0010926E0010926F001092710010922E
:1042400072001092C9001092BC0014B817B81AB8C6
:104250001DB810BA1092BC0015B818B81BB81EB81B
:1042600011BA0C94003F1ACB0E940E1217CBC80152
:104270000E94B907F82E8ACF212F2F70E22E107FCF
:1042800019F0E29490EFE922FF20C9F0EE2069F0E6
:1042900080E2800F883010F0B1100BC08091C30510
:1042A000E82AE092C3050E941507802F0E94FE1A9B
:1042B00018C08091C205E82AE092C205F4CF802F91
:1042C0000E94951AEE2069F0E094005E083010F02C
:1042D000B11028C08091C305E822E092C3050E9476
:1042E0001507292D2850330B2430310510F40E9476
:1042F0007008AA2009F4D2CA8091C00580FDCECAF8
:10430000F60112828595859585950E946F16C601E6
:104310000E94291C8091C0058595859585950E94F0
:104320003416BCCA8091C205E822E092C205D7CFFC
:10433000312F3F70832E107F103219F0829480EF5E
:104340008822BB2041F061E0B61631F1FF2079F1FF
:10435000EE2041F1AACFFF2091F09091C405882D65
:10436000892BE11003C00E943A08BBCF71E0E7122D
:10437000FACF891709F4B5CF8093C405B2CFE11005
:1043800006C00E940F07882D0E942F08AACF81E047
:10439000E81609F4A6CFF5CFFF2031F091E09E1585
:1043A00008F49FCF882DDFCFE1109BCFECCFEE201C
:1043B00051F3093349F4EFEFF7EE23E0E150F04019
:1043C0002040E1F700C00000802F0E94951A89CF9D
:1043D000812F86958695837061F0813009F081CFB9
:1043E000C8019370F11002C090E080E00E94440880
:1043F00078CFC8019370F11002C090E080E00E9475
:104400005A086FCFFF2009F1053F99F0063FB9F038
:10441000043F49F48091490590914A058160909349
:104420004A0580934905802F0E9430060E94F715A7
:1044300058CF8091490590914A058260F0CF8091D4
:10444000490590914A058460EACF053F89F0063F0F
:10445000A9F0043F49F48091490590914A058E7F67
:1044600090934A0580934905802F0E946B05DECF0B
:104470008091490590914A058D7FF2CF8091490541
:1044800090914A058B7FECCF812F837009F066C035
:10449000F11027CF802F829586958770880F880F1F
:1044A000602F6F70462E512C712C612C082E04C089
:1044B000440C551C661C771C0A94D2F740E050E06F
:1044C000BA0104FF0FC04FE050E060E070E004C0AC
:1044D000440F551F661F771F8A95D2F74095509558
:1044E00060957095812F869586958370823019F13D
:1044F000D8F40091C5051091C6052091C7053091EB
:10450000C805813069F04429552966297729CB01EE
:10451000BA0160237123822393230E949016E1CE77
:10452000402A512A622A732ACB01BA0164297529CB
:1045300086299729F2CF44295529662977290091A0
:10454000C5051091C6052091C7053091C805CB015E
:10455000BA016027712782279327DFCF8695FF2036
:1045600011F0812F8170882309F4BBCE802F8295B2
:1045700086958770880F880F602F6F70462E512C9C
:10458000712C612C082E04C0440C551C661C771C31
:104590000A94D2F740E050E0BA0104FF0FC04FE0A8
:1045A00050E060E070E004C0440F551F661F771FA5
:1045B0008A95D2F74095509560957095812F869594
:1045C00086958370823019F1D8F40091BC05109162
:1045D000BD052091BE053091BF05813069F04429A9
:1045E000552966297729CB01BA01602371238223DB
:1045F00093230E94281675CE402A512A622A732AD4
:10460000CB01BA016429752986299729F2CF44295B
:104610005529662977290091BC051091BD05209187
:10462000BE053091BF05CB01BA01602771278227F3
:104630009327DFCF1F70FF2029F0812F0E946F1674
:10464000802F91CE802F0E942F08812F0E94341638
:1046500048CE802F32EFB31609F44EC03B1578F0E8
:1046600060EFB61619F171EFB71609F43DC0FF20DF
:1046700009F465C0E11019CE812F8F713AC093EF14
:10468000B91609F43EC0E4EFBE12F1CFFF2009F4E1
:104690004BC01F71812F0E946F1628E0129FC0012E
:1046A000112483608093C005812F23C0FF20B9F0BF
:1046B000E11017CE1F7161E070E080E090E004C06F
:1046C000660F771F881F991F1A95D2F70091BC05B6
:1046D0001091BD052091BE053091BF05A6CFF1E038
:1046E000FE1508F4FECDE6CF812F8F71FF2009F46F
:1046F000ADCF0E946F16F5CD812F8F71FF20C9F3CA
:10470000A5CF60E070E0CB01FF2009F472CF1F71EC
:1047100061E070E080E090E004C0660F771F881FC2
:10472000991F1A95D2F765CF81E00E94571631E0A4
:104730003E1508F0D6CD82E00E945716D2CDEE206D
:1047400059F0893309F040CE6FEF77EE83E0615086
:1047500070408040E1F736CE812F8F7177CF92EF96
:10476000B916D1F19B1500F1E0EFBE1649F1F1EF5A
:10477000BF16D1F180914B05EE2009F441C088238A
:1047800041F080914C0591E0892780934C0510926F
:104790004B05802FF1108ACD0E94951A86E0F60114
:1047A00011928A95E9F79DCD24EFB216C1F0B216A9
:1047B00088F035EFB312DECFF11093CD81E007C062
:1047C000FF2009F48ECD80914C0591E089278093DC
:1047D0004C0587CD81E0F826F0924C0582CDF11092
:1047E00080CD10924C057DCDFF2039F080914B0596
:1047F000882349F310924B0574CDEE2021F371CD3F
:10480000882309F46ECDF1106CCD80914C0591E0B8
:10481000892780934C05EECF85E09E012F5F3F4FA7
:104820007901D90101900D928A95E1F7F601228173
:1048300089819A81211149C80E94B907082F4DC862
:1048400006311C4509F094CC80914805811128CC93
:1048500089E20E945A071FCC8272F801E25CFC4593
:10486000E431F10508F07BCCE350FC4C0C94D52DE1
:104870001F93CF93DF9380915205807FC1F4809185
:104880004F058823A1F080918405C0915305609164
:104890004D0570914E054091500550915105D62F10
:1048A000D723DA01A095B09516E0C81304C0DF91B4
:1048B000CF911F91089590E04115510511F0DF3F10
:1048C00031F401968770F1CF2A0F3B1F17C0189F54
:1048D000F001199FF00D1124EC5AFA4F2181271392
:1048E000F0CF20812613EDCF22812111EACF238141
:1048F00034812417350740F3241B350B283C310540
:1049000000F7209152052F7020612093520526E078
:10491000289FF001299FF00D1124E75AFA4F80815A
:104920008F70806180838DE495E00E94291CDF9167
:10493000CF911F910C941008BF92CF92DF92EF920B
:10494000FF920F931F93CF93DF93CDB7DEB761979D
:104950000FB6F894DEBF0FBECDBF8C0185E0F80125
:10496000DE011D9601900D928A95E1F7D8012C91F8
:1049700011963C9111971296EC90129780915005E8
:1049800090915105009709F463C140914D055091F4
:104990004E05642F65236F3F09F45AC11396CD90DD
:1049A000DC90B0904F05BB2009F413C1C816D9069E
:1049B000C0F1F601E81BF90BCF01FF24F394883C0A
:1049C000910508F0F12C80915205982F907FFF20DF
:1049D00009F4C1C091117DC0FE2C531327C04213AE
:1049E00025C0E11023C08F708061809352058DE453
:1049F00095E00E94291C80915205D80115968C9350
:104A00008F2D61960FB6F894DEBF0FBECDBFDF913C
:104A1000CF911F910F91FF90EF90DF90CF90BF90BB
:104A20000895809590958C0D9D1DC7CFCD2829F0B8
:104A3000822F83238F3F09F035C180E0B82FB170FA
:104A4000DB2E80FF3CC0809184054091530556E0E9
:104A5000841315C02D873E878D859E850E94830F08
:104A6000292F22952F702230F0F0243018F59F70F6
:104A7000F1F0F8019581907FD1F4D12C1EC090E027
:104A8000589FF001599FF00D1124EC5AFA4F6181A3
:104A9000361306C06081261303C06281E6120FC080
:104AA00001968770D5CF9F7011F0882331F3805E17
:104AB000883018F3C8010E94291CFD2CA1CFEE20DC
:104AC00009F49ECF80915205816080935205F12CAC
:104AD00097CF531313C0421311C0E1100FC0D80178
:104AE00015968C93C8010E94291C86E0F801ADE45C
:104AF000B5E001900D928A95E1F782CF2D873E8730
:104B00008D859E850E948D0F882309F1EE20F9F096
:104B100080915205803270F020914D0530914E0504
:104B200038872F831986DB86CA868C87CE01079645
:104B30000E94291C86E0F801ADE4B5E001900D92D9
:104B40008A95E1F70E943824FF24F39459CFC801D5
:104B50000E94291CF9CF91110CC08DE495E00E94B0
:104B6000291C86E0EDE4F5E0DF011D928A95E9F766
:104B700047CF531312C0421310C0E1100EC0F8010A
:104B80008583C8010E94291CEDE4F5E086E0DF0181
:104B90001D928A95E9F7FB2C33CF2D873E878D85B3
:104BA0009E850E948D0F882391F2EE2081F28091E4
:104BB0005205803208F4BECF20914D0530914E054C
:104BC0003A8329831B82DD82CC828E83CE010196BB
:104BD000AFCFC816D90640F0C81AD90AB8ECCB1620
:104BE000D10448F0F12CBDCF809590958C0D9D1D82
:104BF000883C9105B8F7FE2CEE2009F4A8CF53139A
:104C000016C0421314C08091520580FD6ECF982FBC
:104C1000907F09F46ACFF8018583903F09F462CF51
:104C2000982F907F905F8F70892B85835BCF2D8726
:104C30003E878D859E850E948D0F81117BCF80914F
:104C40005205816080935205C8010E94291CD8CE6C
:104C5000EE2009F47CCF2D873E878D859E850E94AE
:104C60008D0FF82E882309F472CF86E0F801ADE4A9
:104C7000B5E001900D928A95E1F780914D059091F4
:104C80004E050E94830F92959F70963041F480915B
:104C90004C0591E0892780934C0590934B050E9429
:104CA0003824AECE81E08E25C9CE1F93CF93DF93FB
:104CB000CDB7DEB767970FB6F894DEBF0FBECDBF96
:104CC0006D8B7E8B8F8B8E899F89892BE1F0852F51
:104CD00084238F3F09F098C05FEF4FEF14C03091ED
:104CE0004C05332309F44EC0E42FF0E036E0539F27
:104CF000E00DF11D1124EE0FFF1FE451FE4F408126
:104D00005181822B8C931A8A198A4B8B5C8B85E09C
:104D1000FE017396DE011D9601900D928A95E1F7D2
:104D200086E0FE013D96DE01179601900D928A9570
:104D3000E1F7CE0107960E949C24811112C086E003
:104D4000FE013796DE01119601900D928A95E1F7EA
:104D50008A859B85892B29F08F81988589238F3FB0
:104D6000C9F516E08091840590915305891320C000
:104D700067960FB6F894DEBF0FBECDBFDF91CF911F
:104D80001F91089580958223BDCF96E0929FD00118
:104D9000939FB00D1124AC5ABA4FFE013196019089
:104DA0000D929A95E1F7809353050E941008D9CF90
:104DB000819FC00111248C5A9A4F0E949C24882301
:104DC000B9F28091840590E00196877099278093CD
:104DD0008405C8CF2091530530E0C9010196877042
:104DE0009927409184054817190679F60E949A166A
:104DF000109253051092840586E0EDE4F5E0DF01A2
:104E00001D928A95E9F7ADCF81E090E0042E01C0B4
:104E1000880F0A94EAF7A52FB0E0AC5CBA4F2C914A
:104E20003D8931115CCF322F38235BCF8F929F9217
:104E3000AF92BF92CF92DF92EF92FF920F931F93A8
:104E4000CF93DF9380910C0190910D01892BA1F0FC
:104E50008091D0038F5F8093D00381110DC00E9499
:104E6000AE1490E090930D0180930C01892B21F4F6
:104E70000E9492140E948E1168EDE62E65E0F62ED7
:104E80006701C0E010E007E00C0F8C2F0E94251591
:104E9000802F0E9425158C2F0E947915F601919183
:104EA0006F01D0E0891719F031978083D1E0802F0E
:104EB0000E947915F6019681891709F464C08683EA
:104EC00081E08D2B182B0E94AE10CF5FC730D9F632
:104ED0000E94EB156AEF70E00E94AD2DB82FA091F3
:104EE000CB03AA2309F463C21092CB03E091CE0551
:104EF000F091CF054F012EE0820E911C40E00BEFA8
:104F00005AEFC52ED12C51915B3F81F0652F70E097
:104F10002B2F392F8517C8F1261B370B2E31310562
:104F2000D4F19F0121503109E9010883E815F90501
:104F300051F74093CB03111102C041113AC21092B4
:104F4000CA03A091CE05B091CF052091CB03EBEE23
:104F5000F5E049EF55E090E06191E70139917E017C
:104F6000631741F06C916B3FC1F48C93EF01219773
:104F7000388321E011964E175F0771F72093CB031A
:104F80009093CA031AC280E09CCFE601C61BD70BE0
:104F90002C0F3D1FC3CF4A2FC9CF91E0EBCF019714
:104FA000A109B10923C2840F951FA61FB71F54C2C0
:104FB000109219018092420690924306A0924406F4
:104FC000B092450681E080930B01F1106FC2809191
:104FD000D40583FD6BC26091BC057091BD058091C5
:104FE000BE059091BF050E94C206813009F4D9C167
:104FF000882309F4D1C1823009F4D6C180911A0105
:10500000811154C240E060E00E94D3084FC28091F9
:105010000701081316C090914A069370209106016B
:1050200030E081E09217130609F480E081708093EC
:105030001B01063110F5E02FF0E0EF5EFB4C0C9405
:10504000D52D81E0F3CF882309F443C08091190165
:10505000C82FCC0FCC0FC80F35E0E32EEC0EDE2CA2
:10506000E0E3EE1510F420E3D22ED0E0CD1538F0B9
:1050700081E09FE2A92EAE1460F580E02AC020E016
:1050800040E060E0CE010E94D5082196EFCF8091EC
:105090001901C82FCC0FCC0FC80FD5E0ED2EEC0EA8
:1050A000DE2C80E3B82EBE1410F4B0E3DB2E60914A
:1050B0004B0670914C0680914D060E94440BC62E03
:1050C000B72EA82ED0E0CD15C0F081E03FE23E150E
:1050D000A0F2909119019F5F909319018111DFC196
:1050E00082E080930B0180911B018111D8C10111D5
:1050F000D6C183E080930B01D2C1FE01E758FC4F7B
:10510000808190911A01892331F02A2D4C2D6B2D2D
:10511000CE010E94D5082196D6CF80911901C82FC3
:10512000CC0FCC0FC80FA5E0EA2EEC0ECE2C80E3FE
:105130008E1510F4F0E3CF2EB0904C06A0904D06E3
:1051400020914E06E0E4DE2E3D2D329F312D1124BC
:10515000D32ED0E0CC1530F081E09FE29E1508F010
:10516000B8CF8BCFFE01E758FC4F808190911A0198
:105170008923B9F0FE01EE0FFF1FE65EFC4F808130
:1051800082958F7060914B068D9D600D11247B2D53
:105190008A2D0E94440B462F282F672FCE010E9494
:1051A000D5082196D7CF80911901C82FCC0FCC0FED
:1051B000C80F65E0E62EEC0ECE2CD0E3DE1510F421
:1051C00050E3C52EB0904C06A0904D0620914E069F
:1051D00040E4D42E3D2D329F312D1124D32ED0E02A
:1051E000CC1508F0B9CFFE01E758FC4F80819091B3
:1051F0001A018923D9F0FE01EE0FFF1FE75EFC4F75
:105200006081D69EB001112435E0759567953A9579
:10521000E1F780914B06680F7B2D8A2D0E94440B8D
:10522000462F282F672FCE010E94D5082196D8CF70
:1052300080911901C82FCC0FCC0FC80F95E0E92E33
:10524000EC0EDE2CD0E3DE1510F480E3D82EC090F7
:105250004B06D0914C06B0904D0660914E06669577
:105260006695669580914206909143060E943A0B9E
:105270000E94C30A805887FD8195880F282F3B2DF7
:10528000239F212D1124822F6C2D7D2F0E94440BF2
:10529000C62EB72EA82ED0E0CD1508F05DCFFE01AA
:1052A000E758FC4F808190911A01892331F02A2D13
:1052B0004C2D6B2DCE010E94D5082196EDCF8EECA2
:1052C00099E00E94110D05CF84EA99E0FACF85EAB2
:1052D0009AE00E94B50CFDCE86E89AE0FACF8BE604
:1052E0009AE00E94380CF5CE8FE49AE0FACF82EA79
:1052F00099E0E7CF89E999E0E4CF80E999E0E1CF4F
:1053000087E799E0DECF89E699E0EBCF82E19BE089
:10531000E0CF8EE39AE0DDCF8AE29AE0E2CF8CE341
:1053200099E00E94D60BD5CE8EE099E0FACF87EDBA
:1053300098E0F7CF0093070180914A06837080932D
:1053400006010E94A712D5CE409142065091430615
:1053500060914406709145062FB7F8948091C90575
:105360009091CA05A091CB05B091CC052FBF8417B1
:105370009507A607B70760F0841B950BA60BB70B24
:105380004A97A105B10508F48AC010920B0187C0A5
:105390000197A109B109F0CF90E080E00E94E80FE9
:1053A00085C081E090E0FACF82E090E0F7CF111164
:1053B000C6CD9091CA039111C2CD4091CC035091BA
:1053C000CD036091CE037091CF032FB7F8948091F5
:1053D000C9059091CA05A091CB05B091CC052FBF0E
:1053E00084179507A607B70708F4D9CD841B950B3A
:1053F000A60BB70B2FB7F8948090C9059090CA05FB
:10540000A090CB05B090CC052FBF8092CC0390929A
:10541000CD03A092CE03B092CF03409146065091A7
:10542000470660914806709149064F3FDFEF5D07E0
:105430006D077D07C9F0AA27BB276C017D01C094C9
:10544000D094E094F094C416D506E606F70608F06A
:10545000AACD8FEF9FEFDC0180934606909347061D
:10546000A0934806B0934906F090130600E0F110AF
:1054700008C080914A06082F037019F0082F06957E
:10548000069580910B01813009F4C1CD882309F480
:105490008FCD823009F44ECF833009F455CFF1100F
:1054A00005C080911306882309F491CD812FDF91E7
:1054B000CF911F910F91FF90EF90DF90CF90BF9011
:1054C000AF909F908F900895CDB7DEB72A970FB613
:1054D000F894DEBF0FBECDBF84B7877F84BF0FB601
:1054E000F894A89580916000886180936000109284
:1054F00060000FBE80E890E00FB6F89480936100E2
:10550000909361000FBE85B7806885BF85B78068BE
:1055100085BF0E94D6030E94A1048091E2008460AE
:105520008093E2007894809138068823A1F010914E
:10553000E9001F709091EC00892F817090FD80E848
:10554000182B1092E9008091E80083FD0E94AF16AD
:105550001F701093E90082E084BD93E095BD9AEF3F
:1055600097BD80936E000E94AE1490E090930D0161
:1055700080930C010E94AE100E94BD10A8EDB5E012
:10558000EBEEF5E011921D9225E0E93FF207D1F72D
:105590008EE090E00E9406308093CE059093CF0578
:1055A000FC010E962BEF2193E817F907E1F790E045
:1055B00080E00E94302E8F3E9E4F11F00E940E120E
:1055C0000E9492148CE090E00E94222E90E0B0E0C5
:1055D000A0E08093D0059093D105A093D205B0931D
:1055E000D30589EA8093800089E080938100249824
:1055F0002C983F988AB18F7C8AB96E98479A8BB164
:1056000080638BB9769A8FE090E00E942A2E609397
:10561000D4057093D5058093D6059093D705677010
:105620008FEF869FB00111247595679575956795E5
:105630007727709389006093880070938B00609344
:105640008A0070938D0060938C009091D40594FF34
:1056500099C080931A010E948E1190E080E00E9410
:10566000302E8F3E9E4F11F00E940E1282E090E08D
:105670000E94222E809303060E94C4109093E70597
:105680008093E60583E090E00E94222E682F70E070
:1056900090E080E00E9490160E94C6080E94C60812
:1056A0000E94F3138EE091E09093E9058093E80562
:1056B000DD24D394CC24CA9480E1B82E92E1A92EA3
:1056C00028E1E22EF12C30E4932E809138068530CB
:1056D00009F45BC00E941627E4E0F6E0ABEEB5E00B
:1056E00010E000E0302F8D912191281709F49EC021
:1056F00090E0882483942827422F482109F491C000
:1057000099833A83882191E009F490E09B830E9479
:10571000EB158160782F9D838C8349815A816B8141
:105720008D810E945526F801EC5FF94F8081882613
:10573000808280910006909101060E9498069C014B
:105740009091FF05992319F02431310578F02091CB
:10575000FB058090FC050091FD051091FE052111CF
:105760007BC0882D802B812B09F0ECC00E94700833
:1057700090910206891709F4A8CF0E9470088093BF
:105780000206A3CF10921A0166CF0E945C1080918E
:105790003806843019F11092EA050FB6F894A895EE
:1057A000E09260000FBE909260000E945C1083B790
:1057B000817F846083BF83B7816083BF789488953D
:1057C00083B78E7F83BF0FB6F894A8958091600051
:1057D000886180936000109260000FBE8091370650
:1057E000882309F472CF0E94AE1490E090930D01CB
:1057F00080930C010E94AE100E94BD10EBEEF5E00C
:10580000119245E0E93FF407D9F70E941627EBEE25
:10581000F5E08191811182C085E0E93FF807C9F781
:1058200054CF9F5F880C963009F066CF0F5F1F4FF3
:105830000E30110509F056CFCE82CF8218860E9415
:10584000EB158160782F9A8789874E815F81688503
:105850008A850E9455266DCF9F3F19F09F5F9093D8
:10586000FF05121624F40E940C068093FB0580911C
:10587000FB0587FF05C00E940C0681958093FB0500
:10588000181424F40E940C068093FC058091FC05FA
:1058900087FF05C00E940C0681958093FC0530911E
:1058A000FB053323A1F02091FC05222381F045EB79
:1058B0003403C0011124992359F19093FB0545EB62
:1058C000240390011124332331F13093FC05101689
:1058D00024F40E94EA058093FD058091FD0587FF71
:1058E00005C00E94EA0581958093FD05111624F4F8
:1058F0000E94EA058093FE058091FE0587FF05C0A2
:105900000E94EA0581958093FE050E94F7152ECF2F
:10591000D092FB05D4CFD092FC05D9CFB9BCA9BC9D
:1059200009B400FEFDCF8091D8008F7D8093D80010
:105930008091E00082608093E0008091E00081FD32
:10594000FCCFC3CE9F3F09F089CF9ACF1F921FB6DD
:105950001F9211248F939F93AF93BF938091EA0579
:10596000811113C08091C9059091CA05A091CB0502
:10597000B091CC054196A11DB11D8093C9059093AE
:10598000CA05A093CB05B093CC05BF91AF919F9171
:105990008F911F901FBE1F9018951092B9008CE038
:1059A0008093B8000895EF92FF920F931F93CF93C7
:1059B000DF93182FEB011092BC0084EA8093BC00A7
:1059C0000E94EB157C018091BC0087FF27C080916D
:1059D000B900887F883029F08091B900887F8031B4
:1059E000D9F51093BB0084E88093BC000E94EB15AE
:1059F0008C018091BC0087FF24C02091B900287FD2
:105A000090E080E02831B1F081E090E0203411F4A2
:105A100090E080E09195819591090CC0CF3FDC0723
:105A200091F20E94EB158E199F098C179D0758F271
:105A30008EEF9FEFDF91CF911F910F91FF90EF902D
:105A40000895CF3FDC07A9F20E94EB15801B910B54
:105A50008C179D0770F2ECCF8FEF9FEFEBCF0F937A
:105A60001F93CF93DF93EB018093BB0084E8809377
:105A7000BC000E94EB158C018091BC0087FF11C017
:105A80002091B900287F81E090E0283211F490E065
:105A900080E0919581959109DF91CF911F910F91B0
:105AA0000895CF3FDC0741F30E94EB15801B910B5B
:105AB0008C179D0708F38EEF9FEFEECF0F931F9388
:105AC000CF93DF93EC0184E88093BC000E94EB1538
:105AD0008C018091BC0087FF08C08091BB0090E0E2
