:100000000C9432030C944F030C944F030C944F0345
:100010000C944F030C944F030C944F030C944F0318
:100020000C944F030C944F030C9455190C94111914
:100030000C94C32C0C944F030C944F030C944F035B
:100040000C944F030C944F030C944F030C944F03E8
:100050000C944F030C9451150C944F030C944F03C4
:100060000C944F030C944F030C944F030C944F03C8
:100070000C944F030C944F030C944F030C944F03B8
:100080000C944F030C944F030C944F030C944F03A8
:100090000C944F030C944F030C944F030C944F0398
:1000A0000C944F030C944F030C944F038C87FA8CE1
:1000B00087FA8C87FA8C87FA8C87FA8C87FA8C8778
:1000C000FA8C87FA8C87FA8C87FA8C87FA8C87FAF5
:1000D0008C87FA8C87FA8C87FA8C87FA8C87FA8C53
:1000E00087FA8C87FA8C87FA8C87FA8C87FA8C8748
:1000F000FA8C87FA8C87FA8C87FA8C87FA8C87FAC5
:100100008C87FA8C87FA8C87FA8C87FA8C87FA8C22
:1001100087FA8C87FA8C87FA8C87FA8C87FA8C8717
:10012000FA8C87FA8C87FA8C87FA8C87FA8C87FA94
:100130008C87FA8C87FA8C87FA8C87FACA84F8CA7B
:1001400084F8CA84F8CA84F8CA84F8CA84F8CA84CD
:10015000F8CA84F8CA84F8CA84F8CA84F8CA84F849
:10016000CA84F8CA84F8CA84F8CA84F8CA84F8CA67
:1001700084F8CA84F8CA84F8CA84F8CA84F8CA849D
:10018000F8CA84F8CA84F8CA84F8CA84F8CA84F819
:10019000CA84F8CA84F8CA84F8CA84F8CA84F8CA37
:1001A00084F8CA84F8CA84F8CA84F8CA84F8CA846D
:1001B000F8CA84F8CA84F8CA84F8CA84F8CA84F8E9
:1001C000CA84F8CA84F8CA84F8CA84F80001010114
:1001D0000101010101010202020202020202020304
:1001E00003030303030303040404040404040505D4
:1001F0000505050606060606070707070708080897
:1002000008090909090A0A0A0B0B0B0C0C0C0D0D45
:100210000D0E0E0E0F0F0F101011111112121313DD
:100220001414151516161717181819191A1A1B1B56
:100230001C1D1D1E1E1F20202122222324242526B2
:1002400026272829292A2B2C2D2D2E2F30313232EA
:10025000333435363738393A3B3C3D3E3F404142F6
:10026000434445464748494A4C4D4E4F50515354DC
:10027000555658595A5B5D5E5F6162646566686990
:100280006B6C6D6F7072737577787A7B7D7E808210
:10029000838587888A8C8E8F91939596989A9C9E59
:1002A000A0A2A3A5A7A9ABADAFB1B3B5B7BABCBE69
:1002B000C0C2C4C6C9CBCDCFD1D4D6D8DBDDDFE236
:1002C000E4E7E9EBEEF0F3F5F8FAFDFF00000000DB
:1002D000000000000000000000000000000000001E
:1002E0007E0F00D4FFFFFFC7000000780000000071
:1002F000000000002A2B2800000000000000000081
:100300000000000000000029000000002C1E342026
:10031000212224342627252E362D3738271E1F204C
:100320002122232425263333362E37381F04050691
:100330000708090A0B0C0D0E0F10111213141516D5
:100340001718191A1B1C1D2F3130232D35040506D3
:100350000708090A0B0C0D0E0F10111213141516B5
:100360001718191A1B1C1D2F3130354C2B042F0068
:1003700026020151310000001E00140004001D007F
:100380002F004C001F001A0016001B0030002A002E
:10039000200008000700060035002C002100150091
:1003A000090019003400B900220017000A000500F6
:1003B00000004A000062006400002B61000025027A
:1003C0000072007400002B710000130123001C0058
:1003D0000B00110000004D00240018000D0010005B
:1003E0005000000725000C000E00360051002800C8
:1003F000260012000F0037005200290027001300CA
:10040000330038004F0046033504300027022D002A
:100410002E000000010001000100010001000000A9
:100420003A00010001000100010001003B00010051
:1004300001000100010001003C000100E300010097
:10044000010001003D000100E00001000100010089
:100450003E00010001000100000001000100010058
:100460000000010000000100010001000000010087
:10047000000001003F00FB005000F20000000100FE
:100480004000FA005100F100010001004100F900B4
:100490005200F0000100F4004200FC004F00F300A5
:1004A0000100F50043000100F60001000100010019
:1004B0004400450001000100005C00000501090244
:1004C000A10185020901A1000509190129051500ED
:1004D00025019505750181029501750381010501CD
:1004E000093009311581257F950275088106093883
:1004F0001581257F950175088106050C0A380215BE
:1005000081257F950175088106C0C005010980A17C
:1005100001850319012AB700150126B70095017559
:10052000108100C0050C0901A101850419012AA050
:1005300002150126A002950175108100C005010970
:1005400006A1018505050719E029E7150025019594
:1005500008750181020507190029EF15002501958D
:10056000F0750181020508190129059505750191AC
:1005700002950175039101C005010906A101050756
:1005800019E029E7150025019508750181029501FB
:10059000750881010507190029FF150026FF009540
:1005A0000675088100050819012905950575019151
:1005B00002950175039101C009023B00020100A0F0
:1005C000FA090400000103010100092111010001E1
:1005D0002240000705810308000A09040100010305
:1005E00000000009211101000122BC00070582035F
:1005F00020000A120110010000000897327649011C
:1006000000010203010403300000002003450072D2
:100610000067006F0044006F007800200045005A1A
:1006200000200047006C006F007700000030035A84
:100630000053004100200054006500630068006E14
:10064000006F006C006F006700790020004C0061B3
:100650000062007300200049006E00630000000487
:100660000309040011241FBECFEFDAE0DEBFCDBFC7
:1006700026E0AEEAB3E001C01D92A835B207E1F76B
:1006800013E0A0E0B1E0EAE1FAE602C005900D92C5
:10069000AE3AB107D9F70E94112A0C94AC340C94ED
:1006A0000000E8EDF0E080818E7F80831092E20010
:1006B0001092DA001092E100A0EEB0E08C9181601F
:1006C0008C9380818F77808319BCA7EDB0E08C91EB
:1006D0008E7F8C9380818F7E808310921B0608957D
:1006E0002091E4003091E50095E6A9012091EC000D
:1006F000822F817020FF06C08091E80080FF06C035
:1007000080E008952091E80022FD1AC08091410602
:10071000882389F0853089F08091EB0085FD0FC03A
:100720002091E4003091E50042175307F9F291500F
:10073000E1F684E0089582E0089583E0089581E081
:100740000895EF92FF920F931F93CF937C018B013B
:100750000E947003C82F811117C08091E80085FDA9
:100760000BC08091E8008E778093E8000E947003B0
:10077000882399F3C82F08C0F70181917F018093E6
:10078000F1000150110949F78C2FCF911F910F9162
:10079000FF90EF9008958091430687FF13C08091EA
:1007A000E80082FF06C08091E8008B778093E80024
:1007B00004C0809141068111F2CF089580914106D5
:1007C0008823D9F38091E80080FFF8CF8091E8007A
:1007D0008E77ECCF982F9093E900242F762F50E05E
:1007E000891731F07091EC002091ED005091F000EC
:1007F00021FD07C09F5F973071F78093E90081E08A
:1008000008953091EB003E7F3093EB003091ED0086
:100810003D7F3093ED003091EB0031603093EB0081
:100820007093EC002093ED005093F0002091EE00C7
:1008300027FDE0CF80E00895CF92DF92EF92FF9204
:100840000F931F93CF93DF93C8EDD0E088818F7E05
:100850008883E7EDF0E080818160808384E082BF5F
:1008600081E080931B0688818E7F888302EE10E0F2
:10087000F80110821092DA0081EEC82ED12CF60118
:10088000108288818F7788838881806888838881B7
:100890008F7D888319BC10924106109242061092F7
:1008A000400610923F0690EEE92EF12CF701808170
:1008B0008B7F808388818160888342E060E080E074
:1008C0000E94EA03F60180818E7F8083F801808197
:1008D00081608083808188608083F70180818E7F42
:1008E0008083888180618883DF91CF911F910F91F0
:1008F000FF90EF90DF90CF900895FC018091490622
:1009000090914A0686179707A0F06115710529F4A2
:100910009091E8009E779093E80090E06115710552
:1009200051F4911108C08091E80082FF34C080E04A
:100930000895BC01F2CF809141068823C1F1853032
:10094000C1F18091E80083FD30C08091E80082FD14
:10095000EACF8091E80080FFE1CF8091F300209101
:10096000F200382F6115710519F02830310558F063
:1009700091E02830310509F090E02091E8002E77D1
:100980002093E800CBCF81918093F10061507109F1
:100990002F5F3F4FE7CF80914106882341F085309C
:1009A00041F08091E80083FFBECF81E0089582E0AE
:1009B000089583E0089580911E060895909107069A
:1009C000803F59F48091080687FF0DC010920806F9
:1009D00091110BC01092020608C0813F81F48091F2
:1009E000080618169CF3992381F0809109069091CE
:1009F0000A06892B09F064C01092FF050895823F12
:100A000049F497FFF0CF10920706809108068111F4
:100A1000ECCFE0CF833F19F41916ACF3E4CF20916B
:100A20000906893F29F41216F4F610920906DBCF65
:100A30008A3F19F427FFD7CFF8CF20910A068B3FC2
:100A400029F427FFD0CF10920A06CDCF8C3F19F49E
:100A50001216CCF3C8CF843F31F4809106068E7F06
:100A600080930606C0CF853F21F4809106068D7FD6
:100A7000F7CF863F21F4809106068B7FF1CF873F29
:100A800021F480910606877FEBCF883F21F4809187
:100A900006068F7EE5CF8D3F31F48091CF058E7FA6
:100AA0008093CF05A0CF8E3F21F48091CF058D7F1D
:100AB000F7CF8F3F09F097CF8091CF058B7FF0CF95
:100AC00008958091CF0580FD1AC081FD14C082FD7C
:100AD00014C08091FF05882391F08C3370F427E0D7
:100AE000829FC00111246CE370E00E94DE2D862FEE
:100AF000672B29F0089583E0089587E0089581E049
:100B000008958091CF0580FD16C081FD16C082FD3D
:100B100018C080910206882391F08C3390F423E270
:100B2000829FC00111246CE370E00E94DE2D862FAD
:100B3000672B49F0089588E0089581E1089585E0E4
:100B4000089583E2089581E00895803F31F40E9482
:100B500081058195809308060895813F19F40E94CC
:100B60008105F8CF823F31F40E9481058195809301
:100B700007060895833F19F40E948105F8CF893F45
:100B800029F40E9461058093090608958A3F21F4A3
:100B90000E9461058195F7CF8B3F31F40E9461057A
:100BA000819580930A0608958C3F19F40E9461058F
:100BB000F8CF843F31F48091060681608093060669
:100BC0000895853F21F4809106068260F7CF863F25
:100BD00021F4809106068460F1CF873F21F4809153
:100BE00006068860EBCF883F21F48091060680617D
:100BF000E5CF8D3F31F48091CF0581608093CF05A3
:100C000008958E3F21F48091CF058260F7CF8F3F0A
:100C1000B9F78091CF058460F1CF9C014FB7F8946C
:100C20008091CB059091CC05A091CD05B091CE05DA
:100C30004FBF821B930B089520911B012223C9F003
:100C40002091EC0527FF15C0E62FE695E695E69581
:100C5000EE31D8F4E80FF92FF11D677021E030E094
:100C600001C0220F6A95EAF720958281282322830A
:100C70000895FC01329608962191621303C0DF01AA
:100C800011971C92E817F907B9F7089520911B01F5
:100C90002223C1F02091EC0527FF14C0E62FE69532
:100CA000E695E695EE31F8F4E80FF92FF11D67703F
:100CB00021E030E001C0220F6A95EAF78281822BA1
:100CC00082830895FC0132962FEF30E04191641742
:100CD00051F02F3F19F4411101C0232F3F5F3630EF
:100CE000A9F72F3F09F40895820F911D27FD9A95CA
:100CF000FC0162830895CF92DF92EF92FF926C0124
:100D0000EE24FF2420E0C114D104E104F10419F021
:100D1000C701B60120E1C72ED82EE92EFF24C11449
:100D2000D104E104F10419F0285FC701B6016B0199
:100D30007C0154E0F694E794D794C7945A95D1F780
:100D4000C114D104E104F10419F02C5FC701B6010C
:100D50006B017C0142E0F694E794D794C7944A95DE
:100D6000D1F7C114D104E104F10419F02E5FC701D9
:100D7000B6019695879577956795672B682B692BB4
:100D800009F02F5F822FFF90EF90DF90CF900895B2
:100D90008091C60581111092C60508958091C50500
:100DA0009091C405892B9091C305892B8093AE0344
:100DB0009091C6059923A1F0892B8093AE03809171
:100DC0001B01882341F18091EC0587FF24C08EE14F
:100DD000E0EBF3E090E0815000F591110E94C8062D
:100DE000E091EE05F091EF053097E1F080911B0165
:100DF000882359F08091EC0587FF07C08091AE03EE
:100E00008093AF0385E08093AE030280F381E02DF1
:100E10008EEA93E0099486E0DBCF21912223D9F278
:100E20009F5FD9CF0895E92FEE0FE90FEE0F8E0FD8
:100E3000982F977086958695869525E0829FF0017C
:100E40001124E557FA4F50E040E080E0219130E076
:100E5000092E02C0369527950A94E2F721703327B0
:100E6000042E01C0220F0A94EAF7822B4F5F5F4FD6
:100E70004530510559F70895E92FEE0FE90FEE0FB0
:100E80008E0F982F977041E001C0440F9A95EAF7B2
:100E900086958695869595E0899FF0011124E55702
:100EA000FA4F30E020E070E05191DF011197CB0163
:100EB000022E02C0969587950A94E2F7817081957B
:100EC0008527842385278C932F5F3F4F253031055D
:100ED00059F7089580918A0590915905981301C09A
:100EE00008958F5F8770FACF882341F080959091A5
:100EF000C40589238093C4050C94CE0608958823E5
:100F000039F09091C405982B9093C4050C94CE06AB
:100F10000895882341F080959091C5058923809399
:100F2000C5050C94CE060895882339F09091C50527
:100F3000982B9093C5050C94CE0608952091390501
:100F400030913A052817390771F090933A0580934C
:100F50003905E091EE05F091EF05309721F000841E
:100F6000F185E02D099408952091370530913805D9
:100F70002817390771F09093380580933705E09171
:100F8000EE05F091EF05309721F00680F781E02D16
:100F900009940895E091EE05F091EF05309721F066
:100FA0000190F081E02D099480E00895FA0181110B
:100FB00001C0FB0109948033910538F5880F991F12
:100FC000880F991FFC01E05DFE4F528133818081C3
:100FD0008370E181A82FB0E070E9879FC0011124E0
:100FE00081519C4FE80FF92FF11DB4976083FC01EC
:100FF000E50FF11DB4974083830F911DFC01B49759
:101000002083A351BC4F81E08C930895FF920F93EE
:101010001F93CF93DF93182F062FF42ED0E0C0E05C
:101020002F2D402F612FCE010E94DB072196C03368
:10103000D105B1F7DF91CF911F910F91FF900895E6
:1010400080914F06837011F410921F0180914F061A
:101050008C7F816080934F0608950C9406080C9451
:10106000DB070F931F9310E0F801EE0FFF1FE35E05
:10107000FC4F9081905797FD9195000F111FF8013B
:10108000E25EFC4F00810052110B2003F001219F12
:10109000F00D112408E310E0091B110997FD1395C9
:1010A00040039001419F300D1124E20FF31F9F0177
:1010B000220F331F2E0F3F1F37FF02C021583F4F13
:1010C000220F232F221F330B620F1F910F910895C0
:1010D0000F931F93522F10E0F801EE0FFF1FE25EF7
:1010E000FC4FA081A052BB0B9D015203F001539F06
:1010F000F00D1124000F111FD801A35EBC4F0C91FD
:101100000057110B40039001419F300D11242E0F09
:101110003F1F37FF02C0215C3F4F96E03595279572
:101120009A95E1F7620F1F910F9108950F931F9306
:10113000522F10E0F801EE0FFF1FE25EFC4FA0817E
:10114000A052BB0B9D015203F001539FF00D1124DF
:10115000000F111FD801A35EBC4F0C910057110B5B
:1011600040039001419F300D11242E0F3F1F37FF88
:1011700002C021583F4F220F232F221F330B620F33
:101180001F910F910895EF920F93972F23E0029FE5
:10119000B0011124759567956E0D792F0F91EF9021
:1011A0000895322F50E0FA01EE0FFF1FE25EFC4F70
:1011B0009081905297FD9195440F551FFA01E35E7F
:1011C000FC4F2081231B330B290F311D97FD3A95CE
:1011D000620F0895E42FF0E0EE0FFF1FE25EFC4F78
:1011E0006081621B0895E42FF0E0EE0FFF1FE35EC5
:1011F000FC4F6081621B0895622F0895E42FF0E098
:10120000EE0FFF1FE35EFC4F408134EE439F412D04
:101210001124E82FF0E050E0445E5F4FDA01A21B9A
:10122000B1099D01B7FF03C031952195310993E0C4
:10123000220F331F9A95E1F7AF01421B530B9A011E
:1012400057FD20E0582F259F212D1124822F08952E
:10125000E42FF0E0EE0FFF1FE35EFC4F408134EE21
:10126000439F412D1124E72FF0E050E0445E5F4F93
:10127000DA01A21BB1099D01B7FF03C03195219589
:10128000310993E0220F331F9A95E1F7AF01421B1A
:10129000530B9A0157FD20E0279F212D1124722F17
:1012A0000895FC019B01009729F480E077FF2BC093
:1012B00080E80895AC0197FF04C044275527481BD8
:1012C000590BB901640F751F37FD10C0241B350B76
:1012D000C901A5E0880F991FAA95E1F70E94DE2DAC
:1012E00080E2861BF7FF0FC081950895CB0165E072
:1012F000880F991F6A95E1F7BA01621B730B0E9470
:10130000DE2D80E6EECF0895EF920F93CF93DF931B
:10131000D72FC82FC9010E19BA010E945109602F99
:10132000681B7D2F8C2FDF91CF910F91EF90089547
:101330000F93CF93DF93D72FC82FC901BA010E9413
:101340005109682F600F7D2F8C2FDF91CF910F9166
:101350000895EF920F931F93CF93DF93D62FC72F4C
:10136000182FC9010E19010FBA010E945109081B5B
:10137000202F219F212D1124822F6D2F7C2FDF9173
:10138000CF911F910F91EF900895EF920F931F93BC
:10139000CF93DF93D62F172FC82FC9010E19070F30
:1013A000BA010E945109702F781B719F712D112471
:1013B0006D2F8C2FDF91CF911F910F91EF9008959A
:1013C0000F931F93CF93DF93D62FC72F182FC901E9
:1013D000212F201B022FBA010E945109982F990F2B
:1013E000990F891B800F282F219F212D1124822FD7
:1013F0006D2F7C2FDF91CF911F910F9108950F9347
:101400001F93CF93DF93D62F172FC82FC901272FF4
:10141000201B022FBA010E945109982F990F990F92
:10142000782F791B700F719F712D11246D2F8C2FC8
:10143000DF91CF911F910F910895E82F86FDE095E0
:101440002E2F2F7086FD2F5FE695E695E695E670C8
:10145000F0E0E85DFE4F9181929F902D212D1124A7
:1014600092959F702295207F922B2081920F87FD6D
:10147000919580E8890F0895AC018230910508F4B8
:1014800008959FEF413E8EE1580740F49A0195E0A0
:10149000369527959A95E1F798E0920F61E0E62F4F
:1014A000E90FFF27FF1F9F0135952795822F229F68
:1014B000F001239FF00DF00D11244E175F0738F453
:1014C0009FEF920F961758F78FEF860F08952F3FD3
:1014D000E9F361E0620FF6CF0F93CF93DF93D72F3D
:1014E000C82F47FD419588E390E0841B910947FD93
:1014F0009395889FB001899F700D700D1124229FD4
:10150000C001239F900D900D1124860F971F0E94FC
:101510003C0A982F990F890F682F600F7D2F8C2F11
:10152000DF91CF910F91089530E020E0869F212D2B
:10153000969F200D311D1124C9010895AF92BF92CD
:10154000CF92DF92FF920F931F93CF93DF93362FAB
:10155000472FE82FF0E0E453FE4F71110FC0E491E4
:101560008E2F2E2F6E2F722FDF91CF911F910F9103
:10157000FF90DF90CF90BF90AF900895C72FD0E03D
:101580002491F22E022F10E056E0659FC001112435
:10159000EFEFF0E0BF010E94CA2D832F90E0880F8B
:1015A000991F35E5369FD001379FB00D11248A1B56
:1015B0009B0B982F990F980F6F01CC1ADD0AC09ED4
:1015C000D001C19EB00DD09EB00D11248B2F499F2C
:1015D000A0011124452F55276F01C41AD50AC09EBA
:1015E000A001C19E500DD09E500D11245F01A91A7B
:1015F000B108AC9E6001AD9ED00CBC9ED00C1124F5
:10160000CD2CDD24EC19FD09E09FE001E19FD00D18
:10161000F09FD00D1124ED2F62307105A1F050F430
:101620006115710509F49ECF6130710581F0EB2FD2
:10163000852F98CF6430710569F080F066307105B0
:1016400009F490CFF4CFE22F2B2F8D2F8BCFE22FE9
:10165000252F88CFEB2F822F2D2F84CF2B2F8F2D4F
:10166000E52F80CF9F92AF92BF92CF92DF92EF9201
:10167000FF920F931F93CF93DF936C0180911C0116
:10168000C82FCC0FCC0FC80F15E01C0FB12E113393
:1016900010F030E3B32E6091530666956695809105
:1016A0004B0690914C060E94940AF82E80E48F0D10
:1016B0000E941D0A90E8A92EA80E8F2D0E941D0AD7
:1016C00020E8922E980ED0E0CB1580F081E0103308
:1016D00008F080E0DF91CF911F910F91FF90EF9084
:1016E000DF90CF90BF90AF909F900895FE01E35898
:1016F000FC4F808190911D018923A1F060915006DB
:101700007091510680915206EF2C0C2F292D4A2DF5
:10171000F60109950E949E0A462F282F672FCE01B9
:101720000E942F082196D0CF7F928F929F92AF92E6
:10173000BF92CF92DF92EF92FF920F931F93CF93BE
:10174000DF935C0180911C01C82FCC0FCC0FC80F18
:1017500015E01C0FF12E113310F030E3F32E6091E1
:101760005306669580914B0690914C060E94940A10
:10177000782ED0E0CF1590F081E0103308F080E0B3
:10178000DF91CF911F910F91FF90EF90DF90CF905D
:10179000BF90AF909F908F907F900895FE01E35887
:1017A000FC4F808190911D018923C9F1CE01880FE2
:1017B000991F87539D4FFC01EC5AFF4F2081422F08
:1017C0004057550B6A018B5A9F4FFC018081282F8F
:1017D0002052330B4901449F9001459F300D300D3D
:1017E0001124889CC001899C900D900D1124820FBA
:1017F000931F0E943C0A082F609150067091510679
:1018000080915206E72C9401A601F50109950E94EA
:101810009E0A462F282F672FCE010E942F0821965F
:10182000A9CFCF92DF92EF92FF920F931F93CF93A6
:10183000DF937C0180911C01C82FCC0FCC0FC80F07
:1018400015E01C0FD12E113310F030E3D32E609130
:101850005306669580914B0690914C060E94940A1F
:10186000C82ED0E0CD1568F081E0103308F080E09C
:10187000DF91CF911F910F91FF90EF90DF90CF906C
:101880000895FE01E358FC4F808190911D0189234A
:1018900011F1CE01880F991F87539D4FFC01EB5A20
:1018A000FF4F20812052330B8C5A9F4FFC01408107
:1018B0004057550B60915006709151068091520629
:1018C0000C2DF70109950E949E0A462F282F672F9D
:1018D000CE010E942F082196C5CFDF92EF92FF9292
:1018E0000F931F93CF93DF937C0180911C01C82F2E
:1018F000CC0FCC0FC80F15E01C0F012F113308F0CF
:1019000000E3609153066695669580914B06909131
:101910004C060E94940AD82ED0E0C01760F081E0F7
:10192000103308F080E0DF91CF911F910F91FF906D
:10193000EF90DF900895FE01E358FC4F8081909175
:101940001D01892391F0609150067091510680919C
:1019500052062D2D4C2FF70109950E949E0A462F05
:10196000282F672FCE010E942F082196D6CF909165
:10197000EC0592FF06C0282F28712830F9F4877FE4
:10198000846093FF06C0282F28712831F1F4877EE8
:1019900084612091ED0520FF06C0382F3871383062
:1019A000D9F4877F816021FF06C0282F2871283154
:1019B000D1F4877E816194FD877E0895282F24715C
:1019C0002430F9F68B7F8860DCCF282F24712431F6
:1019D00001F78B7E8861DDCF382F3171313019F7F7
:1019E0008E7F8860E0CF282F2171213121F78E7EF4
:1019F0008861E1CFCF93DF93972F70E026E0929F2D
:101A0000600D711D1124FB0134E5839FE00DF11D74
:101A10001124EE0FFF1FE459FC4FC591D491CE0164
:101A2000C238D105B9F1E8F5C133D10509F499C03F
:101A300050F5C932D10509F48DC0CA32D10509F477
:101A400097C0C11542E5D40708F0C4C0C11521E50F
:101A5000D20708F038C1C83ED10508F09DC0C03E8D
:101A6000D10568F5C83AD10508F089C0C53AD10555
:101A700008F005C1C130D10511F1209709F443C028
:101A80002497E8F440C0C533D10509F45CC0C933DC
:101A9000D105B9F62091EC05237089F080EE90E035
:101AA0000EC0C33ED10591F168F4C03ED105F9F0F6
:101AB000C23ED10531F62091EC0522FD20C0DF9118
:101AC000CF910895C63ED10561F1C73ED10581F1A0
:101AD000C43ED10509F0B5CF2091ED0521FFEFCF30
:101AE0008091EC0584FD0FC087EE90E0E8CF209157
:101AF000EC0520FD19C13091ED0530FFE0CF83EEFC
:101B000090E024FFDCCF90E080E0D9CF2091EC057D
:101B100022FD0DC13091ED0530FDC0CF24FFCFCFA8
:101B2000F2CF2091EC0523FFCACF24FDECCFDCCF10
:101B30002091EC0523FDFEC03091ED0531FFEECF85
:101B400084EE90E0BCCF2091EC0525FFB8CF89E270
:101B500090E0B5CF2091EC0525FFB1CF85E390E073
:101B6000AECF2091EC0526FFAACF8AE290E0A7CF66
:101B70002091EC0526FFA3CF81E390E0A0CFCF3BDF
:101B8000D10508F6C85AD0E0CC0FDD1FC556DD4F91
:101B900088819981946493CFC11530E2D30760F4B2
:101BA000C11541E0D40708F08ACFCE019065C03F4F
:101BB000D10508F084CFA7CFC11580E4D80708F479
:101BC000A2CFC11590E5D90708F061C0CE019F7082
:101BD000906A75CFC11526E5D20718F5C11535E510
:101BE000D30708F086C0C11544E5D40708F07CC0CF
:101BF0009C2F96959695AE0143705527C115D345F8
:101C000008F466C021E030E002C0220F331F4A957D
:101C1000E2F740E2949FC0011124822B932B9A6833
:101C20004ECFC1159AE5D90778F4C11529E5D20739
:101C300008F069C0C11538E5D30708F464CF9C2FBC
:101C40008827806F906A3BCFC1154BE5D40708F415
:101C50005ACFC1158CE5D80708F462C0CE01905662
:101C60008115904208F04FCF8D2F8F710E94B70CD5
:101C700090E0982F882788279F718C2B42C0C55AE7
:101C8000D0E0C856DD4F888190E0906418CF9E0167
:101C9000E4E036952795EA95E1F723708C2F869539
:101CA0008695837030E2839FC0011124922BC3700C
:101CB00021E030E002C0220F331FCA95E2F7822BE9
:101CC000932B9C68FCCE9C2F8827816F906AF7CE5F
:101CD00021E030E002C0220F331F4A95E2F740E2D4
:101CE000949FC0011124EBCF9C2F8827846F906AAA
:101CF000E6CE8C2F0E94B70C90E0982F882788277B
:101D00009F719062DCCE8C2F8F700E94B70C34E0F4
:101D1000D695C7953A95E1F7CF709C2F9069CFCEB5
:101D2000CE0199279066CBCE89E390E0C8CE82EEB3
:101D300090E0C5CE86EE90E0C2CEBF92CF92DF9209
:101D4000EF92FF920F931F93CF93DF938C01C0907C
:101D5000E805D090E905E090EA05F090EB05809168
:101D6000C7059091C805A091C905B091CA05C82AB8
:101D7000D92AEA2AFB2ACFE1D0E0BC2ED701C6013E
:101D80000C2E04C0B695A795979587950A94D2F71F
:101D900080FD0EC0219788F7B12C8B2DDF91CF915C
:101DA0001F910F91FF90EF90DF90CF90BF9008951B
:101DB000B8018C2F0E94FA0C019761F3EECFCF93FC
:101DC000DF93EC010E949D0EBE01DF91CF910C9438
:101DD000FA0C0E94DF0E292F2F7092959F7092505F
:101DE0009E3078F4E92FF0E0E255FB4C0C94F22D94
:101DF000803F19F020F4883E20F481E00895843F6C
:101E0000E1F380E00895883EC0F3813FD1F7F5CF3C
:101E1000822F8695869586950895CF93DF939C01B2
:101E20003A9521153F4168F5EC01CC27D170DC01D2
:101E3000AA27B270AC01442754709C012227387045
:101E400094FF11C080E1CD2B09F480E0AB2B09F0A9
:101E50008062452B09F08064232B09F08068FB0128
:101E6000DF91CF91099481E0CD2B09F480E0AB2B79
:101E700009F08260452B09F08460232B81F3886090
:101E8000EECFDF91CF9108959F92AF92BF92CF9204
:101E9000DF92EF92FF920F931F93CF93DF9320E98E
:101EA000289FE001299FD00D1124C455DF4F10E079
:101EB00000E0FE0164913196749131968491962FE1
:101EC000972B982BC1F420E040E060E0C8010E940D
:101ED0002F080F5F1F4F23960033110551F7DF9135
:101EE000CF911F910F91FF90EF90DF90CF90BF9017
:101EF000AF909F9008950E949E0A962EB72EA82E0E
:101F00006091520670E090E080E00E94B13320E0E2
:101F100030E04FE753E40E9410336B017C016A2DDF
:101F200070E090E080E00E94B333A70196010E9428
:101F30003F340E948233A62E692D70E090E080E04D
:101F40000E94B333A70196010E943F340E9482335E
:101F5000962E6B2D70E090E080E00E94B333A701D5
:101F600096010E943F340E9482332A2D492DAECF24
:101F700027982F98089526982E98089525982D989B
:101F8000089556985E980895279A2F9A0895269A4C
:101F90002E9A0895259A2D9A0895CF92DF92EF9266
:101FA000FF92CF936B017C010E947B06C82F0E9499
:101FB000C10F0E94BE0F0E94BB0F0E94B80FC150FC
:101FC000C73040F4EC2FF0E0E454FB4C0C94F22DBD
:101FD0000E94CA0FC701B601CF91FF90EF90DF902A
:101FE000CF9008950E94CA0F0E94C70FF3CF0E949E
:101FF000CA0F0E94C40FEECF0E94CA0F0E94C70FE3
:10200000F8CF209828982198299822982A982398E0
:102010002B9852985A9853985B983E9846980895F2
:102020008098889A8198899A84988C9A85988D9AB4
:1020300086988E9A87988F9A0895CF9384E090E03F
:102040000E946532C82F81E290E00E946532982F8D
:102050008C2FCF910895CF93DF9300D00F92CDB7FF
:10206000DEB790914106943019F589837B836A83AA
:1020700082E08093E9008FEF9091E800815095FD18
:1020800006C095ED9A95F1F700008111F5CF80918A
:10209000E80085FF0DC050E040E063E070E0CE0155
:1020A00001960E94A1038091E8008E778093E8005A
:1020B0000F900F900F90DF91CF910895BC0184E0B5
:1020C0000C942B10BC0183E00C942B109C0182E03B
:1020D0008093E9009FEF8091E800915085FD06C054
:1020E00085ED8A95F1F700009111F5CF8091E80018
:1020F00085FF0CC050E040E066E070E0C9010E943E
:10210000A1038091E8008E778093E8000895CF9333
:10211000DF93EC0180911B018823B1F18091EC05E4
:1021200087FF32C060E282E08093E9008FEF9091F8
:10213000E800815095FD06C095ED9A95F1F70000F5
:102140008111F5CF8091E80085FF1BC080911B01B4
:1021500070E050E040E0811104C050E040E068E0F1
:1021600070E0CE010E94A1038091E8008E778093F9
:10217000E80080E2FE01AFE1B6E001900D928A95A1
:10218000E1F7DF91CF91089568E081E0CDCFEF9244
:10219000FF920F931F93CF93DF930E94C10F0E9472
:1021A000BE0F0E94BB0F0E94B80F88E8E82EF12CEA
:1021B0008FEF90E0F701918380830AE810E0F80147
:1021C00091838083CCE8D0E0998388830E94CA0FF2
:1021D000FFEF20E782E0F15020408040E1F700C0AF
:1021E00000000E94C70F9FEFE0E7F2E09150E0404F
:1021F000F040E1F700C000000E94C40F2FEF80E71D
:1022000092E0215080409040E1F700C000000E9421
:10221000BE0FEFEFF0E722E0E150F0402040E1F7A1
:1022200000C000000E94BB0F8FEF90E7E2E08150FA
:102230009040E040E1F700C000000E94B80F80919C
:10224000D6058770FFEF8F9FC00111249595879564
:10225000959587959927F70191838083F80191835C
:102260008083998388830E94C10F0E94BE0F0E94C1
:10227000BB0FDF91CF911F910F91FF90EF900C94C6
:10228000B80F6FEE7EEF90E080E00E94A73260E032
:1022900082E090E00E94893260E083E090E00E945A
:1022A00089321092C7051092C8051092C905109284
:1022B000CA0560E084E090E00E94893260E081E23B
:1022C00090E00E94893260E085E090E00E948932CF
:1022D00060E086E090E00E9489326FEF87E090E056
:1022E0000E94893240E050E0BA0188E090E00E940C
:1022F0009B3260E08DE090E00E94893240E050E047
:10230000BA0188E190E00E949B3260E087E190E0B2
:102310000E94893240E050E0BA018CE190E00E94D6
:102320009B3260E080E290E00E9489321092D605F4
:102330001092D7051092D8051092D90584E08061DB
:102340008093D6054091D6055091D7056091D80568
:102350007091D9058FE090E00E949B3240E050E000
:10236000BA0183E190E00C949B320F931F93CF93BB
:10237000DF93082F000FEB0114E21093D903EAED6D
:10238000F3E0DE018D91819383E0EA3EF807D1F717
:1023900024E630E041E150E069ED73E0802F0E94D7
:1023A0009F2D105F6096143B41F7DF91CF911F91F5
:1023B0000F9108958091ED03882329F06FEE73E06B
:1023C00084E70E94B5111092ED038091EE038823FB
:1023D00029F06FE774E087E70E94B5111092EE03D1
:1023E0000895E9EDF3E06083418324E630E042E0C4
:1023F00050E0BF01880F0C949F2D0F931F93CF9334
:10240000DF93082FE62FF0E0ED5CFA4F8081882300
:1024100079F082E1689FE0011124C15FDA4F10E09A
:102420004991612F802F0E94F1111F5F1231C1F776
:10243000DF91CF911F910F910895CF93DF93C82F14
:102440004BE06DEF0E94F11140E06AE08C2F0E949A
:10245000F1118FE39CE90197F1F700C0000040E023
:1024600060E08C2F0E94F11140E061E08C2F0E940F
:10247000F11140E066E08C2F0E94F11140E06DEF19
:102480008C2F0E94F111D0E040E06D2F8C2F0E9424
:10249000F111DF5FD231C1F740E06D2F8C2F0E9428
:1024A000F111DF5FD432C1F740E06D2F8C2F0E9415
:1024B000F111DF5FD43BC1F74BE06DEF8C2F0E9431
:1024C000F11141E06AE08C2F0E94F11140E06DEFC4
:1024D0008C2FDF91CF910C94F1116F927F928F929C
:1024E0009F92AF92BF92CF92DF92EF92FF920F93A3
:1024F0001F93CF93DF930E94EA2C84E70E941D1262
:1025000087E70E941D1260E3E62E61E0F62ED12CD3
:10251000C12C72E1772EE8E08E2E912CAA24A39490
:10252000B12C66246394F701418150E0CA0184977D
:1025300002810452110BC381C452DD0BF601EE0F70
:10254000FF1FEE0FFF1FE05DFE4F2081237030E084
:10255000FC0197FD379643E0F595E7954A95E1F73D
:10256000729EA001739E500D1124415F5A4FE40FDB
:10257000F52FF11DB4010E94DE2DA50101C0440F0D
:102580008A95EAF78081842B8083F80117FD3796BE
:1025900093E0F595E7959A95E1F7729EC001739ED9
:1025A000900D1124815F9A4FE80FF92FF11DC8019A
:1025B000B4010E94DE2DA50101C0440F8A95EAF7FF
:1025C0008081842B8083FE01D7FD379683E0F595CB
:1025D000E7958A95E1F7729EC001739E900D1124D4
:1025E000815F9A4FE80FF92FF11DCE01B4010E94CF
:1025F000DE2DA50101C0440F8A95EAF78081842B66
:1026000080832D5C3A4FF9016082FFEFCF1ADF0A19
:1026100084E0E80EF11CE0E3CE16D10409F083CF8C
:1026200060E084E70E94FD1161E087E7DF91CF91D0
:102630001F910F91FF90EF90DF90CF90BF90AF90E0
:102640009F908F907F906F900C94FD111F93CF936C
:10265000DF93EC01FC01E358FC4F80816823A1F07B
:102660000E947B2E182F0E947B2E612F782F809145
:1026700052060E949E0A462F282F672FCE01DF9117
:10268000CF911F910C942F08DF91CF911F91089546
:10269000DF92EF92FF920F931F93CF93DF938C0102
:1026A000FC01E358FC4F8081682381F1D0905106F2
:1026B000D0915206C0915006EC2EF12C0E947B2E38
:1026C000282FC7018C549F4F68E671E00E94DE2DD1
:1026D0008E199F0997FD03969595879595958795F2
:1026E00023706C2F289F600D11247D2D8D2F0E944B
:1026F0009E0A462F282F672FC801DF91CF911F9187
:102700000F91FF90EF90DF900C942F08DF91CF9105
:102710001F910F91FF90EF90DF90089545E050E0FA
:102720006CE170E08FE496E00C94793290914F0662
:10273000937089F0811107C0946090934F061092B6
:102740001F010C948E13893110F09066F6CF880F1C
:10275000880F982BF2CF089580914F068695869525
:10276000815009F488E10C94961380914F06869568
:1027700086958F5F893108F081E00C9496139091D3
:102780004F06937041F0809350066093510640933A
:1027900052060C948E130895EFE4F6E0438120E195
:1027A000421B08F440E08181628190E00C94BF13E9
:1027B000EFE4F6E0438120E1420F08F44FEF81811E
:1027C000628190E00C94BF13EFE4F6E0628120E1B7
:1027D000621B08F460E08181438190E00C94BF1398
:1027E000EFE4F6E0628120E1620F08F46FEF81818F
:1027F000438190E00C94BF13EFE4F6E081814381C4
:1028000062818850990B0C94BF13EFE4F6E081814C
:1028100090E04381628108960C94BF13EFE4F6E0E8
:10282000248130E1230F08F42FEF24830C948E13BE
:10283000EFE4F6E0248130E1231B08F420E0248358
:102840000C948E13EFE4F6E085E380838091200101
:1028500090912101A091220181839283A3838CE333
:1028600084830C948E130E946D1290E080E00E948D
:1028700073328F3E9E4F21F00E9441110E9422141C
:1028800045E050E06CE170E08FE496E00E94553244
:1028900080914F068C7F11F40C942214089580E2ED
:1028A00090E09093100180930F018091CE038111ED
:1028B0000EC00E94EA2C81E08093CE032FEF83EDBF
:1028C00090E3215080409040E1F700C0000064E6B2
:1028D00070E080E40E94F02C9093100180930F012F
:1028E000892B09F04EC064E670E080E00E944C2D18
:1028F0009093100180930F01892B09F042C064E688
:1029000070E080E00E944C2D9093100180930F01A5
:10291000892BB9F564E670E08FE30E944C2D90930B
:10292000100180930F01892B61F50E94C62D64E68A
:1029300070E080E40E94F02C9093100180930F01CE
:10294000892BF9F464E670E08CE00E944C2D9093A2
:10295000100180930F01892BA1F464E670E080E000
:102960000E944C2D9093100180930F01892B49F404
:1029700064E670E08FE30E944C2D909310018093E9
:102980000F010E94C62D80910F010895CF93C82F8B
:10299000873070F580910F0190911001892B89F596
:1029A00064E670E080E40E94F02C90931001809324
:1029B0000F01892BD1F464E670E082E10E944C2D76
:1029C0009093100180930F01892B79F481E090E0BE
:1029D00001C0880FCA95EAF764E670E080950E940E
:1029E0004C2D9093100180930F01CF910C94C62D24
:1029F0008A30B9F040F4883071F0893079F0209A4B
:102A00002898CF9108958C3091F070F08D30B9F7FF
:102A10003E9A4698F6CF219A2998F3CF229A2A987F
:102A2000F0CF239A2B98EDCF529A5A98EACF539A27
:102A30005B98E7CFCF93873050F580910F0190914D
:102A40001001C0E0892B71F464E670E081E40E941B
:102A5000F02C9093100180930F01892B31F0C0E08E
:102A60000E94C62D8C2FCF91089584E690E00E949D
:102A70007B2D97FF05C09093100180930F01EFCF3E
:102A8000C82FC0951092100110920F01E9CFCFB15D
:102A90008FB1869586958C73C3708C2BC82FC0958B
:102AA000E1CF78941F921FB61F9211248F939F93AA
:102AB000AF93BF938091CB059091CC05A091CD05AC
:102AC000B091CE050196A11DB11D8093CB059093C9
:102AD000CC05A093CD05B093CE05BF91AF919F914A
:102AE0008F911F901FBE1F9018952FB7F89480915B
:102AF000CB059091CC05A091CD05B091CE052FBF0F
:102B000008950E9475159C01909107068091080612
:102B1000982B21F030930406209303069091090628
:102B200080910A06982B21F030930106209300062D
:102B3000E091EE05F091EF05309749F082E0809347
:102B400005060480F581E02D85E096E0099408955E
:102B50001092C4051092C3050E94CE0686E0E5E0FF
:102B6000F6E0DF011D928A95E9F7109202061092B5
:102B7000FF051092CF050E94811590E080E00E9431
:102B8000B40790E080E00C949E070E94CD0F609304
:102B9000E8057093E9058093EA059093EB050C94A2
:102BA000A8150F931F9341E050E060E070E004C06F
:102BB000440F551F661F771F8A95D2F7CB01BA01C4
:102BC00060957095809590950091E8051091E905C4
:102BD0002091EA053091EB05602371238223932332
:102BE0001F910F910C94C5159091C2058095892372
:102BF0008093C205282F277071F4282F082E000C0F
:102C0000330B9217130639F08595859585950E94AB
:102C1000D1151092C20508950F931F9341E050E023
:102C200060E070E004C0440F551F661F771F8A954F
:102C3000D2F78091E8059091E905A091EA05B0915D
:102C4000EB058A019B01082B192B2A2B3B2BC90171
:102C5000B8011F910F910C94C5156093C70570932F
:102C6000C8058093C9059093CA050C94A8151092C5
:102C7000C50580911B01E0EBF3E0882359F08091BA
:102C8000EC0587FF07C08EE1DF011D928A95E9F709
:102C90000C94A81586E0F8CF1F93CF93DF93CDB7A0
:102CA000DEB7AA970FB6F894DEBF0FBECDBF83E4A0
:102CB00096E02091F100FC012193CF01F6E08B34E6
:102CC0009F07B9F780914406833009F46FC0B8F4C8
:102CD000813009F446C0823009F4B0C08091E80028
:102CE00083FF87C280914306909144069A3008F092
:102CF00080C2E92FF0E0ED53FB4C0C94F22D8A30AA
:102D000009F48BC08B3009F46EC0893039F780919B
:102D10004306813219F78091470690914806029741
:102D2000E8F68091E800877F8093E8008091E800D2
:102D300082FF37C09091F3008091F200029729F44E
:102D40008091F1008B7F813021F48091F10080939C
:102D50001E068091E8008B778093E8000E94CB03E9
:102D6000BDCF80914306813A09F0B8CF8091E80049
:102D7000877F8093E8008091470690914806892BD1
:102D800061F460E28FE196E070E00E947D04809142
:102D9000E8008B778093E800A1CF60E090E080E0CE
:102DA000F3CF809141068111C1CF98CF8091430626
:102DB000813A09F093CF8091470690914806892B7C
:102DC00009F08CCF8091E800877F8093E8008091A4
:102DD000E80080FFFCCF80911B018093F10080917F
:102DE000E8008E77B9CF80914306813209F076CF23
:102DF0008091470690914806892B09F06FCF80910A
:102E0000E800877F8093E8000E94CB03809145060D
:102E100080931B010E94371661CF80914306813257
:102E200009F05CCF8091E800877F8093E8000E94E2
:102E3000CB038091460680931D0650CF80914306B8
:102E4000813A09F04BCF8091E800877F8093E800BA
:102E50008091E80080FFFCCF80911D06BECF8038B6
:102E600099F0823809F0C5C1809147068F7087308C
:102E700008F0BFC18093E9008091EB0085FB8827B3
:102E800080F91092E90006C080913F0690914006BB
:102E9000911182609091E800977F9093E800809371
:102EA000F1001092F1008091E8008E779EC1882396
:102EB00009F48CC1823009F09CC1809145068111D2
:102EC0008FC1809147068F702FEF280F263008F0B2
:102ED00090C18093E9002091EB0020FF81C19330E5
:102EE00031F48091EB0080628093EB0079C1909186
:102EF000EB0090619093EB0021E030E001C0220FE5
:102F00008A95EAF72093EA001092EA008091EB009C
:102F10008860EACF81116DC1109145061F778091BD
:102F2000E3008078812B8093E3008091E800877F25
:102F30008093E8000E94CB038091E80080FFFCCFE3
:102F40008091E30080688093E30082E0111183E0C8
:102F5000809341064EC18058823008F04AC180916A
:102F60004506909146068C3D23E09207A1F583E04B
:102F70008A838AE289834FB7F894DE01139620E0B2
:102F80003EE051E2E32FF0E050935700E49120FF40
:102F900003C0E295EF703F5FEF708E2F90E0EA3054
:102FA000C0F0C7968D939D932F5F243159F74FBF83
:102FB0008091E800877F8093E8006AE270E0CE01AC
:102FC00001960E947D048091E8008B778093E80051
:102FD00010C1C096E7CF4091470650914806292F6F
:102FE00033272330310509F445C078F52130310508
:102FF00009F47BC08BE390E0E8EBF5E0223031058B
:1030000009F0F7C02091E800277F2093E800209185
:10301000490630914A068217930708F49C0140E064
:103020002115310509F070C041116EC08091E80092
:1030300082FDC9CF80914106882329F2853019F29B
:103040008091E80083FFF2CFBECF2132310509F431
:1030500040C02232310509F0CCC04115510509F4B8
:103060004EC04130510509F0C4C08CEB90E0ECEB50
:10307000F4E0C8CF992781309105D9F0009771F01D
:1030800082309105F1F0039709F0B3C0E5E0F6E076
:10309000E4918E2F90E0E5E0F6E007C0EFE5F6E082
:1030A000E4918E2F90E0EFE5F6E0009709F4A1C0DF
:1030B000A9CFEDE2F6E0E4918E2F90E0EDE2F6E0AC
:1030C000F4CFEBE0F6E0E4918E2F90E0EBE0F6E059
:1030D000ECCF4115510571F04130510509F089C01F
:1030E00089E090E0E3EEF5E08DCF82E190E0E3EF60
:1030F000F5E088CF89E090E0EAECF5E083CF80E46A
:1031000090E0E8E7F5E07ECF80914106882309F45E
:103110005ACF853009F457CF8091E80083FD53CF13
:103120008091E80082FD82CF8091E80080FF78CF17
:103130009091F3008091F2002115310519F088304B
:10314000910550F041E0089709F040E08091E800D7
:103150008E778093E80064CF44914093F1003196DC
:10316000215031090196E8CF803809F042C08091A2
:10317000E800877F8093E800809142068093F10009
:1031800092CE811136C010914506123090F5809193
:10319000E800877F8093E800109342060E94CB03EB
:1031A000112311F084E005C08091E30087FDFACF80
:1031B00081E08093410642E061EC81E00E94EA03F5
:1031C00042E261EC82E00E94EA0313C0809145066E
:1031D000813079F481E0933009F080E080934006FB
:1031E0001092E9008091E800877F8093E8000E94B8
:1031F000CB038091E80083FF0AC08091E800877FBD
:103200008093E8008091EB0080628093EB00AA96A7
:103210000FB6F894DEBF0FBECDBFDF91CF911F91E7
:1032200008951F920F920FB60F9211242F933F9380
:103230004F935F936F937F938F939F93AF93BF93BE
:10324000CF93DF93EF93FF93D091E900DF708091EC
:10325000EC00C82FC17080FDC0E81092E900809199
:10326000F000877F8093F00078940E944C161092B3
:10327000E9008091F00088608093F000CD2BCF7042
:10328000C093E900FF91EF91DF91CF91BF91AF9192
:103290009F918F917F916F915F914F913F912F916E
:1032A0000F900FBE0F901F9018951F920F920FB6A0
:1032B0000F9211242F933F934F935F936F937F93BC
:1032C0008F939F93AF93BF93EF93FF938091E10010
:1032D00082FF09C08091E20082FF05C08091E10079
:1032E0008B7F8093E1008091DA0080FF24C0809181
:1032F000D80080FF20C08091DA008E7F8093DA00B2
:103300008091D90080FFA1C080E189BD82E189BDA3
:1033100009B400FEFDCF81E08093410680911B0639
:10332000811109C00E9451030E941C048091E20097
:1033300084608093E2008091E10080FF17C080915B
:10334000E20080FF13C08091E2008E7F8093E20054
:103350008091E20080618093E2008091D8008062D9
:103360008093D80019BC85E0809341068091E100EC
:1033700084FF2FC08091E20084FF2BC080E189BDD3
:1033800082E189BD89B5982F917080FFFBCF809134
:10339000D8008F7D8093D8008091E1008F7E80934C
:1033A000E1008091E2008F7E8093E2008091E20054
:1033B00081608093E20080914206882309F44BC02B
:1033C00084E0809341060E9437160E94CA0710923B
:1033D0001C068091E10083FF27C08091E20083FFFB
:1033E00023C08091E100877F8093E10082E0809399
:1033F0004106109242068091E1008E7F8093E100A9
:103400008091E2008E7F8093E2008091E2008061F3
:103410008093E20042E060E080E00E94EA03809155
:10342000F00088608093F000FF91EF91BF91AF9121
:103430009F918F917F916F915F914F913F912F91CC
:103440000F900FBE0F901F90189519BC1092410657
:1034500010921B0670CF8091E30087FD93E090935C
:103460004106B1CF8823B1F19CEF980F913A38F41F
:10347000682F8EEA93E00E941C060C94CE0690E220
:10348000980F983088F4877021E030E0A90102C0DD
:10349000440F551F8A95E2F7CA0180959091C505A2
:1034A00089238093C505E9CF9BE5980F933020F4DD
:1034B00090E080E00C94B40798E5980F973120F4E1
:1034C00090E080E00C949E07803F20F00E94DE0494
:1034D0000C9481150895CF93DF93EC010E94321A6A
:1034E00064E777E0CE01DF91CF910C940D0FCF937D
:1034F000C82F882309F46EC08CEF8C0F813AB8F581
:1035000080911B01882311F18091EC0587FF1EC07B
:10351000EC2FE695E695E695F0E0E255FC4F8281CA
:1035200090E04C2F477021E030E002C0220F331FA3
:103530004A95E2F782239323892B89F06C2F8EEA38
:1035400093E00E941C060E94CE0609C0E0EBF3E067
:103550008191C81799F383E0E63BF807C9F76C2F10
:103560008EEA93E00E944606CF910C94CE0680E24C
:103570008C0F883068F4C77021E030E001C0220F62
:10358000CA95EAF78091C505822B8093C505ECCFDB
:10359000EBE5EC0FE33040F4F0E0E856FD4F8081BE
:1035A00090E0CF910C94B407E8E5EC0FE73150F4CC
:1035B000F0E0EE0FFF1FE556FD4F80819181CF9126
:1035C0000C949E07C03F30F08C2F0E94A505CF9130
:1035D0000C948115CF910895CF93C82F0E94771A2C
:1035E000C93349F42FEF87EE93E02150804090409B
:1035F000E1F700C000008C2FCF910C94321ACF93CA
:10360000C82F6FE777E00E940D0F8C2FCF910C949D
:10361000771ACF93DF93C0914A05D0914B0520973D
:10362000E1F080914C0590914D050E940D0620918E
:103630000D0130910E012817390790F4D260CE01A8
:103640000E94FF1ACE010E946B1A10924D05109233
:103650004C0510924B0510924A05DF91CF910895C9
:103660008C2F0E94EC1AF1CF0F931F93CF93DF930F
:10367000C42FD22FFC0182818823A1F040934E05F4
:103680000E9475159093360580933505C77081E0CB
:1036900001C0880FCA95EAF7DF91CF911F910F9172
:1036A0000C94940710914E05141335C08091350584
:1036B000909136050E940D06883C910560F5C0E2A8
:1036C000CD0F1D17B9F080E2810F883040F41770DC
:1036D00081E001C0880F1A95EAF70E948907C83077
:1036E00048F481E09D2F977001C0880F9A95EAF702
:1036F0000E949407802F0E94EC1AC83098F4D7706B
:1037000081E001C0880FDA95EAF7DF91CF911F9130
:103710000F910C948907C77081E001C0880FCA958A
:10372000EAF7F3CFDF91CF911F910F9108952F9278
:103730003F924F925F926F927F928F929F92AF9241
:10374000BF92CF92DF92EF92FF920F931F93CF938E
:10375000DF93CDB7DEB728970FB6F894DEBF0FBE64
:10376000CDBF7C01FC0183819481892B39F01081CC
:10377000D180812F8D218F3F09F0BBC728960FB6CE
:10378000F894DEBF0FBECDBFDF91CF911F910F9197
:10379000FF90EF90DF90CF90BF90AF909F908F9071
:1037A0007F906F905F904F903F902F9008950E9470
:1037B0009D0E082F682F89819A810E943C07E12F76
:1037C000F0E026E0D29EE00DF11D112434E5039FC8
:1037D000E00DF11D1124EE0FFF1FE459FC4F059180
:1037E0001491F70182810932FDE51F07B9F10A3210
:1037F0002DE5120709F4B1C0023C3CE5130709F0BE
:10380000D1C08823E9F090911D018091D6059F3F9A
:1038100009F0C1C010921D018F7E8093D60540E053
:1038200060E080E00E942D084091D6055091D705B8
:103830006091D8057091D9058FE090E00E949B328D
:103840008091C205877009F499CFF701828188239E
:1038500009F494CF82E00E94F41590CF882309F4F4
:103860004DC08091D60591E0980F9770887F953074
:1038700008F4892B8093D6058091D6058770EFEFE9
:103880008E9FC001112495958795959587959927C9
:10389000909389008093880090938B0080938A0096
:1038A00090938D0080938C004091D6055091D70560
:1038B0006091D8057091D9058FE090E00E949B320D
:1038C0006091E8057091E9058091EA059091EB051A
:1038D0000E94CD0FF7018281882309F46FC09801FF
:1038E000215E3C452530310508F068C06FE1600F6E
:1038F0006093D2058CE090E00E948932F7018281CA
:10390000882309F4D1C00436110571F008F0ECC029
:103910000B32110549F0C8010C32110508F0C0C086
:103920000497849708F0C0C00E94091B80910C0185
:10393000882309F403C18091C5058111FFC00E944D
:10394000751590934D0580934C0510934B0500938E
:103950004A0582E00E94F41573CF882379F2909192
:10396000D605892F877F93FF88608093D60583FFD4
:1039700005C040E060E080E00E942D084091D6053F
:103980005091D7056091D8057091D9058FE090E0EE
:103990000E949B329FCF9FEF90931D018061809387
:1039A000D60542CF0B32FDE51F0709F093CF8823E0
:1039B00009F446CF81E00E94961342CF17FF9ECFB5
:1039C000882309F471C08091C50580934905109240
:1039D000C5058091D205813009F441C08823D9F111
:1039E000823009F445C0843009F449C08FE39CE972
:1039F0000197F1F700C000005801E894B7F8FCE027
:103A0000CF2ED12C95010C2C02C0369527950A9407
:103A1000E2F72F7087E290E029F0822F90E02A30C1
:103A200098F54D960E94EC1A94E0C91AD108ECEF73
:103A3000CE16EFEFDE0631F78091D205813051F1DD
:103A4000882321F1823011F1843041F180914905C0
:103A50008093C50553CF82EE0E94771AC7CF88E1C5
:103A600093E00E94FF1A88E193E00E946B1ABECF98
:103A700082EE0E94771A87E50E94EC1AB7CF86EE95
:103A80000E94EC1A88E1F8CF0697CCCF82EE0E9414
:103A9000321ADCCF8CE20E94EC1AD8CF88E2FBCF3E
:103AA0008D970C9708F440CF0E94091B033F3CE51B
:103AB000130709F454C108F03CC1083D9CE51907FF
:103AC00009F447C1093DECE51E0709F45AC1073D59
:103AD000FCE51F0799F506E221EE41EE67ED7CE576
:103AE000C7010E94341BACCE0931FCE51F0709F465
:103AF0007AC078F407313CE5130709F46AC008314D
:103B00008CE5180789F680910D0190910E010597BB
:103B100065C00B319CE5190771F048F00C31FCE5EC
:103B20001F0711F610920C010E94091B07C080911B
:103B30000C018111F7CF81E080930C01F701928194
:103B4000992309F401C610924E050230FCE51F07C7
:103B500008F4E3C506312CE5120738F098012A5F16
:103B60003C452730310508F0D8C50E941D109093C0
:103B7000ED058093EC050F303CE5130709F4C2C155
:103B800008F03CC108309CE5190709F4A5C108F00C
:103B900011C10430FCE51F0709F492C108F0F7C019
:103BA00002303CE5130709F483C103301C4509F4D6
:103BB00083C16091EC051091ED0584E090E00E94D6
:103BC0008932612F81E290E00E9489320E9437168B
:103BD00037CE80910D0190910E01059690930E01C4
:103BE00080930D01ABCF80910E018F9380910D01D9
:103BF0008F9383E291E09F938F931F9288E08F933E
:103C00009F928F920E94B62F0FB6F894DEBF0FBE20
:103C1000CDBF6401EAE04E2EF6012081222309F493
:103C20008DCF213009F046C091818281913049F4D5
:103C3000F2E0CF0ED11C0E94EC1A2FEFC21AD20A6A
:103C4000EBCF923031F422E0C20ED11C0E94771AE1
:103C5000F4CF933031F432E0C30ED11C0E94321AFB
:103C6000ECCF943021F08FEFC81AD80AE6CF92E05B
:103C7000C90ED11C30E020E0A6014F5F5F4F80539A
:103C8000990B8A30910550F021503109B0F28FE93B
:103C90009FE00197F1F700C00000F6CF429EB0010F
:103CA000439E700D11249C01260F371FF601818160
:103CB0006A01E2CFE22FF0E0E451FD4F5490822FF1
:103CC00086958695869590E0FC01E452FD4F6490C0
:103CD0002770712C022E02C0759467940A94E2F743
:103CE000E1E06E227724FC01E453FD4FA490B12C57
:103CF00002C0B594A7942A95E2F7F1E0AF22BB2465
:103D00006114710419F081EE0E94771AA114B104B4
:103D100019F086EE0E94771A852D0E94EC1AAB28C6
:103D200019F086EE0E94321A672809F486CF81EED8
:103D300095CF053F2CE51207F1F0B8F0063F8CE572
:103D4000180709F0FBCE07E225EE46EE66EF7CE5AC
:103D5000C7CE07E225EE45EE68ED7CE5C1CE06E272
:103D600021EE40EE63EF7CE5BBCE07E225EE44EEAC
:103D700064EF7CE5B5CE06E221EE42EE65EF7CE530
:103D8000AFCE08E221E045EE69ED7CE5A9CE809159
:103D9000EC05806106309CE5190709F447C0809165
:103DA000EC05886007301C4508F440C08091EC05A4
:103DB00080623CC00B30FCE51F0709F49BC068F42F
:103DC00009303CE5130709F48BC00A301C4509F0A3
:103DD000F0CE8091EC058C6029C08091EC058B7F42
:103DE0000D309CE5190711F18091EC058D7F0E30A7
:103DF0001C45E0F08091EC05877F18C00A3FFCE588
:103E00001F0709F461C060F502313CE5130709F4AE
:103E100081C078F400319CE5190709F477C08091DE
:103E2000EC058F7B01311C4509F0C3CE8093EC0576
:103E3000C0CE0431FCE51F0709F47AC008F470C055
:103E400005311C4509F0B5CE8091EC0582FB992720
:103E500090F921E0922790FB82F990FB83F9E6CF5D
:103E60000D3F8CE5180709F449C070F40B3FECE5F1
:103E70001E0771F18091ED058E7F0C3F1C4509F006
:103E800098CE8093ED0595CE0F3F2CE5120709F4EF
:103E90004BC060F101151D4509F08BCE8091ED05F9
:103EA000982F909591708E7F892B90FB81F9E9CFA7
:103EB0008091EC058160BACF8091EC058260B6CF2D
:103EC0008091EC058460B2CF8091ED058160D9CFFF
:103ED0008091ED058260D5CF8091EC058064A6CFFE
:103EE0000E9437168091EC058068A0CF8091ED0587
:103EF0008360C7CF8091EC058E7F98CF8091ED05D0
:103F00008D7FBFCF8091EC058F7E90CF8091EC05A7
:103F10008F7D8CCF0E9437168091EC058F7786CFEE
:103F20008091EC05837F82CF8091ED058C7FA9CFB6
:103F30000E9437169091EC05892F97FB87F98058DE
:103F400075CF992309F45CC08091C5058272F80190
:103F5000E25CFC45E431F10508F049C0E353FB4C59
:103F60000C94F22D80914F0691E0892780934F06A3
:103F700010921F010E948E1363CC4CEA53E165EB53
:103F800073E10E94D6075CCC45EB53E16CEA73E128
:103F9000F8CF4CEF53E165E074E1F3CF45E054E135
:103FA0006CEF73E1EECF44EE53E160EF73E1E9CFE4
:103FB00040EF53E164EE73E1E4CF4CEC53E168ED84
:103FC00073E1DFCF48ED53E16CEC73E1DACF48E108
:103FD00054E16EE074E1D5CF4EE054E168E174E164
:103FE000D0CF85E0E8CC8DE0E6CC82E1E4CC0115D1
:103FF000ECE51E0709F44EC00E3D1C4509F487C0D0
:10400000F70100811181992309F484C0C8010E943D
:104010009D0ED82E682FC8010E943C07B8018D2D37
:104020000E94FA0C082FD92EB82EF701C580C29431
:104030007FE0C722128111111092C4058091C20540
:104040008770C1F01123B1F08D2D807F803449F04D
:1040500090E2900F983070F0803619F4F6EFBF16AA
:1040600049F082E00E94F4158091C2058770AA246D
:10407000A3948111A12C7D2C72945FE075226BE0DA
:10408000262E271408F481C0E72DF0E0EF51FB4CF9
:104090000C94F22D0E9437162FEF34E38CE0215060
:1040A00030408040E1F700C00000F89481E0809348
:1040B000E00080E28093D8001092C900EFE1FEE4B6
:1040C0003197F1F700C000001DBA109268001CBCC7
:1040D00010BE1FBA10927A0010926E0010926F00FC
:1040E00010927100109272001092C9001092BC00E0
:1040F00014B817B81AB81DB810BA1092BC0015B889
:1041000018B81BB81EB811BA0C94003F99CB0E9486
:10411000411196CBC8010E941307D82E7FCF2D2DB9
:104120002F70C22E8D2D807F19F0C29440EFC422D3
:104130001123C9F0CC2069F080E2800F883010F0A4
:10414000B1100BC08091C505C82AC092C5050E9458
:10415000CE06802F0E94771A18C08091C405C82A05
:10416000C092C405F4CF802F0E94321ACC2069F08F
:10417000C094005E083010F0B11056C08091C505A3
:10418000C822C092C5050E94CE06272D2850330BA9
:104190002430310510F40E94CA07112379F08D2DC7
:1041A000807F803619F436EFB31641F080915005C8
:1041B000823009F096C283E080935005AA20A9F0CE
:1041C0008091C20580FD11C0F70112828595859509
:1041D00085950E940C16C7010E94971B8091C2050D
:1041E0008595859585950E94D11585E0F701D401C7
:1041F00001900D928A95E1F789819A810E941307B7
:104200009A81E981F0E026E0929FE00DF11D1124F2
:1042100034E5839FE00DF11D1124EE0FFF1FE459DB
:10422000FC4F85919491AACA8091C405C822C0927E
:10423000C405A9CF3D2D3F70632E8D2D807F803228
:1042400019F0629430EF6322BB2041F081E0B81690
:1042500031F1112381F1CC2049F17BCF112391F071
:104260009091C605862D892BC11003C00E9494072A
:104270008CCFE1E0CE12FACF891709F486CF809374
:10428000C60583CFC11006C00E94C806862D0E94B5
:1042900089077BCFF1E0CF1609F477CFF5CF112353
:1042A00039F0222423942C1408F46FCF862DDECF0E
:1042B000C1106BCFEBCFCC2049F329E3322EB310E2
:1042C00009C02FEF37EE83E0215030408040E1F706
:1042D00000C00000802F0E94321A57CF8D2D869586
:1042E0008695837069F0813009F04FCF802F9D2D26
:1042F0009370111102C090E080E00E949E0745CFAC
:10430000802F9D2D9370111102C090E080E00E94DB
:10431000B4073BCF802F112329F00E94A5050E94EE
:10432000811533CF0E94DE04FACF8D2D837009F002
:1043300067C011112ACF202F229526952770220FB2
:10434000220F402F4F7050E070E060E0022E04C05A
:10435000440F551F661F771F0A94D2F780E090E044
:10436000DC0104FF0FC08FE090E0A0E0B0E004C0EB
:10437000880F991FAA1FBB1F2A95D2F78095909589
:10438000A095B0952D2D269526952370223029F1E4
:10439000D8F42090C7053090C8054090C9055090CA
:1043A000CA05213069F0842B952BA62BB72BBC01B5
:1043B000CD0162217321842195210E942D16E5CE25
:1043C00042295329642975291A012B01282A392ADF
:1043D0004A2A5B2AC201B101F0CF842B952BA62B70
:1043E000B72B2091C7053091C8054091C905509160
:1043F000CA05BC01CD016227732784279527DDCF2D
:104400008695112311F08D2D8170882309F4BDCE7E
:10441000202F229526952770220F220F402F4F70B4
:1044200050E070E060E0022E04C0440F551F661F8C
:10443000771F0A94D2F780E090E0DC0104FF0FC000
:104440008FE090E0A0E0B0E004C0880F991FAA1FA1
:10445000BB1F2A95D2F780959095A095B0952D2DEC
:10446000269526952370223029F1D8F42090E8056E
:104470003090E9054090EA055090EB05213069F055
:10448000842B952BA62BB72BBC01CD016221732168
:10449000842195210E94C51578CE4229532964298B
:1044A00075291A012B01282A392A4A2A5B2AC201B6
:1044B000B101F0CF842B952BA62BB72B2091E805CB
:1044C0003091E9054091EA055091EB05BC01CD0121
:1044D0006227732784279527DDCF2D2D2F70C22EBD
:1044E000112329F0822F0E940C16802FBFCE802F1F
:1044F0000E9489078C2D0E94D11547CE802F32EF64
:10450000B31609F452C03B1578F090EFB91629F1B3
:10451000E1EFBE1609F441C0112309F46AC0C110CD
:1045200018CE8D2D8F713EC0F3EFBF1609F442C037
:1045300094EF292EB210F0CF112309F44FC00D2DA6
:104540000F71802F0E940C1628E0029FC0011124D9
:1045500083608093C205802F25C01123C1F0C11054
:1045600014CE2D2D2F7161E070E080E090E004C04A
:10457000660F771F881F991F2A95D2F72091E805AB
:104580003091E9054091EA055091EB05A1CF332424
:1045900033943C1408F4F9CDE4CF8D2D8F711123A1
:1045A00009F4A9CF0E940C16F0CD8D2D8F71112327
:1045B000C9F3A1CF60E070E0CB01112309F46ACF09
:1045C0002D2D2F7161E070E080E090E004C0660F57
:1045D000771F881F991F2A95D2F75CCF81E00E9430
:1045E000F41531E03C1508F0D0CD82E00E94F415BE
:1045F000CCCDCC2059F0893309F06CCE8FEF97EEFB
:10460000E3E081509040E040E1F762CE8D2D8F7164
:1046100072CFE0E1E00FE73008F03EC0F0E0E35198
:10462000FB4C0C94F22D112309F4AFCD809152056F
:1046300091E0892780935205A8CD10935205A5CD0E
:1046400081E08127F7CF1111A0CD81E0F3CF1111C7
:104650009CCD1092520599CD112321F082E08093D8
:104660005005F3CF80915005823021F481E0809392
:1046700050058BCD833009F088CD10925005E9CFDD
:10468000112339F080915105882381F21092510550
:104690007CCDCC2059F279CD80915105CC20A9F068
:1046A000882341F08091520591E08927809352053B
:1046B00010925105802F11114DCD0E94321A86E0C3
:1046C000F70111928A95E9F760CD882309F45DCD51
:1046D00011115BCD8091520591E08927809352059D
:1046E000D5CF813009F06ACD109250051092520555
:1046F00065CD85E09E012F5F3F4F4901D9010190B3
:104700000D928A95E1F7F701228189819A81211121
:104710004EC80E941307082F52C80631FCE51F0738
:1047200009F00FCC8091C5058A7A91E009F490E0F8
:1047300090934F0569E2811165E38EEA93E00E9450
:1047400046060E94CE067CC806311C4509F058CCAE
:1047500080914F0569E2811165E38EEA93E00E9442
:104760001C06EFCF1F93CF93DF9380915805807F76
:10477000A9F480915505882389F080918A05D0910C
:1047800059056091530570915405A0915605B0915B
:104790005705C62FC72316E0D81304C0DF91CF9169
:1047A0001F91089590E0109711F0CF3F19F40196F2
:1047B0008770F2CF189F9001199F300D1124F901D5
:1047C000E65AFA4F41814713F2CF40814613EFCFAB
:1047D00042814111ECCF438154814A1B5B0B483C21
:1047E000510528F7809158058F7080618093580596
:1047F000F901E15AFA4F80818F708061808383E5EF
:1048000095E00E94971BDF91CF911F910C946A074E
:10481000AF92BF92CF92DF92EF92FF920F931F93CE
:10482000CF93DF93CDB7DEB761970FB6F894DEBFB5
:104830000FBECDBF8C0185E0F801DE011D96019011
:104840000D928A95E1F7F80180819181E28023E55C
:10485000A22E25E0B22E6091560570915705611584
:10486000710509F43EC13091530540915405232F41
:1048700024232F3F09F435C1C380D480F09055051F
:10488000F601E61BF70BFF2009F4FBC02091580549
:10489000522F507FE83CF10508F0BBC0511178C0A1
:1048A000FE2C491321C038131FC0E1101DC02F700A
:1048B000206120935805C5010E94971B80915805DF
:1048C000F80185838F2D61960FB6F894DEBF0FBE79
:1048D000CDBFDF91CF911F910F91FF90EF90DF90AF
:1048E000CF90BF90AF900895CD2829F0282F29238D
:1048F0002F3F09F022C120E0F22FF170DF2E20FFC0
:104900003DC020918A054091590556E0241315C0F9
:104910008D879E878D859E850E94DF0E292F22958B
:104920002F702230F8F0243020F59F70F9F0F80154
:104930009581907FD9F4D12C1FC030E0529FF001B7
:10494000539FF00D1124E65AFA4F6181961306C069
:104950006081861303C06281E61210C02F5F3F4F53
:104960002770D4CF9F7011F0882329F3805E8830A0
:1049700010F3C8010E94971BFD2CA4CFEE2009F470
:10498000A1CF80915805816080935805F12C9ACF72
:10499000491312C0381310C0E1100EC0F80125836E
:1049A000C8010E94971B86E0F801A3E5B5E00190DD
:1049B0000D928A95E1F786CF8D879E878D859E859E
:1049C0000E94E90E882309F1EE20F9F08091580544
:1049D000803270F0209153053091540538872F8331
:1049E0001986DB86CA868C87CE0107960E94971BA4
:1049F00086E0F801A3E5B5E001900D928A95E1F714
:104A00000E94B223FF24F3945DCFC8010E94971B3C
:104A1000F9CF51110AC083E595E00E94971B86E00B
:104A2000F50111928A95E9F7B1CF49130FC03813F8
:104A30000DC0E1100BC0F8012583C8010E94971B2F
:104A400086E0F50111928A95E9F73CCF8D879E8724
:104A50008D859E850E94E90E8823B9F2EE20A9F289
:104A600080915805803220F22091530530915405F1
:104A70003A8329831B82DD82CC828E83CE0101960C
:104A8000B5CFE83CF105E0F6FE2CEE2009F4BDCFF1
:104A9000491316C0381314C08091580580FD83CF88
:104AA000982F907F09F47FCFF8018583903F09F418
:104AB00077CF982F907F905F8F70892B858370CFF1
:104AC0008D879E878D859E850E94E90E811190CFEE
:104AD00080915805816080935805C8010E94971BFA
:104AE000F1CEEE2009F491CF8D879E878D859E852E
:104AF0000E94E90EF82E882309F487CF86E0F8019A
:104B0000A3E5B5E001900D928A95E1F780915305F8
:104B1000909154050E94DF0E92959F70963051F44B
:104B2000863F41F08091520591E08927809352059C
:104B3000909351050E94B223C5CE21E02E25DCCEF4
:104B40001F93CF93DF93CDB7DEB767970FB6F89477
:104B5000DEBF0FBECDBF6D8B7E8B8F8B8E899F8905
:104B6000892BE1F0852F84238F3F09F098C05FEFF8
:104B70004FEF14C030915205332309F44EC0E42F97
:104B8000F0E036E0539FE00DF11D1124EE0FFF1F02
:104B9000E051FE4F40815181822B8C931A8A198AF1
:104BA0004B8B5C8B85E0FE017396DE011D960190B8
:104BB0000D928A95E1F786E0FE013D96DE0117969B
:104BC00001900D928A95E1F7CE0107960E94082484
:104BD000811112C086E0FE013796DE011196019028
:104BE0000D928A95E1F78A859B85892B29F08F8123
:104BF000988589238F3FC9F516E080918A059091A9
:104C00005905891320C067960FB6F894DEBF0FBE12
:104C1000CDBFDF91CF911F91089580958223BDCFA5
:104C200096E0929FD001939FB00D1124A65ABA4FDF
:104C3000FE01319601900D929A95E1F78093590506
:104C40000E946A07D9CF819FC0011124865A9A4FCA
:104C50000E9408248823B9F280918A0590E0019689
:104C60008770992780938A05C8CF2091590530E035
:104C7000C90101968770992740918A05481719063E
:104C800079F60E9437161092590510928A0586E02F
:104C9000E3E5F5E0DF011D928A95E9F7ADCF81E00C
:104CA00090E0042E01C0880F0A94EAF7A52FB0E027
:104CB000A55CBA4F2C913D8931115CCF322F38233E
:104CC0005BCF7F928F929F92AF92BF92CF92DF92F3
:104CD000EF92FF920F931F93CF93DF9380910F0179
:104CE00090911001892BA1F08091CF038F5F809369
:104CF000CF0381110DC00E944F1490E090931001DA
:104D000080930F01892B21F40E94C7100E94331455
:104D1000EAED8E2EE5E09E2E640100E010E077E0E3
:104D2000E72EE10E812F0E94C6148E2D0E94C6141C
:104D3000812F0E941A15E60199916E01F12C8917B5
:104D400029F0FE0131978083FF24F3948E2D0E9479
:104D50001A15F6019681891709F47AC0868381E0D5
:104D60008F29082B0E9401101F5F1730C1F60E9487
:104D700075156091D1037091D2039093D203809303
:104D8000D1032091D00330E0261B370B820F931FF5
:104D90006BEF70E00E94CA2DE82E392F182F8093F8
:104DA000D003F090D403FF2009F4F1C21092D40391
:104DB000E091D005F091D105AF01425F5F4F20E057
:104DC0006BEFB62E6BEF70E0A191AB3F99F0CA2E5E
:104DD000D12C8E2D932F1A17E8F18C199D09092ECD
:104DE000000CAA0BBB0B4E97A105B105C8F1DF0162
:104DF0001197BC924E175F0739F72093D403011126
:104E000002C02111C6C21092D303A091D005B09167
:104E1000D1059091D403E1EFF5E080E03191E40118
:104E200029914E01321751F03C913B3FD9F41C932C
:104E3000AF0141505109EA01288391E01196D5E074
:104E4000EF3FFD0759F79093D4038093D303A5C296
:104E500080E086CFDB01AC19BD098A0F9B1FBFCF55
:104E60002F2DC8CF81E0EACF10921C0140934B0652
:104E700050934C0660934D0670934E0681E08093EC
:104E80001F01F110BFC28091D60583FDBBC26091A6
:104E9000E8057091E9058091EA059091EB050E9483
:104EA0007B06882309F46BC2813009F46DC28091BE
:104EB0001D018111A7C240E060E00E942D08A2C23E
:104EC00080910B01C1E018130BC020914F06237095
:104ED00080910A0190E0C1E02817190609F4C0E0AA
:104EE000C170C0931E01193140F4E12FF0E0EC5085
:104EF000FB4C0C94F22DC11102C0C0E068C040E030
:104F000060E080E00E942D08F8CF80911C01C82F3E
:104F1000CC0FCC0FC80F45E0E42EEC0EDE2CE0E306
:104F2000EE1510F430E3D32E6091500670915106C7
:104F3000809152060E949E0AC62EB72EA82ED0E05F
:104F4000CD1530F0C1E02FE22E1508F040C0D5CFCE
:104F5000FE01E358FC4F808190911D01892331F0BF
:104F60002A2D4C2D6B2DCE010E942F082196E8CFC3
:104F700080911C01C82FCC0FCC0FC80F25E0E22E6A
:104F8000EC0EDE2C30E33E1510F490E3D92EB090F9
:104F90005106C0905206D09150066D2F7B2D8C2D5E
:104FA0000E949E0AA62E972E882E609153066D0FA2
:104FB0007B2D8C2D0E949E0AC62EB72E782ED0E017
:104FC000CD15C8F0C1E09FE29E1508F496CF809100
:104FD0001C018F5F80931C01C1110DC282E0809380
:104FE0001F0180911E01811106C2111104C283E0CC
:104FF00080931F0100C2FE01E358FC4F9081809115
:105000001D01892359F0272D4C2D6B2D90FD03C0D8
:10501000282D4A2D692DCE010E942F082196D0CF30
:1050200080911C01C82FCC0FCC0FC80F85E0E82E53
:10503000EC0ECE2CD0E3DE1510F4D0E3CD2EB090E4
:105040005106A090520620915306B0E4DB2E3D2D70
:10505000329F312D1124D32ED0E0CC1508F0B2CFE1
:10506000FE01E358FC4F808190911D018923B9F026
:10507000FE01EE0FFF1FE25EFC4F808182958F7074
:10508000609150068D9D600D11247B2D8A2D0E940C
:105090009E0A462F282F672FCE010E942F082196A7
:1050A000DCCF80911C01C82FCC0FCC0FC80FE5E0DE
:1050B000EE2EEC0ECE2CD0E3DE1510F470E3C72EEE
:1050C000B0905106A09052062091530660E4D62E6F
:1050D0003D2D329F312D1124D32ED0E0CC1508F078
:1050E00071CFFE01E358FC4F808190911D0189230F
:1050F000D9F0FE01EE0FFF1FE35EFC4F6081D69EEC
:10510000B001112455E0759567955A95E1F78091A6
:105110005006680F7B2D8A2D0E949E0A462F282F4D
:10512000672FCE010E942F082196D8CF80911C01B5
:10513000C82FCC0FCC0FC80F35E0E32EEC0EDE2CC1
:10514000D0E3DE1510F420E3D22EC0905006D091AB
:105150005106B09052066091530666956695669525
:1051600080914B0690914C060E94940A0E941D0A61
:10517000805887FD8195880F282F3B2D239F212D57
:105180001124822F6C2D7D2F0E949E0AC62EB72ED1
:10519000A82ED0E0CD1508F015CFFE01E358FC4F46
:1051A000808190911D01892331F02A2D4C2D6B2D8A
:1051B000CE010E942F082196EDCF88E299E00E944F
:1051C0006D0CC82F04CF8EEF98E0F9CF8FEF99E0E8
:1051D0000E94110CF6CF80EE99E0FACF85EC99E0B1
:1051E0000E94940BEECF89EA99E0FACF8CEF98E019
:1051F000E6CF83EF98E0E3CF8AEE98E0E0CF81ED51
:1052000098E0DDCF83EC98E0EBCF8CE69AE0E0CF3E
:1052100088E999E0DDCF84E899E0E2CF86E998E07B
:105220000E94320BCECF88E698E0FACF81E398E077
:10523000F7CFC1111EC06091530620E1620F08F440
:105240006FEF80914B0690914C060E94940A6AE0A1
:1052500070E00E94CA2D892B09F04FCE0E947B2E50
:1052600060E370E00E94DE2D60911D010E944813F2
:10527000AECE80911C01C82FCC0FCC0FC80F95E08B
:10528000E92EEC0E8E2DD0E3DE1508F480E3D0E09D
:10529000C82ED12CCC15DD0534F0C1E0EFE2EE15BF
:1052A00008F095CE2ACE60911D01CE010E944813D0
:1052B0002196F0CFC1111EC06091530620E1620F0C
:1052C00008F46FEF80914B0690914C060E94940A6F
:1052D00065E070E00E94CA2D892B09F00ECE0E9475
:1052E0007B2E60E370E00E94DE2D60911D010E9424
:1052F00026136DCE80911C01C82FCC0FCC0FC80F88
:1053000085E0E82EEC0E8E2DF0E3FE1508F480E328
:10531000D0E0C82ED12CCC15DD050CF013CE609159
:105320001D01CE010E9426132196F5CF10930B018B
:1053300080914F06837080930A010E94DA1157CE44
:1053400040914B0650914C0660914D0670914E066F
:105350002FB7F8948091CB059091CC05A091CD0505
:10536000B091CE052FBF841B950BA60BB70B4A97A8
:10537000A105B10508F43FC010921F013CC090E0A8
:1053800080E00E94440F3EC081E090E0FACF01111E
:105390003ACD8091D303811136CD8FB7F8944091E7
:1053A000CB055091CC056091CD057091CE058FBF96
:1053B0004093D5035093D6036093D7037093D803DB
:1053C000F0901C0610E0F11008C080914F06182FD5
:1053D000137019F0182F1695169580911F018130C2
:1053E00009F46ECD882309F43FCD823009F49ECFB5
:1053F000833009F4A5CFF11005C080911C068823E5
:1054000009F441CD802FDF91CF911F910F91FF9033
:10541000EF90DF90CF90BF90AF909F908F907F9054
:105420000895CDB7DEB760970FB6F894DEBF0FBE14
:10543000CDBF84B7877F84BF0FB6F894A8958091BD
:105440006000886180936000109260000FBE80E869
:1054500090E00FB6F89480936100909361000FBEC6
:1054600085B7806885BF85B7806885BF0E94510376
:105470000E941C048091E20084608093E200789492
:10548000809141068823A1F01091E9001F7090914E
:10549000EC00892F817090FD80E8182B1092E900B4
:1054A0008091E80083FD0E944C161F701093E90064
:1054B00082E084BD93E095BD9AEF97BD80936E0026
:1054C0000E944F1490E09093100180930F010E946E
:1054D00001100E941010EAEDF5E088EE95E0A1EFD2
:1054E000B5E011921D928E179F07D9F78EE090E0DC
:1054F0000E948B2E8093D0059093D105FC010E96CF
:105500002BEF21938E179F07E1F790E080E00E9438
:1055100073328F3E9E4F11F00E9441110E9433144E
:105520008CE090E00E94653290E0B0E0A0E08093D3
:10553000D2059093D305A093D405B093D50589EAFD
:105540008093800089E08093810024982C983F9874
:105550008AB18F7C8AB96E98479A8BB180638BB978
:10556000769A8FE090E00E946D326093D60570933A
:10557000D7058093D8059093D90567708FEF869FE4
:10558000B001112475956795759567957727709388
:1055900089006093880070938B0060938A007093F9
:1055A0008D0060938C009091D60594FF52C180933A
:1055B0001D010E94C71090E080E00E9473328F3E70
:1055C0009E4F11F00E94411182E090E00E946532EE
:1055D00080930C060E941D109093ED058093EC05BE
:1055E00083E090E00E946532682F70E090E080E0F8
:1055F0000E942D166091E8057091E9058091EA05F9
:105600009091EB050E94CD0F0E9420080E94200877
:105610000E948E1381E191E09093EF058093EE0557
:10562000BB24B394AA24AA948FEFE82E85E0F82E29
:1056300090E1992E22E1822E38E1C32ED12C40E454
:10564000742E80914106853009F406C10E946126BE
:10565000EDE0F6E0A1EFB5E010E000E0302F8D9135
:105660002191281709F451C190E0662463942827FA
:10567000422F462109F444C19F833887862191E057
:1056800009F490E099870E9475158160782F9B87B7
:105690008A874F81588569858B850E94A025F801EE
:1056A000E35FF94F80816826608286E0E5E0F6E0FE
:1056B000DE01119601900D928A95E1F76090070640
:1056C000509008061091090600910A0610920706EC
:1056D000109208061092090610920A06862D852956
:1056E00009F448C080910306909104060E940D06BB
:1056F0009C0190910206992309F441C1253131059D
:10570000C8F19F3F19F09F5F90930206662059F001
:105710000E9481059FEF16140CF491E0899F802D63
:10572000112480930706552059F00E9481059FEFB0
:1057300015140CF491E0899F802D112480930806A4
:10574000309107063323B1F020910806222391F00F
:1057500045EB3403C0011124992309F4ECC0909364
:10576000070645EB240390011124332309F4E6C016
:1057700030930806812F802B09F448C080910006E1
:10578000909101060E940D069C019091FF059923BE
:1057900009F4F1C025313105C8F19F3F19F09F5F31
:1057A0009093FF05112359F00E9461059FEF111698
:1057B0000CF491E0899F802D112480930906002329
:1057C00059F00E9461059FEF10160CF491E0899F3B
:1057D000802D112480930A06309109063323B1F0FD
:1057E00020910A06222391F045EB3403C0011124D5
:1057F000992309F4A6C09093090645EB2403900170
:105800001124332309F4A0C030930A0680910706BF
:1058100090910806892B90910906892B90910A0690
:10582000892B11F00E94811586E0FE013196A5E0DA
:10583000B6E001900D928A95E1F70E94CA07909117
:105840000B06891709F4FDCE0E94CA0780930B0648
:10585000F8CE10921D01ADCE40E060E080E00E94E5
:105860002D08B0921C0680914106843041F11092BF
:10587000F0050FB6F894A895C09260000FBE709224
:10588000600040E060E080E00E942D08B0921C06BD
:1058900083B7817F846083BF83B7816083BF78943F
:1058A000889583B78E7F83BF0FB6F894A8958091B3
:1058B0006000886180936000109260000FBE80914C
:1058C0004006882309F4BDCE0E944F1490E09093C7
:1058D000100180930F010E9401100E941010E1EF4F
:1058E000F5E01192EE16FF06E1F70E946126E1EF66
:1058F000F5E0819181112BC0EE16FF06D1F7A1CE04
:105900009F5F660C963009F0B3CE0F5F1F4F0E30CD
:10591000110509F0A3CEAC86AD861E860E947515D2
:105920008160782F988B8F874C855D856E858889FF
:105930000E94A025BACEB092070613CFB0920806F7
:1059400019CFB092090659CFB0920A065FCF99BC21
:1059500089BC09B400FEFDCF8091D8008F7D809373
:10596000D8008091E00082608093E0008091E000A8
:1059700081FDFCCF66CE232B09F011CF47CF232B1F
:1059800009F0C1CEF7CE1F921FB61F9211248F933C
:105990009F93AF93BF938091F005811113C08091C5
:1059A000CB059091CC05A091CD05B091CE05419647
:1059B000A11DB11D8093CB059093CC05A093CD057F
:1059C000B093CE05BF91AF919F918F911F901FBE55
:1059D0001F9018951092B9008CE08093B80008953C
:1059E000EF92FF920F931F93CF93DF93182FEB014A
:1059F0001092BC0084EA8093BC000E9475157C0163
:105A00008091BC0087FF27C08091B900887F8830D3
:105A100029F08091B900887F8031D9F51093BB00BF
:105A200084E88093BC000E9475158C018091BC00B5
:105A300087FF24C02091B900287F90E080E02831C2
:105A4000B1F081E090E0203411F490E080E0919595
:105A5000819591090CC0CF3FDC0791F20E9475152A
:105A60008E199F098C179D0758F28EEF9FEFDF91DB
:105A7000CF911F910F91FF90EF900895CF3FDC07DA
:105A8000A9F20E947515801B910B8C179D0770F26F
:105A9000ECCF8FEF9FEFEBCF0F931F93CF93DF935D
:105AA000EB018093BB0084E88093BC000E947515D5
:105AB0008C018091BC0087FF11C02091B900287F24
:105AC00081E090E0283211F490E080E0919581959A
:105AD0009109DF91CF911F910F910895CF3FDC077E
